:100000000C945D000C9485000C9485000C94850084
:100010000C9485000C9485000C9485000C9485004C
:100020000C9485000C9485000C9485000C94990721
:100030000C9485000C9485000C9485000C9485002C
:100040000C94F7060C9485000C9467070C944107F8
:100050000C9485000C9485000C9485000C9485000C
:100060000C9485000C9485000000000024002700FB
:100070002A0000000000250028002B0004040404CE
:100080000404040402020202020203030303030342
:10009000010204081020408001020408102001021F
:1000A00004081020000000080002010000030407FB
:1000B0000000000000000000DE0711241FBECFEF8B
:1000C000D8E0DEBFCDBF12E0A0E0B1E0E4EAF8E1A5
:1000D00002C005900D92A236B107D9F723E0A2E63F
:1000E000B2E001C01D92A034B207E1F710E0CDE507
:1000F000D0E004C02197FE010E94450CCC35D10709
:10010000C9F70E9429080C94500C0C94000090E050
:10011000FC01EC55FF4F2491FC01E057FF4F349157
:10012000FC01E458FF4FE491EE2309F43CC0222384
:1001300039F1233091F038F42130A9F0223001F563
:1001400084B58F7D12C0273091F02830A1F0243083
:10015000B9F4809180008F7D03C0809180008F77FB
:10016000809380000DC084B58F7784BD09C08091D5
:10017000B0008F7703C08091B0008F7D8093B00076
:10018000F0E0EE0FFF1FEE58FF4FA591B4919FB71F
:10019000F894611104C08C913095382302C0EC9121
:1001A0003E2B3C939FBF0895CF93DF9390E0FC01DB
:1001B000E057FF4F2491FC01E458FF4F84918823BE
:1001C00061F190E0880F991FFC01E859FF4FC5913C
:1001D000D491FC01EE58FF4FA591B491611109C073
:1001E0009FB7F8948881209582238883EC912E23F1
:1001F0000BC0623061F49FB7F8948881322F30953C
:1002000083238883EC912E2B2C939FBF06C08FB73E
:10021000F894E8812E2B28838FBFDF91CF9108952A
:10022000DC01ED91FC910190F081E02D0994CF92D9
:10023000DF92EF92FF920F931F93CF93DF936C01A6
:100240007A018B01C0E0D0E0CE15DF0581F0D80146
:100250006D918D01D601ED91FC910190F081E02D21
:10026000C6010995892B11F02196EECF7E01C701B9
:10027000DF91CF911F910F91FF90EF90DF90CF9082
:100280000895FC01538D448D252F30E0842F90E09C
:10029000821B930B541710F0CF9608950197089581
:1002A000FC01918D828D981761F0828DDF01A80F7E
:1002B000B11D5D968C91928D9F5F9F73928F90E0A0
:1002C00008958FEF9FEF0895FC01918D828D98170F
:1002D00031F0828DE80FF11D858D90E008958FEF4C
:1002E0009FEF0895FC01918D228D892F90E0805C15
:1002F0009F4F821B91098F73992708958BE892E095
:100300000E94720121E0892B09F420E0822F0895D8
:10031000FC01848DDF01A80FB11DA35ABF4F2C91A2
:10032000848D90E001968F739927848FA689B78971
:100330002C93A089B1898C91837080648C93938D68
:10034000848D981306C00288F389E02D80818F7D0B
:1003500080830895EF92FF920F931F93CF93DF93C3
:10036000EC0181E0888F9B8D8C8D981305C0E88906
:10037000F989808185FD26C0F62E0B8D10E00F5F78
:100380001F4F0F731127E02E8C8DE8120CC00FB693
:1003900007FCFACFE889F989808185FFF5CFCE0186
:1003A0000E948801F1CF8B8DFE01E80FF11DE35A09
:1003B000FF4FF0829FB7F8940B8FEA89FB89808109
:1003C00080620AC09FB7F894EE89FF896083E8894C
:1003D000F98980818370806480839FBF81E090E091
:1003E000DF91CF911F910F91FF90EF900895CF93E0
:1003F000DF93EC01888D8823C9F0EA89FB8980812D
:1004000085FD05C0A889B9898C9186FD0FC00FB6FE
:1004100007FCF5CF808185FFF2CFA889B9898C913F
:1004200085FFEDCFCE010E948801E7CFDF91CF910C
:10043000089580E090E0892B29F00E947E018111CF
:100440000C9400000895CF93DF93EC0160E08E815F
:100450000E94870061E08E810E94870060E08E81AB
:100460000E9487008BE891E00197F1F7DF91CF912F
:100470000895CF92DF92EF92FF920F931F93CF9345
:10048000DF936C017C0187E0E80EF11CC0E0D0E056
:10049000062F10E0B8010C2E02C0759567950A94DE
:1004A000E2F76170F70181917F010E948700219638
:1004B000C430D10579F7C601DF91CF911F910F911B
:1004C000FF90EF90DF90CF900C942302CF92DF92B9
:1004D000EF92FF920F931F93CF93DF93EC01F62ED1
:1004E000642F8C810E9487008D818F3F19F060E01E
:1004F0000E9487008F850F2D10E084FF25C06E01BC
:1005000087E0C80ED11CE12CF12CB8010E2C02C0E2
:10051000759567950A94E2F76170F60181916F0114
:100520000E948700FFEFEF1AFF0A88E0E816F10447
:1005300061F7CE01DF91CF911F910F91FF90EF9066
:10054000DF90CF900C942302B80184E075956795F5
:100550008A95E1F7CE010E9439026F2DCE01DF911D
:10056000CF911F910F91FF90EF90DF90CF900C945F
:10057000390240E0682F88E293E00C94660281E043
:100580000E94B9028BE39FE10197F1F70895CF93A1
:10059000DF93623028F0909137039860909337038F
:1005A00060933B0310923C0390E490933D0380934F
:1005B0003E0390E0805C9F4F80933F0361E0809119
:1005C0002C030E94D40080912D038F3F19F061E02D
:1005D0000E94D40061E080912E030E94D400C8E202
:1005E000D3E09E01285233408091370384FD03C03D
:1005F00084E090E002C088E090E021962817390757
:100600002CF461E08E810E94D400EBCF8BE39DE05F
:100610000197F1F760E080912C030E94870060E071
:1006200080912E030E94870080912D038F3F19F047
:1006300060E00E9487008091370384FD20C063E062
:1006400088E293E00E943902CBE4D6E4CE01019720
:10065000F1F763E088E293E00E9439022197F1F715
:1006600063E088E293E00E94390283E592E001971B
:10067000F1F762E088E293E00E94390215C08062DF
:100680000E94B9028BE496E40197F1F78091370359
:1006900080620E94B90283E592E00197F1F78091B0
:1006A000370380620E94B9028091370380620E9402
:1006B000B90284E0809338038CE00E94B9020E9462
:1006C000BF0282E08093390386E0DF91CF910C94E2
:1006D000B902843008F083E090913B03891710F051
:1006E0008FEF890FE82FF0E0E85DFC4F8489806888
:1006F0000C94B90241E00E94660281E090E0089506
:10070000089580E090E008952FB7F8946091660214
:100710007091670280916802909169022FBF0895DD
:100720000E944B0C6115710579F0FB0101900020CE
:10073000E9F73197AF01461B570BDC01ED91FC91B6
:100740000280F381E02D099480E090E00895CF933A
:10075000DF93BC018BE892E00E949203EC0167E218
:1007600071E08BE892E00E9492038C0F9D1FDF9155
:10077000CF9108958F929F92AF92BF92EF92FF9286
:100780000F931F93CF93DF93CDB7DEB7A1970FB62B
:10079000F894DEBF0FBECDBF7C01FA01CB0119A2D8
:1007A000223008F42AE08E010F5D1F4F822E912C1B
:1007B000A12CB12CBF01A50194010E94040CF901E8
:1007C000CA01015011096A3014F4605D01C0695C0E
:1007D000D8016C93232B242B252B61F7B801C7017B
:1007E0000E949203A1960FB6F894DEBF0FBECDBF54
:1007F000DF91CF911F910F91FF90EF90BF90AF903D
:100800009F908F9008957F928F929F92AF92BF9208
:10081000CF92DF92EF92FF920F931F93CF93DF93CC
:100820008C016A017B01722E9A01AB01C701B601EE
:100830000E94FF0B882319F06AE271E027C046018D
:100840005701E894B7F82FEF3FEF4FE75FE7C50197
:10085000B4010E94FF0B81110DC02FEF3FEF4FE756
:100860005FE7C501B4010E942E0A18161CF46EE25F
:1008700071E00CC02FEF3FEF4FE75FE4C701B60117
:100880000E948D0B181694F462E371E0C801DF91A9
:10089000CF911F910F91FF90EF90DF90CF90BF907D
:1008A000AF909F908F907F900C9492032FEF3FEF2B
:1008B0004FE75FECC701B6010E942E0A87FDE4CF27
:1008C00020E030E0A901C701B6010E942E0A87FF8F
:1008D0000AC06DE2C8010E941001EC01F7FAF09421
:1008E000F7F8F09402C0C0E0D0E0B12C60E070E016
:1008F00080E09FE37B1441F020E030E040E251E4EF
:100900000E94330AB394F6CFA70196010E94C20950
:100910006B017C010E94AC0A4B015C012AE0AB0137
:10092000BC01C8010E94BA03C80FD91F7720C1F1CA
:10093000C501B4010E94DB0A9B01AC01C701B601ED
:100940000E94C1096B017C016EE2C8010E94100186
:10095000C80FD91F20E030E040E251E4C701B601E2
:100960000E94920B4B015C010E94AC0A6B01E12CCE
:10097000F12C2AE0B701A601C8010E94BA03C80FF2
:10098000D91FC701B6010E94DB0A9B01AC01C5015A
:10099000B4010E94C1096B017C017A947110DACF15
:1009A000CE01DF91CF911F910F91FF90EF90DF90DB
:1009B000CF90BF90AF909F908F907F900895CF93EE
:1009C000DF93AB01BC0122E08BE892E00E940304BC
:1009D000EC0167E271E08BE892E00E9492038C0FD9
:1009E0009D1FDF91CF9108950C9492036EE371E007
:1009F0008BE892E00E94F4040E948403AB01BC01E6
:100A00002AE08BE892E00E94BA0386E491E00E941B
:100A1000A70361E571E08BE892E00E94F404809105
:100A20007C0290917D028430910540F4880F991FDB
:100A3000FC01EF5FFE4F8081918102C086E391E06F
:100A40000E94A70361E671E08BE892E00E94F40443
:100A500060916A0270916B0280916C0290916D02BC
:100A60000E94DF0468E671E08BE892E00E94F404E3
:100A7000609176027091770280917802909179026C
:100A80000E94DF046FE671E08BE892E00E94F404BC
:100A900060916E0270916F0280917002909171026C
:100AA0000E94DF046AE871E08BE892E00E94F4049F
:100AB000609172027091730280917402909175023C
:100AC0000E94DF048BE892E00C94F701CF92DF9252
:100AD000EF92FF9281E00E94690368E671E088E28C
:100AE00093E00E94F4044091760250917702609165
:100AF00078027091790222E088E293E00E94030478
:100B000066EA71E088E293E00E94F40482E00E94C9
:100B1000690361E671E088E293E00E94F404409189
:100B20006A0250916B0260916C0270916D0222E03A
:100B300088E293E00E9403046CEA71E088E293E0AB
:100B40000E94F404C0907A02D0907B020D2C000C1D
:100B5000EE08FF08F7FE0EC06DE288E293E00E9407
:100B6000100144275527BA014C195D096E097F0908
:100B70002AE003C02AE0B701A60188E293E00E94C0
:100B8000BA0360EB71E088E293E00E94F4040E94F3
:100B9000840383E060FF18C00E94690363EB71E087
:100BA00088E293E00E94F40440916E0250916F023B
:100BB000609170027091710222E088E293E00E94DD
:100BC00003046DEB71E017C00E94690360EC71E0F3
:100BD00088E293E00E94F404409172025091730203
:100BE000609174027091750222E088E293E00E94A5
:100BF00003046BEC71E088E293E0FF90EF90DF90EC
:100C0000CF900C94F404EC0160E08BE00E9487002C
:100C100061E08CE00E9487006DEC71E08BE892E06F
:100C20000E94F4040E948403AB01BC012AE08BE81B
:100C300092E00E94BA0366E471E08BE892E00E94C1
:100C4000F404CE010E94A7030E94F6040E94BF0292
:100C500080E00E946903BE0188E293E00E94F404F0
:100C60000E946605FFCFCF92DF92EF92FF9292EF44
:100C7000980F8E3008F0892FA82FA770E0EAF0E0D7
:100C800060E070E0CB012091000140E4249F9001DE
:100C900011242A2B20937C0020917A002064209339
:100CA0007A0020917A0026FDFCCF409178002091B7
:100CB000790050E0522B6A01550FEE08FF086C0DC9
:100CC0007D1D8E1D9F1D3197F1F620EA30E040E03A
:100CD00050E00E94260C243A31051CF486ED91E088
:100CE00006C0293E63E0360724F081EE91E00E94C1
:100CF0000306263D83E0380714F025ED33E0B90103
:100D0000625C710977FF02C060E070E0072E000CA2
:100D1000880B990B0E94DD0A20E030EC44E454E497
:100D20000E94330AFF90EF90DF90CF900895CF920A
:100D3000DF92EF92FF92CF93DF93EC016DEE71E0C3
:100D40008BE892E00E94F4046E010D2E000CEE0878
:100D5000FF08F7FE0EC06DE28BE892E00E941001E2
:100D600044275527BA014C195D096E097F092AE00D
:100D700003C02AE0B701A6018BE892E00E94BA0303
:100D800067E271E08BE892E00E9492030E94F60411
:100D9000C0906202D0906302E0906402F09065021D
:100DA000C114D104E104F10481F00E948403DC0148
:100DB000CB018C199D09AE09BF09CC97A105B105DE
:100DC00020F489EF91E00E9403060E94840360935F
:100DD0006202709363028093640290936502CE0175
:100DE000DF91CF91FF90EF90DF90CF9008951F9209
:100DF0000F920FB60F9211242F933F938F939F93CF
:100E0000AF93BF938091870290918802A09189024D
:100E1000B0918A023091860223E0230F2D3720F40F
:100E20000196A11DB11D05C026E8230F0296A11D44
:100E3000B11D209386028093870290938802A0932D
:100E40008902B0938A028091820290918302A091DC
:100E50008402B09185020196A11DB11D809382028A
:100E600090938302A0938402B0938502BF91AF91C7
:100E70009F918F913F912F910F900FBE0F901F90D8
:100E800018951F920F920FB60F9211242F933F9334
:100E90004F935F936F937F938F939F93AF93BF9382
:100EA000EF93FF938BE892E00E948801FF91EF910E
:100EB000BF91AF919F918F917F916F915F914F9172
:100EC0003F912F910F900FBE0F901F9018951F927A
:100ED0000F920FB60F9211242F938F939F93EF933E
:100EE000FF93E0919B02F0919C028081E091A1022E
:100EF000F091A20282FD12C090818091A4028F5FC6
:100F00008F732091A502821751F0E091A402F0E0C6
:100F1000E557FD4F958F8093A40201C08081FF911A
:100F2000EF919F918F912F910F900FBE0F901F9077
:100F300018951F920F920FB60F9211242F933F9383
:100F40004F935F936F937F938F939F93AF93BF93D1
:100F5000EF93FF938091660290916702A0916802DF
:100F6000B09169020196A11DB11D80936602909314
:100F70006702A0936802B093690280916602909123
:100F80006702A0916802B091690280FF02C061E02F
:100F900001C060E08DE00E948700FF91EF91BF915A
:100FA000AF919F918F917F916F915F914F913F9101
:100FB0002F910F900FBE0F901F901895EBE8F2E065
:100FC0001382128288EE93E0A0E0B0E084839583E0
:100FD000A683B7838DE091E09183808385EC90E0D8
:100FE0009587848784EC90E09787868780EC90E0F3
:100FF000918B808B81EC90E0938B828B82EC90E0E4
:10100000958B848B86EC90E0978B868B118E128E5D
:10101000138E148EE8E2F3E0138212828FE191E0E6
:10102000918380838AE084838FEF858389E0868340
:1010300086E0878385E0808784E0818783E08287FC
:101040001386148615861686178661E080E10C9457
:10105000C702789484B5826084BD84B5816084BD04
:1010600085B5826085BD85B5816085BD80916E0046
:10107000816080936E001092810080918100826077
:1010800080938100809181008160809381008091B4
:1010900080008160809380008091B10084608093A3
:1010A000B1008091B00081608093B00080917A009F
:1010B000846080937A0080917A00826080937A00C5
:1010C00080917A00816080937A0080917A008068B4
:1010D00080937A001092C100F894109280001092D0
:1010E0008100109285001092840088E09DE3909327
:1010F00089008093880080918100886080938100BE
:101100008091810085608093810080916F00826072
:1011100080936F00789464E084E10E94C702E091BC
:101120009B02F0919C0282E08083E0919702F09113
:1011300098021082E0919902F0919A028FEC8083DC
:101140001092A302E0919F02F091A00286E08083BA
:10115000E0919D02F0919E02808180618083E09108
:101160009D02F0919E02808188608083E0919D02C3
:10117000F0919E02808180688083E0919D02F091D1
:101180009E0280818F7D808360E08BE00E948700DB
:1011900060E08CE00E94870061E08BE00E94D40058
:1011A00061E08CE00E94D40061E08DE00E94D400F8
:1011B00087E092E00E94A7030E94F60481E08093FA
:1011C000000160E080E00E94D40060E081E00E94C5
:1011D000D40035E0832E912CA12CB12C0E948403E5
:1011E000A50194010E94040C672B682B692B11F454
:1011F0000E94F6040E94BF0280E00E94690369E534
:1012000071E088E293E00E94F40480917C02909166
:101210007D028430910540F4880F991FFC01EF5F37
:10122000FE4F6081718102C066E371E088E293E065
:101230000E94F4040E9466050E948403C0907E020E
:10124000D0907F02E0908002F09081026C157D05C5
:101250008E059F0589F381E090E00E94330620E02F
:1012600030E040E752E40E94920B2BED3AE84DED5E
:101270005EE30E94330A6B017C01609376027093F7
:101280007702809378029093790280E090E00E9448
:10129000330620E030E040EA50E40E94920B2BED50
:1012A0003AE84DED5EE30E94330A60936A02709360
:1012B0006B0280936C0290936D0220E030E048EC6A
:1012C00052E40E94920B2CE53FE84AEE50E40E9463
:1012D000330A0E94A50AAB0170937B0260937A02E5
:1012E00020917C0230917D022115310559F1603544
:1012F00071051CF485E292E035C02230310549F0D9
:1013000023303105F9F02130310571F184E392E0A9
:1013100029C06A3571058CF4C0926E02D0926F02BA
:10132000E0927002F092710283E090E00E949706D2
:1013300090937D0280937C0217C060E08BE00E9456
:10134000870012C04436510514F461E0F7CFC09213
:101350007202D0927302E0927402F092750282E0FF
:1013600090E0E4CF0E9403060E94840360937E0213
:1013700070937F0280938002909381020E941902F1
:101380002DCF5058BB27AA270E94D9090C94530B84
:101390000E94450B38F00E944C0B20F039F49F3F1F
:1013A00019F426F40C94420B0EF4E095E7FB0C9430
:1013B0003C0BE92F0E94640B58F3BA1762077307BE
:1013C0008407950720F079F4A6F50C94860B0EF4AB
:1013D000E0950B2EBA2FA02D0B01B90190010C0145
:1013E000CA01A0011124FF27591B99F0593F50F45D
:1013F000503E68F11A16F040A22F232F342F4427B5
:10140000585FF3CF469537952795A795F0405395AC
:10141000C9F77EF41F16BA0B620B730B840BBAF07C
:101420009150A1F0FF0FBB1F661F771F881FC2F7E7
:101430000EC0BA0F621F731F841F48F487957795FB
:101440006795B795F7959E3F08F0B0CF9395880FB5
:1014500008F09927EE0F9795879508950E94180B2D
:1014600008F481E008950E94470A0C94530B0E94EF
:101470004C0B58F00E94450B40F029F45F3F29F0D7
:101480000C943C0B51110C94870B0C94420B0E9452
:10149000640B68F39923B1F3552391F3951B550B16
:1014A000BB27AA2762177307840738F09F5F5F4F37
:1014B000220F331F441FAA1FA9F335D00E2E3AF076
:1014C000E0E832D091505040E695001CCAF72BD08E
:1014D000FE2F29D0660F771F881FBB1F26173707DF
:1014E0004807AB07B0E809F0BB0B802DBF01FF2711
:1014F00093585F4F3AF09E3F510578F00C943C0BA7
:101500000C94870B5F3FE4F3983ED4F38695779570
:101510006795B795F7959F5FC9F7880F911D9695C9
:10152000879597F90895E1E0660F771F881FBB1F25
:10153000621773078407BA0720F0621B730B840BD2
:10154000BA0BEE1F88F7E09508950E94AC0A6894E4
:10155000B1110C94870B08950E946C0B88F09F5773
:1015600098F0B92F9927B751B0F0E1F0660F771FC7
:10157000881F991F1AF0BA95C9F714C0B13091F0BD
:101580000E94860BB1E008950C94860B672F782F8C
:101590008827B85F39F0B93FCCF386957795679582
:1015A000B395D9F73EF490958095709561957F4FEE
:1015B0008F4F9F4F0895E89409C097FB3EF4909594
:1015C0008095709561957F4F8F4F9F4F9923A9F01C
:1015D000F92F96E9BB279395F695879577956795AB
:1015E000B795F111F8CFFAF4BB0F11F460FF1BC0EF
:1015F0006F5F7F4F8F4F9F4F16C0882311F096E982
:1016000011C0772321F09EE8872F762F05C066232F
:1016100071F096E8862F70E060E02AF09A95660FE8
:10162000771F881FDAF7880F9695879597F90895A1
:10163000990F0008550FAA0BE0E8FEEF16161706E3
:10164000E807F907C0F012161306E407F50798F04B
:10165000621B730B840B950B39F40A2661F0232B64
:10166000242B252B21F408950A2609F4A140A695E0
:101670008FEF811D811D089597F99F6780E870E0C5
:1016800060E008959FEF80EC089500240A941616F8
:10169000170618060906089500240A941216130660
:1016A000140605060895092E0394000C11F48823EE
:1016B00052F0BB0F40F4BF2B11F460FF04C06F5F0A
:1016C0007F4F8F4F9F4F089557FD9058440F551FE0
:1016D00059F05F3F71F04795880F97FB991F61F0B4
:1016E0009F3F79F087950895121613061406551F2B
:1016F000F2CF4695F1DF08C0161617061806991F97
:10170000F1CF86957105610508940895E894BB278B
:1017100066277727CB0197F908950E94180B08F4E4
:101720008FEF08950E94A50B0C94530B0E94450B5C
:1017300038F00E944C0B20F0952311F00C943C0BD8
:101740000C94420B11240C94870B0E94640B70F3D1
:10175000959FC1F3950F50E0551F629FF001729F56
:10176000BB27F00DB11D639FAA27F00DB11DAA1F65
:10177000649F6627B00DA11D661F829F2227B00DB2
:10178000A11D621F739FB00DA11D621F839FA00D3D
:10179000611D221F749F3327A00D611D231F849F8D
:1017A000600D211D822F762F6A2F11249F575040E4
:1017B0009AF0F1F088234AF0EE0FFF1FBB1F661F5F
:1017C000771F881F91505040A9F79E3F510580F028
:1017D0000C943C0B0C94870B5F3FE4F3983ED4F3DE
:1017E000869577956795B795F795E7959F5FC1F7CC
:1017F000FE2B880F911D9695879597F908950E9465
:10180000180B880B990B0895A1E21A2EAA1BBB1B7B
:10181000FD010DC0AA1FBB1FEE1FFF1FA217B307BC
:10182000E407F50720F0A21BB30BE40BF50B661FD2
:10183000771F881F991F1A9469F760957095809596
:1018400090959B01AC01BD01CF010895052E97FB3A
:101850001EF400940E943D0C57FD07D00E94040C1A
:1018600007FC03D04EF40C943D0C509540953095F8
:1018700021953F4F4F4F5F4F0895909580957095FC
:1018800061957F4F8F4F9F4F0895EE0FFF1F05907B
:10189000F491E02D099481E090E0F8940C94500CC0
:0418A000F894FFCFEA
:1018A400013E0247025102590200000000AA01173A
:1018B400014101F701720150016401000000007A46
:1018C400031701810380030D0A006E616E00696EC7
:1018D40066006F766600556E6B6E6F776E005469A6
:1018E400636B733A2000207365636F6E64732E20FC
:1018F4000043757272656E742053746174653A2086
:101904000054616E6B3A200057656C6C3A200057A6
:10191400656C6C2040206C6173742070756D702050
:101924007475726E206F6E3A200057656C6C20409F
:10193400206C6173742070756D70207475726E20E4
:101944006F66663A200027202020200027202800E8
:1019540025290057656C6C404F6E3A200027200003
:1019640057656C6C404F66663A20002700466175E7
:101974006C742040200053656E736F72204C6F7737
:101984000053656E736F722048696768004E65770F
:101994002053746174653A20005261706964204375
:1019A40079636C696E670057656C6C2050756D7057
:1019B40020436F6E74726F6C6C6572205665722072
:1019C400322E330A004C6F772054616E6B204C65C5
:1019D40076656C00426164205374617465004669E5
:1019E4006C6C6C696E670046696C6C205761697435
:1019F4000057616974696E670050756D70696E6730
:021A04000000E0
:00000001FF
