:100000000C945E000C9486000C9486000C94860080
:100010000C9486000C9486000C9486000C94860048
:100020000C9486000C9486000C9486000C94860038
:100030000C9486000C9486000C9486000C94860028
:100040000C9470050C9486000C9448080C947A0863
:100050000C9486000C9486000C9486000C94860008
:100060000C9486000C948600000000080002010039
:100070000003040700000000000000000102040863
:100080001020408001020408102001020408102002
:10009000040404040404040402020202020203032E
:1000A0000303030300000000250028002B000000CC
:1000B0000000240027002A007001AA0811241FBE96
:1000C000CFEFD8E0DEBFCDBF12E0A0E0B1E0EEE2BE
:1000D000FBE102C005900D92A636B107D9F723E0E7
:1000E000A6E6B2E001C01D92A234B207E1F710E02B
:1000F000CCEBD0E004C02297FE010E94910DC83BDA
:10010000D107C9F70E94EE080C94950D0C940000DD
:10011000CF92DF92EF92FF921F93CF93DF93182F2E
:10012000C0EAD0E0C12CD12C7601812F0E944E066E
:10013000AC01662757FD6095762FC40ED51EE61ECE
:10014000F71E219791F7C701B60120EA30E040E0A1
:1001500050E00E94700DC901DF91CF911F91FF9077
:10016000EF90DF90CF90089541E060E086E692E066
:100170000E946F0467E071E086E692E00E943B090E
:1001800040918E0250918F02609190027091910285
:1001900022E030E086E692E00E941A0B6EE071E009
:1001A00086E692E00E943B0942E060E086E692E04B
:1001B0000E946F0464E171E086E692E00E943B09D0
:1001C000409194025091950260919602709197022D
:1001D00022E030E086E692E00E941A0B6BE171E0CB
:1001E00086E692E00E943B09609192027091930230
:1001F0004AE050E086E692E00E94FD096FE171E07E
:1002000086E692E00E943B098091820243E060E032
:1002100080FF1BC086E692E00E946F0462E271E0FC
:1002200086E692E00E943B09409186025091870247
:10023000609188027091890222E030E086E692E0C7
:100240000E941A0B6CE271E01AC086E692E00E94EE
:100250006F046FE271E086E692E00E943B094091F4
:100260008A0250918B0260918C0270918D0222E083
:1002700030E086E692E00E941A0B6AE371E086E6BF
:1002800092E00C943B0986E692E00E94680440E00C
:1002900060E086E692E00E946F0468E771E086E61F
:1002A00092E00E943B0980919A0290919B028130DA
:1002B000910541F08230910541F0892B49F46CE3BE
:1002C00071E008C065E471E005C06DE471E002C052
:1002D00065E571E086E692E00E943B090C94B4006B
:1002E000CF92EF920F9383E0C82E94E0E92E05E0C1
:1002F00026E049E06AE086E692E00E9444050F911C
:10030000EF90CF9008956DE571E085EA92E00E944C
:100310003B09409182025091830260918402709166
:1003200085022AE030E085EA92E00E94B30965E6A2
:1003300071E085EA92E00E94480960E771E085EA91
:1003400092E00E943B0960919A0270919B024AE000
:1003500050E085EA92E00E94050A60E871E085EAD3
:1003600092E00E943B0940917E0250917F02609191
:100370008002709181022AE030E085EA92E00E94DA
:100380001D0A64E171E085EA92E00E943B09409118
:10039000940250919502609196027091970222E02A
:1003A00030E085EA92E00E941C0B67E071E085EA8C
:1003B00092E00E943B0940918E0250918F02609121
:1003C00090027091910222E030E085EA92E00E9472
:1003D0001C0B65E971E085EA92E00E943B094091BF
:1003E000860250918702609188027091890222E012
:1003F00030E085EA92E00E941C0B60EB71E085EA38
:1004000092E00E943B0940918A0250918B026091D8
:100410008C0270918D0222E030E085EA92E00E9429
:100420001C0B85EA92E00C945F07EC0160E0809180
:1004300002010E94CD0661E0809100010E94CD067C
:100440006CEC71E085EA92E00E943B0940918202E7
:100450005091830260918402709185022AE030E01D
:1004600085EA92E00E94B30965E671E085EA92E0D0
:100470000E943B09BE0185EA92E00E9448090E9461
:10048000830186E692E00E94680440E060E086E630
:1004900092E00E946F04BE0186E692E00E943B0952
:1004A0000E94B400FFCF0E948800843A91051CF49A
:1004B00085ED91E006C0893E23E0920724F080EEAE
:1004C00091E00E941502BC01663D83E0780714F0BC
:1004D00065ED73E0625C710977FF02C060E070E077
:1004E000882777FD8095982F0E94330C20E030EC10
:1004F00044E454E40E94980B089580910401909183
:1005000005010E94530220E030E040E752E40E94DF
:10051000E70C2BED3AE84DED5EE30E94980B6093FB
:100520008E0270938F02809390029093910280913B
:100530009802909199020E94530220E030E040EA34
:1005400050E40E94E70C2BED3AE84DED5EE30E948B
:10055000980B609394027093950280939602909307
:10056000970220E030E048EC52E40E94E70C2CE5D2
:100570003FE84AEE50E40E94980B0E94000C7093F2
:1005800093026093920208950F931F93CF93DF938A
:10059000EC016CEE71E085EA92E00E943B094AE0D2
:1005A00050E0BE0185EA92E00E94050A0E948301A4
:1005B00080917E0290917F02A0918002B091810291
:1005C0004091820250918302609184027091850271
:1005D0000097A105B10579F08A019B01081B190B51
:1005E0002A0B3B0B0C3311052105310524F488EF50
:1005F00091E00E94150240937E0250937F02609327
:10060000800270938102CE01DF91CF911F910F91F3
:1006100008950E94430168EE73E080E090E00E943C
:10062000DD050E947D0220919A0230919B0280910B
:100630009202909193022115310561F08035910568
:100640001CF486E092E042C021303105D9F022301E
:100650003105D1F5843691059CF080918E02909100
:100660008F02A0919002B091910280938A029093A0
:100670008B02A0938C02B0938D0281E090E017C0B2
:1006800061E01DC08A359105CCF480918E02909175
:100690008F02A0919002B091910280938602909374
:1006A0008702A0938802B093890282E090E00E94C2
:1006B000C40290939B0280939A020AC060E08091EA
:1006C00002010E94CD0604C085E192E00E9415025D
:1006D0008091820290918302A0918402B091850260
:1006E0000196A11DB11D8093820290938302A09375
:1006F0008402B093850208950F931F93CF93DF93E5
:1007000020E044E064E186E692E00E94890426E06D
:1007100040E855E260E070E085EA92E00E94E6077A
:1007200002E011E060E0F80180810E94CD06C0E0A7
:10073000D1E060E088810E94CD0661E0F80180810F
:100740000E94940661E088810E9494066FE172E045
:1007500085EA92E00E9448090E94830181E00E949C
:100760004B0660E0809198020E94940660E08091C0
:100770000401DF91CF911F910F910C949406CF93B8
:10078000DF93EC0160E08E810E94CD0681E090E075
:100790000E94050661E08E810E94CD0681E090E016
:1007A0000E94050660E08E810E94CD0684E690E0FE
:1007B000DF91CF910C940506CF92DF92EF92FF92DA
:1007C0000F931F93CF93DF937C01C0E0D0E0C62E40
:1007D000D12C87010C0F1D1F61E0F80187810E9459
:1007E0009406B6010C2E02C0759567950A94E2F73F
:1007F0006170F80187810E94CD062196C430D10531
:1008000041F7C701DF91CF911F910F91FF90EF90BA
:10081000DF90CF900C94BF03CF92DF92EF92FF92C4
:100820000F931F93CF93DF937C01C0E0D0E0C62EDF
:10083000D12C87010C0F1D1F61E0F80187810E94F8
:100840009406B6010C2E02C0759567950A94E2F7DE
:100850006170F80187810E94CD062196C830D105CC
:1008600041F7C701DF91CF911F910F91FF90EF905A
:10087000DF90CF900C94BF031F93CF93DF93EC01D5
:10088000162F642F8C810E94CD068D818F3F19F029
:1008900060E00E94CD068F85612F84FF06C0CE01E7
:1008A000DF91CF911F910C940C0470E084E075955A
:1008B00067958A95E1F7CE010E94DC03612FCE0196
:1008C000DF91CF911F910C94DC0340E00C943C0429
:1008D00061E00E94650480ED97E00C9405064430C9
:1008E00008F043E0FC012389421710F04FEF420F5C
:1008F000FC01E40FF11D2489260F2068622F0C945F
:100900006504FC016089262F2460208B6C600C94A8
:100910006504CF93DF93EC01423018F08F85886037
:100920008F874B8B1C8A80E48D8B6E8B70E0605CB4
:100930007F4F6F8B222329F0413019F48F8584601B
:100940008F8780E593EC0E94050660E08C810E9411
:10095000CD0660E08E810E94CD068D818F3F19F01B
:1009600060E00E94CD066F8564FD1DC063E0CE018E
:100970000E94DC0384E991E10E94050663E0CE0158
:100980000E94DC0384E991E10E94050663E0CE0148
:100990000E94DC0386E990E00E94050662E0CE0139
:1009A0000E94DC0316C06062CE010E94650484E9E7
:1009B00091E10E9405066F856062CE010E94650488
:1009C00086E990E00E9405066F856062CE010E9474
:1009D00065046F856062CE010E94650484E0888BA7
:1009E000CE010E948104CE010E94680482E0898BBE
:1009F00066E0CE01DF91CF910C9465046F927F92F7
:100A00008F92AF92CF92EF920F931F93CF93DF937A
:100A1000CDB7DEB73C01162F842F5D854E853F850F
:100A20009889F301848325830683E782C086A186A3
:100A30008286538744873587968761E00E949406B3
:100A4000F30185818F3F19F061E00E94940661E017
:100A5000F30186810E949406112319F0F301178691
:100A600003C080E1F301878720E041E060E1C3013A
:100A7000DF91CF911F910F91EF90CF90AF908F901A
:100A80007F906F900C9489048F92AF92CF92EF92E7
:100A90000F93DC0113961C921E921297E1E4F2E090
:100AA000ED93FC931F921F921F921F928C2CAE2CE1
:100AB000C02EE22E042F2FEF462F61E00E94FE048D
:100AC0000F900F900F900F900F91EF90CF90AF90ED
:100AD0008F90089541E00E943C0481E090E00895E9
:100AE0001F920F920FB60F9211242F933F938F9363
:100AF0009F93AF93BF9380919D0290919E02A0918E
:100B00009F02B091A00230919C0223E0230F2D3769
:100B100020F40196A11DB11D05C026E8230F029601
:100B2000A11DB11D20939C0280939D0290939E0273
:100B3000A0939F02B093A0028091A1029091A20283
:100B4000A091A302B091A4020196A11DB11D8093B2
:100B5000A1029093A202A093A302B093A402BF911A
:100B6000AF919F918F913F912F910F900FBE0F905A
:100B70001F9018953FB7F8948091A1029091A2021E
:100B8000A091A302B091A40226B5A89B05C02F3F57
:100B900019F00196A11DB11D3FBF6627782F892F3F
:100BA0009A2F620F711D811D911D42E0660F771F04
:100BB000881F991F4A95D1F70895CF92DF92EF923F
:100BC000FF92CF93DF936B017C010E94BA05EB018A
:100BD000C114D104E104F10489F00E942E0B0E949B
:100BE000BA056C1B7D0B683E734090F381E0C81A18
:100BF000D108E108F108C851DC4FEACFDF91CF916D
:100C0000FF90EF90DF90CF9008958230910538F0FB
:100C1000880F991F880F991F05970197F1F708957D
:100C2000789484B5826084BD84B5816084BD85B5C7
:100C3000826085BD85B5816085BDEEE6F0E080818E
:100C400081608083E1E8F0E01082808182608083AF
:100C5000808181608083E0E8F0E080818160808332
:100C6000E1EBF0E0808184608083E0EBF0E0808164
:100C700081608083EAE7F0E0808184608083808106
:100C800082608083808181608083808180688083AE
:100C90001092C10008958093060108958E3008F0E7
:100CA0008E5087702091060190E4299F90011124B5
:100CB000822B80937C0080917A00806480937A00FC
:100CC00080917A0086FDFCCF809178002091790098
:100CD00090E0922B0895833081F028F4813099F0D0
:100CE0008230A1F008958730A9F08830B9F08430BF
:100CF000D1F4809180008F7D03C0809180008F7738
:100D000080938000089584B58F7702C084B58F7D6D
:100D100084BD08958091B0008F7703C08091B000AA
:100D20008F7D8093B0000895CF93DF9390E0FC0116
:100D3000E458FF4F2491FC01E057FF4F8491882332
:100D400049F190E0880F991FFC01E255FF4FA591F2
:100D5000B4918C559F4FFC01C591D4919FB76111FF
:100D600008C0F8948C91209582238C9388818223EB
:100D70000AC0623051F4F8948C91322F309583235D
:100D80008C938881822B888304C0F8948C91822B69
:100D90008C939FBFDF91CF9108950F931F93CF93B3
:100DA000DF931F92CDB7DEB7282F30E0F901E85965
:100DB000FF4F8491F901E458FF4F1491F901E05776
:100DC000FF4F04910023C9F0882321F069830E941A
:100DD0006B066981E02FF0E0EE0FFF1FEC55FF4F2F
:100DE000A591B4919FB7F8948C91611103C01095AF
:100DF000812301C0812B8C939FBF0F90DF91CF91F6
:100E00001F910F910895FC01818D228D90E0805CEF
:100E10009F4F821B91098F7399270895FC01918D33
:100E2000828D981731F0828DE80FF11D858D90E04D
:100E300008958FEF9FEF0895FC01918D828D981793
:100E400061F0828DDF01A80FB11D5D968C91928DAE
:100E50009F5F9F73928F90E008958FEF9FEF0895AB
:100E600080EA98E0892B49F080E090E0892B29F016
:100E70000E94A00881110C9400000895FC01848D4B
:100E8000DF01A80FB11DA35ABF4F2C91848D90E0B4
:100E900001968F739927848FA689B7892C93A0898F
:100EA000B1898C9180648C93938D848D981306C046
:100EB0000288F389E02D80818F7D80830895CF9310
:100EC000DF93EC01888D8823C9F0EA89FB89808152
:100ED00085FD05C0A889B9898C9186FD0FC00FB624
:100EE00007FCF5CF808185FFF2CFA889B9898C9165
:100EF00085FFEDCFCE010E943E07E7CFDF91CF9176
:100F00000895CF92DF92FF920F931F93CF93DF93B9
:100F10001F92CDB7DEB76C0181E0D60158968C9355
:100F200058975B969C915B975C968C915C97981315
:100F300007C05096ED91FC915197808185FD2EC0A0
:100F4000F601038D10E00F5F1F4F0F731127F02E76
:100F5000F601848DF81211C00FB607FCF9CFD60147
:100F60005096ED91FC915197808185FFF1CFC6019C
:100F700069830E943E076981EBCF838DE80FF11DE5
:100F8000E35AFF4F6083D6015B960C935B975296B2
:100F9000ED91FC915397808180620CC0D6015696EA
:100FA000ED91FC91579760835096ED91FC9151978C
:100FB00080818064808381E090E00F90DF91CF9109
:100FC0001F910F91FF90DF90CF900895BF92CF9225
:100FD000DF92EF92FF92CF93DF93EC016A017B01E6
:100FE000B22EE889F98982E08083411581EE5807A5
:100FF00061057105A1F060E079E08DE390E0A70163
:1010000096010E944E0D2150310941095109569512
:10101000479537952795211580E1380798F0E8899D
:10102000F989108260E874E88EE190E0A7019601EA
:101030000E944E0D2150310941095109569547959D
:1010400037952795EC85FD853083EE85FF852083D8
:10105000188EEC89FD89B082EA89FB8980818061E4
:101060008083EA89FB89808188608083EA89FB89A3
:10107000808180688083EA89FB8980818F7D80837D
:10108000DF91CF91FF90EF90DF90CF90BF900895C8
:101090001F920F920FB60F9211242F938F939F934D
:1010A000EF93FF93E091B502F091B6028081E09159
:1010B000BB02F091BC0282FD12C090818091BE0201
:1010C0008F5F8F732091BF02821751F0E091BE02B3
:1010D000F0E0EB55FD4F958F8093BE0201C08081FB
:1010E000FF91EF919F918F912F910F900FBE0F90D5
:1010F0001F9018951F920F920FB60F9211242F93E5
:101100003F934F935F936F937F938F939F93AF938F
:10111000BF93EF93FF9385EA92E00E943E07FF9111
:10112000EF91BF91AF919F918F917F916F915F915F
:101130004F913F912F910F900FBE0F901F901895D8
:1011400085EA92E00E94030721E0892B09F420E060
:10115000822F08951092A8021092A70288EE93E0C1
:10116000A0E0B0E08093A9029093AA02A093AB0202
:10117000B093AC0289E492E09093A6028093A5021A
:1011800085EC90E09093B2028093B10284EC90E001
:101190009093B4028093B30280EC90E09093B602F7
:1011A0008093B50281EC90E09093B8028093B702EF
:1011B00082EC90E09093BA028093B90286EC90E0C2
:1011C0009093BC028093BB021092BE021092BF02A9
:1011D0001092C0021092C102089508950E94100654
:1011E0000E94ED080E947C03C0E3D7E00E9409033F
:1011F0002097E1F30E943007F9CFCF92DF92EF9270
:10120000FF920F931F93CF93DF936C017A01EB0151
:10121000E60EF71E00E010E0CE15DF0561F06991E3
:10122000D601ED91FC910190F081E02DC601099568
:10123000080F191FF1CFC801DF91CF911F910F91B6
:10124000FF90EF90DF90CF9008956115710581F0C8
:10125000DB010D900020E9F7AD0141505109461B1B
:10126000570BDC01ED91FC910280F381E02D099494
:1012700080E090E008950C942509DC01ED91FC914B
:101280000190F081E02D099465E572E00C94250948
:101290000F931F93CF93DF93EC010E9425098C01DC
:1012A000CE010E944409800F911FDF91CF911F91C1
:1012B0000F9108958F929F92AF92BF92CF92DF923B
:1012C000EF92FF920F931F93CF93DF93CDB7DEB7CB
:1012D000A1970FB6F894DEBF0FBECDBF7C01C42E20
:1012E000E52FCB01D22E19A221E02D1510F02AE016
:1012F000D22E8E010F5D1F4F8D2C912CA12CB12C65
:101300006C2D7E2FA50194010E944E0D8C2DD29E36
:1013100080191124015011098A3014F4805D01C034
:10132000895CF8018083211531054105510521F0C3
:10133000C22EE32FCA01E4CFB801C7010E942509DC
:10134000A1960FB6F894DEBF0FBECDBFDF91CF914F
:101350001F910F91FF90EF90DF90CF90BF90AF90D3
:101360009F908F900895CF92DF92EF92FF920F930C
:101370001F93CF93DF93EC016A017B0121153105A7
:1013800079F4E881F9810190F081E02D642FDF91FB
:10139000CF911F910F91FF90EF90DF90CF90099424
:1013A0002A303105E9F477FF1AC06DE20E943D0949
:1013B0008C0144275527BA014C195D096E097F0934
:1013C0002AE0CE010E945A09800F911FDF91CF9130
:1013D0001F910F91FF90EF90DF90CF9008952AE03A
:1013E000B701A601CE01DF91CF911F910F91FF9020
:1013F000EF90DF90CF900C945A099A01AB016627C9
:1014000057FD6095762F0C94B3090F931F93CF93DC
:10141000DF93EC019A01AB01662757FD6095762FAB
:101420000E94B3098C01CE010E944409800F911FD4
:10143000DF91CF911F910F9108950F931F93CF9339
:10144000DF93EC010E94B3098C01CE010E94440994
:10145000800F911FDF91CF911F910F9108954F92AF
:101460005F926F927F928F929F92AF92BF92CF9234
:10147000DF92EF92FF920F931F93CF93DF93EC01D4
:101480006A017B01B22E9A01AB01C701B6010E942D
:101490004A0D882319F068E572E027C0260137015C
:1014A000E89477F82FEF3FEF4FE75FE7C301B20112
:1014B0000E944A0D81110DC02FEF3FEF4FE75FE70C
:1014C000C301B2010E94940B18161CF46CE572E083
:1014D0000CC02FEF3FEF4FE75FE4C701B6010E945A
:1014E000E30C1816ACF460E672E0CE01DF91CF9108
:1014F0001F910F91FF90EF90DF90CF90BF90AF9032
:101500009F908F907F906F905F904F900C942509E3
:101510002FEF3FEF4FE75FECC701B6010E94940B3E
:1015200087FDE1CF20E030E0A901C701B6010E94AC
:10153000940B87FF0AC06DE2CE010E943D098C0129
:10154000F7FAF094F7F8F09402C000E010E0A12C54
:1015500060E070E080E09FE3AB1441F020E030E019
:1015600040E251E40E94980BA394F6CF9B01AC019A
:10157000C701B6010E94300B6B017C010E94050C73
:101580002B013C010E94310C9B01AC01C701B6014B
:101590000E942F0B6B017C012AE0B301A201CE0156
:1015A0000E945A09080F191FBB2039F064E672E047
:1015B000CE010E942509080F191F7B2C772041F1CD
:1015C00020E030E040E251E4C701B6010E94E70CA0
:1015D0006B017C010E94000C4B01AA2497FCA09493
:1015E000BA2C2AE030E0B501A401CE010E94B30973
:1015F000080F191FC501B4010E94330C9B01AC01F7
:10160000C701B6010E942F0B6B017C017A94D6CFE3
:10161000C801DF91CF911F910F91FF90EF90DF9064
:10162000CF90BF90AF909F908F907F906F905F9082
:101630004F9008950C942F0A0F931F93CF93DF932D
:10164000EC010E942F0A8C01CE010E944409800FF8
:10165000911FDF91CF911F910F91089508955058D8
:10166000BB27AA270ED075C166D130F06BD120F010
:1016700031F49F3F11F41EF45BC10EF4E095E7FBDB
:1016800051C1E92F77D180F3BA1762077307840736
:10169000950718F071F49EF58FC10EF4E0950B2EAE
:1016A000BA2FA02D0B01B90190010C01CA01A001B4
:1016B0001124FF27591B99F0593F50F4503E68F10F
:1016C0001A16F040A22F232F342F4427585FF3CF50
:1016D000469537952795A795F0405395C9F77EF421
:1016E0001F16BA0B620B730B840BBAF09150A1F06A
:1016F000FF0FBB1F661F771F881FC2F70EC0BA0FF0
:10170000621F731F841F48F4879577956795B79577
:10171000F7959E3F08F0B3CF9395880F08F099276F
:10172000EE0F979587950895D9D008F481E0089534
:101730000CD00FC107D140F0FED030F021F45F3F54
:1017400019F0F0C0511139C1F3C014D198F39923A5
:10175000C9F35523B1F3951B550BBB27AA27621775
:101760007307840738F09F5F5F4F220F331F441FBA
:10177000AA1FA9F333D00E2E3AF0E0E830D09150F2
:101780005040E695001CCAF729D0FE2F27D0660FDF
:10179000771F881FBB1F261737074807AB07B0E81E
:1017A00009F0BB0B802DBF01FF2793585F4F2AF034
:1017B0009E3F510568F0B6C000C15F3FECF3983E14
:1017C000DCF3869577956795B795F7959F5FC9F791
:1017D000880F911D9695879597F90895E1E0660F1A
:1017E000771F881FBB1F621773078407BA0720F093
:1017F000621B730B840BBA0BEE1F88F7E0950895FC
:1018000004D06894B111D9C00895BCD088F09F5716
:1018100090F0B92F9927B751A0F0D1F0660F771F3C
:10182000881F991F1AF0BA95C9F712C0B13081F01C
:10183000C3D0B1E00895C0C0672F782F8827B85F64
:1018400039F0B93FCCF3869577956795B395D9F77D
:101850003EF490958095709561957F4F8F4F9F4F87
:101860000895E89409C097FB3EF490958095709593
:1018700061957F4F8F4F9F4F9923A9F0F92F96E9DC
:10188000BB279395F695879577956795B795F11151
:10189000F8CFFAF4BB0F11F460FF1BC06F5F7F4FEE
:1018A0008F4F9F4F16C0882311F096E911C0772300
:1018B00021F09EE8872F762F05C0662371F096E809
:1018C000862F70E060E02AF09A95660F771F881FD8
:1018D000DAF7880F9695879597F90895990F00087C
:1018E000550FAA0BE0E8FEEF16161706E807F907F2
:1018F000C0F012161306E407F50798F0621B730B8D
:10190000840B950B39F40A2661F0232B242B252B0D
:1019100021F408950A2609F4A140A6958FEF811DB0
:10192000811D089597F99F6780E870E060E0089551
:101930009FEF80EC089500240A94161617061806E7
:101940000906089500240A941216130614060506C3
:101950000895092E0394000C11F4882352F0BB0F54
:1019600040F4BF2B11F460FF04C06F5F7F4F8F4FB7
:101970009F4F089557FD9058440F551F59F05F3FF2
:1019800071F04795880F97FB991F61F09F3F79F0A1
:1019900087950895121613061406551FF2CF469523
:1019A000F1DF08C0161617061806991FF1CF8695A5
:1019B0007105610508940895E894BB276627772789
:1019C000CB0197F908958ADF08F48FEF08950BD0C3
:1019D000C0CFB1DF28F0B6DF18F0952309F0A2CF11
:1019E000A7CF1124EACFC6DFA0F3959FD1F3950FBF
:1019F00050E0551F629FF001729FBB27F00DB11D93
:101A0000639FAA27F00DB11DAA1F649F6627B00D22
:101A1000A11D661F829F2227B00DA11D621F739F0B
:101A2000B00DA11D621F839FA00D611D221F749F19
:101A30003327A00D611D231F849F600D211D822F60
:101A4000762F6A2F11249F5750408AF0E1F08823A7
:101A50004AF0EE0FFF1FBB1F661F771F881F9150B4
:101A60005040A9F79E3F510570F05CCFA6CF5F3F75
:101A7000ECF3983EDCF3869577956795B795F795E7
:101A8000E7959F5FC1F7FE2B880F911D969587956F
:101A900097F9089523DF880B990B0895A1E21A2E78
:101AA000AA1BBB1BFD010DC0AA1FBB1FEE1FFF1F02
:101AB000A217B307E407F50720F0A21BB30BE40B52
:101AC000F50B661F771F881F991F1A9469F7609599
:101AD0007095809590959B01AC01BD01CF01089553
:101AE000052E97FB1EF400940E94870D57FD07D02A
:101AF0000E944E0D07FC03D04EF40C94870D5095B8
:101B00004095309521953F4F4F4F5F4F08959095E9
:101B10008095709561957F4F8F4F9F4F0895EE0F81
:0E1B2000FF1F0590F491E02D0994F894FFCF7B
:101B2E000C000B0001000157656C6C3A2000272059
:101B3E002020200054616E6B3A20002720280025BB
:101B4E00290057656C6C404F6E3A200027200057D5
:101B5E00656C6C404F66663A2000270046696C6CD7
:101B6E006C696E670057616974696E670050756DB8
:101B7E0070696E6700556E6B6E6F776E0054696399
:101B8E006B733A2000207365636F6E64732E2000B2
:101B9E0043757272656E742053746174653A2000D9
:101BAE004C617374205374617465206368616E6751
:101BBE00652040200057656C6C2040206C6173746A
:101BCE002070756D70207475726E206F6E3A2000E5
:101BDE0057656C6C2040206C6173742070756D704D
:101BEE00207475726E206F66663A20004661756CC1
:101BFE00742040200053656E736F72204C6F770017
:101C0E0053656E736F722048696768004E65772062
:101C1E0053746174653A200052617069642063796F
:101C2E00636C696E67004C6F772054616E6B204C4D
:101C3E006576656C0042616420537461746500576B
:101C4E00656C6C2050756D7020436F6E74726F6C86
:101C5E006C65722056657220322E320A000000002A
:101C6E00006A05FD08000000008107FD0803071C3F
:101C7E00070E075F070D0A006E616E00696E660043
:061C8E006F7666002E00D7
:00000001FF
