:100000000C9462000C948A000C948A000C948A0070
:100010000C948A000C948A000C948A000C948A0038
:100020000C948A000C948A000C948A000C94670645
:100030000C948A000C948A000C948A000C948A0018
:100040000C94AD080C948A000C94AF050C948905AF
:100050000C948A000C948A000C948A000C948A00F8
:100060000C948A000C948A000000000024002700F1
:100070002A0000000000250028002B0000000000DE
:1000800023002600290004040404040404040202DA
:100090000202020203030303030301020408102007
:1000A0004080010204081020010204081020000012
:1000B0000008000201000003040700000000000027
:1000C0000000470B11241FBECFEFD8E0DEBFCDBF2D
:1000D00012E0A0E0B1E0E6E4FCE102C005900D9280
:1000E000A639B107D9F723E0A6E9B2E001C01D9215
:1000F000A837B207E1F710E0C2E6D0E004C02197CC
:10010000FE010E94160EC136D107C9F70E94F708FA
:100110000C94210E0C940000CF92DF92EF92FF928C
:100120000F931F93CF93DF936C017A018B01C0E093
:10013000D0E0CE15DF0581F0D8016D918D01D6019B
:10014000ED91FC910190F081E02DC6010995892B7C
:1001500011F02196EECF7E01C701DF91CF911F9163
:100160000F91FF90EF90DF90CF900895FC01538D99
:10017000448D252F30E0842F90E0821B930B541781
:1001800010F0CF96089501970895FC01918D828D0E
:10019000981761F0828DDF01A80FB11D5D968C91DB
:1001A000928D9F5F9F73928F90E008958FEF9FEFE6
:1001B0000895FC01918D828D981731F0828DE80FA2
:1001C000F11D858D90E008958FEF9FEF0895FC015C
:1001D000918D228D892F90E0805C9F4F821B910929
:1001E0008F73992708958AEB92E00E94E70021E03F
:1001F000892B09F420E0822F0895FC01848DDF0112
:10020000A80FB11DA35ABF4F2C91848D90E0019689
:100210008F739927848FA689B7892C93A089B18978
:100220008C91837080648C93938D848D981306C019
:100230000288F389E02D80818F7D80830895EF927D
:10024000FF920F931F93CF93DF93EC0181E0888F90
:100250009B8D8C8D981305C0E889F989808185FD77
:1002600026C0F62E0B8D10E00F5F1F4F0F73112766
:10027000E02E8C8DE8120CC00FB607FCFACFE8898F
:10028000F989808185FFF5CFCE010E94FD00F1CF75
:100290008B8DFE01E80FF11DE35AFF4FF0829FB7EF
:1002A000F8940B8FEA89FB89808180620AC09FB72E
:1002B000F894EE89FF896083E889F98980818370E9
:1002C000806480839FBF81E090E0DF91CF911F9198
:1002D0000F91FF90EF900895CF93DF93EC01888DFD
:1002E0008823C9F0EA89FB89808185FD05C0A8893A
:1002F000B9898C9186FD0FC00FB607FCF5CF8081C0
:1003000085FFF2CFA889B9898C9185FFEDCFCE0109
:100310000E94FD00E7CFDF91CF91089580E090E04B
:10032000892B29F00E94F30081110C94000008959C
:10033000089580E090E008952FB7F89460919E02B0
:1003400070919F028091A0029091A1022FBF089509
:10035000CF93DF93EC0160E08E810E947B0761E028
:100360008E810E947B0760E08E810E947B078BE874
:1003700091E00197F1F7DF91CF9108950E941C0E53
:10038000DC01ED91FC910190F081E02D0994611563
:10039000710579F0FB0101900020E9F73197AF0179
:1003A000461B570BDC01ED91FC910280F381E02D9F
:1003B000099480E090E008958F929F92AF92BF924F
:1003C000EF92FF920F931F93CF93DF93CDB7DEB7DA
:1003D000A1970FB6F894DEBF0FBECDBF7C01FA0126
:1003E000CB0119A2223008F42AE08E010F5D1F4FC5
:1003F000822E912CA12CB12CBF01A50194010E9449
:10040000D50DF901CA01015011096A3014F4605D7B
:1004100001C0695CD8016C93232B242B252B61F739
:10042000B801C7010E94C701A1960FB6F894DEBFBC
:100430000FBECDBFDF91CF911F910F91FF90EF9035
:10044000BF90AF909F908F9008957F928F929F92D0
:10045000AF92BF92CF92DF92EF92FF920F931F93D2
:10046000CF93DF938C016A017B01722E9A01AB015D
:10047000C701B6010E94D00D882319F067E271E030
:1004800027C046015701E894B7F82FEF3FEF4FE739
:100490005FE7C501B4010E94D00D81110DC02FEF9F
:1004A0003FEF4FE75FE7C501B4010E94FF0B18164D
:1004B0001CF46BE271E00CC02FEF3FEF4FE75FE4FD
:1004C000C701B6010E945E0D181694F46FE271E048
:1004D000C801DF91CF911F910F91FF90EF90DF90B6
:1004E000CF90BF90AF909F908F907F900C94C7015A
:1004F0002FEF3FEF4FE75FECC701B6010E94FF0B04
:1005000087FDE4CF20E030E0A901C701B6010E94D9
:10051000FF0B87FF0AC06DE2C8010E94C001EC0119
:10052000F7FAF094F7F8F09402C0C0E0D0E0B12CF4
:1005300060E070E080E09FE37B1441F020E030E079
:1005400040E251E40E94040CB394F6CFA701960157
:100550000E94930B6B017C010E947D0C4B015C019E
:100560002AE0AB01BC01C8010E94DC01C80FD91F01
:100570007720C1F1C501B4010E94AC0C9B01AC0114
:10058000C701B6010E94920B6B017C016EE2C801AB
:100590000E94C001C80FD91F20E030E040E251E4C2
:1005A000C701B6010E94630D4B015C010E947D0CE6
:1005B0006B01E12CF12C2AE0B701A601C8010E94D1
:1005C000DC01C80FD91FC701B6010E94AC0C9B010A
:1005D000AC01C501B4010E94920B6B017C017A94BD
:1005E0007110DACFCE01DF91CF911F910F91FF9063
:1005F000EF90DF90CF90BF90AF909F908F907F90C3
:1006000008950C94C701CF92DF92EF92FF9287E298
:1006100092E00E942A076BE371E08AEB92E00E946D
:1006200001030E949C01AB01BC012AE08AEB92E02D
:100630000E94DC0183E491E00E942A0763EA71E0F2
:100640008AEB92E00E9401038091B4029091B5027E
:100650008430910540F4880F991FFC01EF5FFE4F35
:100660006081718102C063E371E08AEB92E00E94D5
:1006700001038091B4029091B5028330910511F08D
:10068000892B21F56FEA71E08AEB92E00E94010369
:10069000C090A602D090A702E090A802F090A90214
:1006A0000E949C016C197D098E099F092CE330E0A2
:1006B00040E050E00E94D50DBA01A9012AE08AEB82
:1006C00092E00E94DC018EE491E002C087E292E0B9
:1006D0000E942A0762E571E08AEB92E00E94010322
:1006E0004091A2025091A3026091A4027091A502D0
:1006F00022E08AEB92E00E94250269E571E08AEB34
:1007000092E00E9401036091B2027091B3028AEB01
:1007100092E00E94F4068DE591E00E942A0760E6CF
:1007200071E08AEB92E00E9401036091AE02709149
:10073000AF028091B0029091B1020E943D0767E63E
:1007400071E08AEB92E00E94010360919602709141
:10075000970280919802909199020E943D0762E869
:1007600071E08AEB92E00E94010360919A0270911D
:100770009B0280919C0290919D020E943D078AEB12
:1007800092E0FF90EF90DF90CF900C946C01CF93AC
:10079000DF93EC010E9403036EE971E08AEB92E0C3
:1007A0000E940103C430D10540F4FE01EE0FFF1F8B
:1007B000EF5FFE4F8081918102C083E391E00E9450
:1007C0002A07CE01DF91CF91089581E00E94E306D0
:1007D00060E671E087E593E00E9401034091AE027C
:1007E0005091AF026091B0027091B10222E087E5B2
:1007F00093E00E9425026BEA71E087E593E00E9496
:10080000010382E00E94E30662E571E087E593E080
:100810000E9401034091A2025091A3026091A402A0
:100820007091A50222E087E593E00E94250269E528
:1008300071E087E593E00E9401036091B20270913C
:10084000B30287E593E00E94F4066DE571E087E569
:1008500093E00E9401030E949C0183E060FF18C0A6
:100860000E94E30661EB71E087E593E00E940103DB
:10087000409196025091970260919802709199026E
:1008800022E087E593E00E9425026BEB71E017C040
:100890000E94E3066EEB71E087E593E00E9401039E
:1008A00040919A0250919B0260919C0270919D022E
:1008B00022E087E593E00E94250269EC71E087E57C
:1008C00093E00C940103EC0160E08BE00E947B0755
:1008D00061E08CE00E947B0787E292E00E942A0799
:1008E0006BEC71E08AEB92E00E9401030E949C0194
:1008F000AB01BC012AE08AEB92E00E94DC0164EDCE
:1009000071E08AEB92E00E940103CE010E942A0767
:100910008FED91E00E942A070E9403030E94DB06EC
:1009200080E00E94E306BE0187E593E00E94010398
:100930000E94E503FFCF0F931F938BE00E945207A5
:100940000197D9F58091AE029091AF02A091B002CB
:10095000B091B10280939A0290939B02A0939C0263
:10096000B0939D020E949C016093AA027093AB0217
:100970008093AC029093AD020091A6021091A70261
:100980002091A8023091A902011511052105310518
:1009900071F0DC01CB01801B910BA20BB30BCC9748
:1009A000A105B10520F480E092E00E94630460E0BC
:1009B0008BE01F910F910C947B071F910F9108956D
:1009C0000F931F938BE00E945207892BD9F58091DA
:1009D000AE029091AF02A091B002B091B1028093AB
:1009E000960290939702A0939802B09399020E9466
:1009F0009C016093A6027093A7028093A802909333
:100A0000A9020091AA021091AB022091AC02309190
:100A1000AD02011511052105310571F0DC01CB0195
:100A2000801B910BA20BB30BCC97A105B10520F451
:100A300080E092E00E94630461E08BE01F910F91DF
:100A40000C947B071F910F910895CF92DF92EF9244
:100A5000FF9292EF980F8E3008F0892FA82FA77081
:100A6000E0EAF0E060E070E0CB012091000140E4BA
:100A7000249F900111242A2B20937C0020917A003E
:100A8000206420937A0020917A0026FDFCCF4091CB
:100A900078002091790050E0522B6A01550FEE0842
:100AA000FF086C0D7D1D8E1D9F1D3197F1F620EA0C
:100AB00030E040E050E00E94F70D243A31051CF48C
:100AC0008EE092E006C0293E63E0360724F089E11B
:100AD00092E00E946304263D83E0380714F025ED80
:100AE00033E0B901625C710977FF02C060E070E039
:100AF000072E000C880B990B0E94AE0C20E030EC06
:100B000044E454E40E94040CFF90EF90DF90CF90F7
:100B100008951F920F920FB60F9211242F933F93B7
:100B20004F935F936F937F938F939F93AF93BF93F5
:100B3000EF93FF938AEB92E00E94FD00FF91EF910B
:100B4000BF91AF919F918F917F916F915F914F91E5
:100B50003F912F910F900FBE0F901F9018951F92ED
:100B60000F920FB60F9211242F938F939F93EF93B1
:100B7000FF93E091CA02F091CB028081E091D00214
:100B8000F091D10282FD12C090818091D3028F5FDB
:100B90008F732091D402821751F0E091D302F0E0DC
:100BA000E654FD4F958F8093D30201C08081FF9161
:100BB000EF919F918F912F910F900FBE0F901F90EB
:100BC0001895CF92DF92EF92FF920F931F93CF93DE
:100BD000DF936C017C0187E0E80EF11CC0E0D0E0FF
:100BE000062F10E0B8010C2E02C0759567950A9487
:100BF000E2F76170F70181917F010E947B072196E6
:100C0000C430D10579F7C601DF91CF911F910F91C3
:100C1000FF90EF90DF90CF900C94A801CF92DF92DD
:100C2000EF92FF920F931F93CF93DF93EC01F62E79
:100C3000642F8C810E947B078D818F3F19F060E0CB
:100C40000E947B078F850F2D10E084FF25C06E0169
:100C500087E0C80ED11CE12CF12CB8010E2C02C08B
:100C6000759567950A94E2F76170F60181916F01BD
:100C70000E947B07FFEFEF1AFF0A88E0E816F104F5
:100C800061F7CE01DF91CF911F910F91FF90EF900F
:100C9000DF90CF900C94A801B80184E0759567951A
:100CA0008A95E1F7CE010E94E1056F2DCE01DF911B
:100CB000CF911F910F91FF90EF90DF90CF900C9408
:100CC000E10541E00E940E0681E090E008951F9248
:100CD0000F920FB60F9211242F933F934F935F9370
:100CE0006F937F938F939F93AF93BF93EF93FF93F4
:100CF00080919E0290919F02A091A002B091A102CA
:100D00000196A11DB11D80939E0290939F02A09316
:100D1000A002B093A10280919E0290919F02A091A7
:100D2000A002B091A10280FF02C061E001C060E0BA
:100D30008DE00E947B07FF91EF91BF91AF919F9152
:100D40008F917F916F915F914F913F912F910F9074
:100D50000FBE0F901F901895833081F028F48130DA
:100D600099F08230A1F008958730A9F08830B9F069
:100D70008430D1F4809180008F7D03C08091800009
:100D80008F7780938000089584B58F7702C084B5F3
:100D90008F7D84BD08958091B0008F7703C08091CE
:100DA000B0008F7D8093B000089540E0682F87E504
:100DB00093E00C940E0681E00E94D5068BE39FE140
:100DC0000197F1F70895843008F083E090916A0369
:100DD000891710F08FEF890FE82FF0E0E95AFC4FE8
:100DE000848980680C94D506CF92DF92EF92FF92AF
:100DF0000F931F93CF93DF936B01770FEE08FF08DC
:100E0000F7FE1BC0EC016DE20E94C0018C0144277B
:100E10005527BA014C195D096E097F092AE0CE01F8
:100E20000E94DC01800F911FDF91CF911F910F91E4
:100E3000FF90EF90DF90CF9008952AE0B701A601D0
:100E4000DF91CF911F910F91FF90EF90DF90CF90A6
:100E50000C94DC01CF93DF93BC018AEB92E00E94FB
:100E6000C701EC0165E272E08AEB92E00E94C701E3
:100E70008C0F9D1FDF91CF910895CF93DF93AB012E
:100E8000BC0122E08AEB92E00E942502EC0165E2BF
:100E900072E08AEB92E00E94C7018C0F9D1FDF91E8
:100EA000CF910895CF93DF93282F30E0F901E255D9
:100EB000FF4F8491F901E656FF4FD491F901EA57AB
:100EC000FF4FC491CC2391F081110E94AC06EC2F0E
:100ED000F0E0EE0FFF1FE458FF4FA591B491EC91A5
:100EE000ED2381E090E021F480E002C080E090E01A
:100EF000DF91CF9108951F93CF93DF93282F30E098
:100F0000F901E255FF4F8491F901E656FF4FD49164
:100F1000F901EA57FF4FC491CC23C1F0162F81117C
:100F20000E94AC06EC2FF0E0EE0FFF1FEE58FF4FD3
:100F3000A591B4919FB7F894111104C08C91D095EC
:100F4000D82302C0EC91DE2BDC939FBFDF91CF91C1
:100F50001F910895CF93DF9390E0FC01E656FF4F79
:100F60002491FC01EA57FF4F8491882361F190E0BE
:100F7000880F991FFC01E859FF4FC591D491FC01DE
:100F8000EE58FF4FA591B491611109C09FB7F89435
:100F90008881209582238883EC912E230BC06230B8
:100FA00061F49FB7F8948881322F3095832388832A
:100FB000EC912E2B2C939FBF06C08FB7F894E8813D
:100FC0002E2B28838FBFDF91CF910895CF93DF938E
:100FD000623028F090916603986090936603609366
:100FE0006A0310926B0390E490936C0380936D03FB
:100FF00090E0805C9F4F80936E0361E080915B0383
:101000000E94AA0780915C038F3F19F061E00E9463
:10101000AA0761E080915D030E94AA07C7E5D3E0BB
:101020009E01275533408091660384FD03C084E010
:1010300090E002C088E090E02196281739072CF450
:1010400061E08E810E94AA07EBCF8BE39DE00197C0
:10105000F1F760E080915B030E947B0760E0809184
:101060005D030E947B0780915C038F3F19F060E075
:101070000E947B078091660384FD20C063E087E5C2
:1010800093E00E94E105CBE4D6E4CE010197F1F7AD
:1010900063E087E593E00E94E1052197F1F763E0C3
:1010A00087E593E00E94E10583E592E00197F1F77F
:1010B00062E087E593E00E94E10515C080620E942E
:1010C000D5068BE496E40197F1F780916603806280
:1010D0000E94D50683E592E00197F1F780916603BF
:1010E00080620E94D5068091660380620E94D506C8
:1010F00084E0809367038CE00E94D5060E94DB06A3
:1011000082E08093680386E0DF91CF910C94D5064E
:101110003FB7F8948091740390917503A091760382
:10112000B091770326B5A89B05C02F3F19F0019613
:10113000A11DB11D3FBFBA2FA92F982F8827820F5D
:10114000911DA11DB11DBC01CD0142E0660F771FAD
:10115000881F991F4A95D1F708951F920F920FB6D5
:101160000F9211242F933F938F939F93AF93BF932D
:101170008091700390917103A0917203B0917303F9
:1011800030916F0323E0230F2D3720F40196A11D2A
:10119000B11D05C026E8230F0296A11DB11D2093A5
:1011A0006F038093700390937103A0937203B093C5
:1011B00073038091740390917503A0917603B091AD
:1011C00077030196A11DB11D80937403909375035D
:1011D000A0937603B0937703BF91AF919F918F91C6
:1011E0003F912F910F900FBE0F901F9018957894FC
:1011F00084B5826084BD84B5816084BD85B582601C
:1012000085BD85B5816085BD80916E0081608093CC
:101210006E00109281008091810082608093810035
:101220008091810081608093810080918000816045
:10123000809380008091B10084608093B1008091A0
:10124000B00081608093B00080917A0084608093C8
:101250007A0080917A00826080937A0080917A008F
:10126000816080937A0080917A00806880937A0010
:101270001092C100F8941092800010928100109298
:1012800085001092840088E09DE39093890080930C
:101290008800809181008860809381008091810026
:1012A00085608093810080916F00826080936F00E1
:1012B0007894E091CA02F091CB0282E08083E091C1
:1012C000C602F091C7021082E091C802F091C902F3
:1012D0008FEC80831092D202E091CE02F091CF0287
:1012E00086E08083E091CC02F091CD028081806124
:1012F0008083E091CC02F091CD0280818860808370
:10130000E091CC02F091CD02808180688083E091F1
:10131000CC02F091CD0280818F7D808360E08BE0F4
:101320000E947B0760E08CE00E947B0761E08BE01D
:101330000E94AA0761E08CE00E94AA0761E08DE0AC
:101340000E94AA0765E272E08AEB92E00E94C70160
:101350008FED91E00E942A0781E08093000160E018
:1013600080E00E94AA0760E081E00E94AA0764E092
:1013700084E10E94E6070E94DB0680E00E94E3060B
:1013800068E272E087E593E00E94010381E00E9439
:10139000E3066DE372E087E593E00E9401030E949B
:1013A00088084B015C0140EAC42E4FE0D42EE12CAA
:1013B000F12C0E948808DC01CB0188199909AA093F
:1013C000BB09883E9340A105B10598F321E0C21AFC
:1013D000D108E108F10888EE880E83E0981EA11C70
:1013E000B11CC114D104E104F10419F73CE3C32E8C
:1013F000D12CE12CF12C0E949C018090B60290909F
:10140000B702A090B802B090B902681579058A05B4
:101410009B0589F30E949C016093B6027093B7020A
:101420008093B8029093B90281E090E00E94250574
:1014300020E030E040E752E40E94630D2BED3AE8F3
:101440004DED5EE30E94040C4B015C016093AE0223
:101450007093AF028093B0029093B10280E090E06D
:101460000E94250520E030E040EA50E40E94630D30
:101470002BED3AE84DED5EE30E94040C6093A2026E
:101480007093A3028093A4029093A50220E030E021
:1014900048EC52E40E94630D2CE53FE84AEE50E42C
:1014A0000E94040C0E94760CEB017093B3026093CF
:1014B000B2028091B4029091B5028130910539F168
:1014C0001CF4892B41F081C082309105D9F103973A
:1014D00009F441C07AC0C436D1051CF082E090E026
:1014E0000CC020E030E040EA51E4C501B4010E94A4
:1014F000FF0B87FF09C081E090E00E94C703909333
:10150000B5028093B40264C00E94E00461C00E94EE
:101510009B048090AA029090AB02A090AC02B09085
:10152000AD020E949C01DC01CB0188199909AA092E
:10153000BB0981319E40A105B10508F449C080E096
:1015400090E0DBCFCA35D1051CF483E090E0D5CF25
:101550000E949B043DC020E030E040EA51E4C50118
:10156000B4010E94FF0B87FF03C08BE492E005C02B
:10157000C035D10524F48AE592E00E946304C436A4
:10158000D1054CF082E090E00E94C7039093B50231
:101590008093B40202C00E94E0048090A602909062
:1015A000A702A090A802B090A9020E949C01DC01B1
:1015B000CB0188199909AA09BB0981369445A1056F
:1015C000B10530F089E692E0D8CF87E792E0D5CF39
:1015D0000E949C01A70196010E94D50D672B682BE4
:1015E000692B11F40E9403030E94DB0680E00E9435
:1015F000E30663EA71E087E593E00E9401038091CE
:10160000B4029091B5028430910540F4880F991F7F
:10161000FC01EF5FFE4F6081718102C063E371E006
:1016200087E593E00E9401038091B4029091B50296
:101630008330910511F0892B29F56FEA71E087E578
:1016400093E00E9401038090A6029090A702A090D0
:10165000A802B090A9020E949C01681979098A0920
:101660009B09A70196010E94D50DBA01A9012AE0A4
:1016700087E593E00E94DC016EE471E087E593E08A
:101680000E9401030E94E5030E948E01B4CEEAEBA2
:10169000F2E01382128288EE93E0A0E0B0E084834F
:1016A0009583A683B7838DE091E09183808385EC59
:1016B00090E09587848784EC90E09787868780EC1C
:1016C00090E0918B808B81EC90E0938B828B82EC0D
:1016D00090E0958B848B86EC90E0978B868B118EB7
:1016E000128E138E148EE7E5F3E0138212828FE1DF
:1016F00091E0918380838AE084838FEF858389E002
:10170000868386E0878385E0808784E0818783E025
:1017100082871386148615861686178661E080E117
:101720000C94E6075058BB27AA270E94AA0B0C94DA
:10173000240D0E94160D38F00E941D0D20F039F482
:101740009F3F19F426F40C94130D0EF4E095E7FB7B
:101750000C940D0DE92F0E94350D58F3BA1762074E
:1017600073078407950720F079F4A6F50C94570DBC
:101770000EF4E0950B2EBA2FA02D0B01B9019001AC
:101780000C01CA01A0011124FF27591B99F0593FF0
:1017900050F4503E68F11A16F040A22F232F342F38
:1017A0004427585FF3CF469537952795A795F04086
:1017B0005395C9F77EF41F16BA0B620B730B840B9B
:1017C000BAF09150A1F0FF0FBB1F661F771F881F53
:1017D000C2F70EC0BA0F621F731F841F48F48795AB
:1017E00077956795B795F7959E3F08F0B0CF93959D
:1017F000880F08F09927EE0F9795879508950E9416
:10180000E90C08F481E008950E94180C0C94240D52
:101810000E941D0D58F00E94160D40F029F45F3F04
:1018200029F00C940D0D51110C94580D0C94130DBE
:101830000E94350D68F39923B1F3552391F3951B5D
:10184000550BBB27AA2762177307840738F09F5FE1
:101850005F4F220F331F441FAA1FA9F335D00E2E4E
:101860003AF0E0E832D091505040E695001CCAF7BB
:101870002BD0FE2F29D0660F771F881FBB1F26177E
:1018800037074807AB07B0E809F0BB0B802DBF0155
:10189000FF2793585F4F3AF09E3F510578F00C9424
:1018A0000D0D0C94580D5F3FE4F3983ED4F38695EC
:1018B00077956795B795F7959F5FC9F7880F911D45
:1018C0009695879597F90895E1E0660F771F881F31
:1018D000BB1F621773078407BA0720F0621B730BE4
:1018E000840BBA0BEE1F88F7E09508950E947D0CDB
:1018F0006894B1110C94580D08950E943D0D88F024
:101900009F5798F0B92F9927B751B0F0E1F0660FC3
:10191000771F881F991F1AF0BA95C9F714C0B13004
:1019200091F00E94570DB1E008950C94570D672F68
:10193000782F8827B85F39F0B93FCCF38695779533
:101940006795B395D9F73EF490958095709561951C
:101950007F4F8F4F9F4F0895E89409C097FB3EF447
:1019600090958095709561957F4F8F4F9F4F9923EC
:10197000A9F0F92F96E9BB279395F695879577956A
:101980006795B795F111F8CFFAF4BB0F11F460FF2A
:101990001BC06F5F7F4F8F4F9F4F16C0882311F082
:1019A00096E911C0772321F09EE8872F762F05C096
:1019B000662371F096E8862F70E060E02AF09A9531
:1019C000660F771F881FDAF7880F9695879597F926
:1019D0000895990F0008550FAA0BE0E8FEEF1616C0
:1019E0001706E807F907C0F012161306E407F50713
:1019F00098F0621B730B840B950B39F40A2661F087
:101A0000232B242B252B21F408950A2609F4A14029
:101A1000A6958FEF811D811D089597F99F6780E836
:101A200070E060E008959FEF80EC089500240A9430
:101A30001616170618060906089500240A941216A9
:101A40001306140605060895092E0394000C11F4DC
:101A5000882352F0BB0F40F4BF2B11F460FF04C089
:101A60006F5F7F4F8F4F9F4F089557FD9058440FE2
:101A7000551F59F05F3F71F04795880F97FB991FED
:101A800061F09F3F79F087950895121613061406AA
:101A9000551FF2CF4695F1DF08C016161706180637
:101AA000991FF1CF86957105610508940895E89412
:101AB000BB2766277727CB0197F908950E94E90C89
:101AC00008F48FEF08950E94760D0C94240D0E9467
:101AD000160D38F00E941D0D20F0952311F00C9486
:101AE0000D0D0C94130D11240C94580D0E94350DFE
:101AF00070F3959FC1F3950F50E0551F629FF00161
:101B0000729FBB27F00DB11D639FAA27F00DB11D79
:101B1000AA1F649F6627B00DA11D661F829F222702
:101B2000B00DA11D621F739FB00DA11D621F839F89
:101B3000A00D611D221F749F3327A00D611D231F5F
:101B4000849F600D211D822F762F6A2F11249F57AD
:101B500050409AF0F1F088234AF0EE0FFF1FBB1FB0
:101B6000661F771F881F91505040A9F79E3F51056F
:101B700080F00C940D0D0C94580D5F3FE4F3983EEB
:101B8000D4F3869577956795B795F795E7959F5F19
:101B9000C1F7FE2B880F911D9695879597F90895AB
:101BA0000E94E90C880B990B0895A1E21A2EAA1B3A
:101BB000BB1BFD010DC0AA1FBB1FEE1FFF1FA217FD
:101BC000B307E407F50720F0A21BB30BE40BF50BFA
:101BD000661F771F881F991F1A9469F76095709583
:101BE000809590959B01AC01BD01CF010895052E14
:101BF00097FB1EF400940E940E0E57FD07D00E9422
:101C0000D50D07FC03D04EF40C940E0E5095409564
:101C1000309521953F4F4F4F5F4F08959095809598
:101C2000709561957F4F8F4F9F4F0895EE0FFF1F67
:101C30000590F491E02D099481E090E0F8940C94E3
:061C4000210EF894FFCF15
:101C460001810286028B029002000000001F018CB7
:101C560000B6006C01E700C500D900000000006175
:101C6600068C00990198016E616E00696E66006FC0
:101C7600766600556E6B6E6F776E005469636B7394
:101C86003A2000207365636F6E64732E20006D69C1
:101C96006E0054616E6B3A2000272028002529002B
:101CA60057656C6C3A200057656C6C2040206C615F
:101CB60073742070756D70207475726E206F6E3A35
:101CC600200057656C6C2040206C61737420707521
:101CD6006D70207475726E206F66663A20000A4E2B
:101CE60065772053746174653A20002720202020F0
:101CF6000057656C6C404F6E3A20002720005765F0
:101D06006C6C404F66663A200027004661756C741D
:101D160020402000207365636F6E64733A20000ACA
:101D26000A57656C6C2050756D7020436F6E747227
:101D36006F6C6C65722056657220322E33330A0042
:101D46005261706964204379636C696E67005365FC
:101D56006E736F72204C6F770053656E736F7220CF
:101D660048696768000D0A0057656C6C2050756DF0
:101D76007020436F6E74726F6C6C6572005665727C
:101D860073696F6E3A20322E3333004C6F772057CB
:101D9600656C6C204C6576656C004C6F77205461E1
:101DA6006E6B204C6576656C0050756D70204C6FBF
:101DB6006E672052756E00426164205374617465CB
:101DC6000046696C6C0046696C6C2057616974004A
:061DD60050756D70000065
:00000001FF
