:100000000C945D000C9485000C9485000C94850084
:100010000C9485000C9485000C9485000C9485004C
:100020000C9485000C9485000C9485000C94DC07DE
:100030000C9485000C9485000C9485000C9485002C
:100040000C943A070C9485000C94AA070C9484072E
:100050000C9485000C9485000C9485000C9485000C
:100060000C9485000C9485000000000024002700FB
:100070002A0000000000250028002B0004040404CE
:100080000404040402020202020203030303030342
:10009000010204081020408001020408102001021F
:1000A00004081020000000080002010000030407FB
:1000B0000000000000000000210811241FBECFEF47
:1000C000D8E0DEBFCDBF12E0A0E0B1E0E0E3F9E1AF
:1000D00002C005900D92A436B107D9F723E0A4E63B
:1000E000B2E001C01D92AE33B207E1F710E0CDE5FA
:1000F000D0E004C02197FE010E948B0CCC35D107C3
:10010000C9F70E946C080C94960C0C94000090E0C7
:10011000FC01EC55FF4F2491FC01E057FF4F349157
:10012000FC01E458FF4FE491EE2309F43CC0222384
:1001300039F1233091F038F42130A9F0223001F563
:1001400084B58F7D12C0273091F02830A1F0243083
:10015000B9F4809180008F7D03C0809180008F77FB
:10016000809380000DC084B58F7784BD09C08091D5
:10017000B0008F7703C08091B0008F7D8093B00076
:10018000F0E0EE0FFF1FEE58FF4FA591B4919FB71F
:10019000F894611104C08C913095382302C0EC9121
:1001A0003E2B3C939FBF0895CF93DF9390E0FC01DB
:1001B000E057FF4F2491FC01E458FF4F84918823BE
:1001C00061F190E0880F991FFC01E859FF4FC5913C
:1001D000D491FC01EE58FF4FA591B491611109C073
:1001E0009FB7F8948881209582238883EC912E23F1
:1001F0000BC0623061F49FB7F8948881322F30953C
:1002000083238883EC912E2B2C939FBF06C08FB73E
:10021000F894E8812E2B28838FBFDF91CF9108952A
:100220003FB7F8948091850290918602A091870251
:10023000B091880226B5A89B05C02F3F19F0019602
:10024000A11DB11D3FBFBA2FA92F982F8827820F5C
:10025000911DA11DB11DBC01CD0142E0660F771FAC
:10026000881F991F4A95D1F70895DC01ED91FC9103
:100270000190F081E02D0994CF92DF92EF92FF92EE
:100280000F931F93CF93DF936C017A018B01C0E032
:10029000D0E0CE15DF0581F0D8016D918D01D6013A
:1002A000ED91FC910190F081E02DC6010995892B1B
:1002B00011F02196EECF7E01C701DF91CF911F9102
:1002C0000F91FF90EF90DF90CF900895FC01538D38
:1002D000448D252F30E0842F90E0821B930B541720
:1002E00010F0CF96089501970895FC01918D828DAD
:1002F000981761F0828DDF01A80FB11D5D968C917A
:10030000928D9F5F9F73928F90E008958FEF9FEF84
:100310000895FC01918D828D981731F0828DE80F40
:10032000F11D858D90E008958FEF9FEF0895FC01FA
:10033000918D228D892F90E0805C9F4F821B9109C7
:100340008F739927089589E892E00E94970121E030
:10035000892B09F420E0822F0895FC01848DDF01B0
:10036000A80FB11DA35ABF4F2C91848D90E0019628
:100370008F739927848FA689B7892C93A089B18917
:100380008C91837080648C93938D848D981306C0B8
:100390000288F389E02D80818F7D80830895EF921C
:1003A000FF920F931F93CF93DF93EC0181E0888F2F
:1003B0009B8D8C8D981305C0E889F989808185FD16
:1003C00026C0F62E0B8D10E00F5F1F4F0F73112705
:1003D000E02E8C8DE8120CC00FB607FCFACFE8892E
:1003E000F989808185FFF5CFCE010E94AD01F1CF63
:1003F0008B8DFE01E80FF11DE35AFF4FF0829FB78E
:10040000F8940B8FEA89FB89808180620AC09FB7CC
:10041000F894EE89FF896083E889F9898081837087
:10042000806480839FBF81E090E0DF91CF911F9136
:100430000F91FF90EF900895CF93DF93EC01888D9B
:100440008823C9F0EA89FB89808185FD05C0A889D8
:10045000B9898C9186FD0FC00FB607FCF5CF80815E
:1004600085FFF2CFA889B9898C9185FFEDCFCE01A8
:100470000E94AD01E7CFDF91CF91089580E090E039
:10048000892B29F00E94A30181110C94000008958A
:10049000CF93DF93EC0160E08E810E94870061E0E2
:1004A0008E810E94870060E08E810E9487008BE829
:1004B00091E00197F1F7DF91CF910895CF92DF920C
:1004C000EF92FF920F931F93CF93DF936C017C0108
:1004D00087E0E80EF11CC0E0D0E0062F10E0B80184
:1004E0000C2E02C0759567950A94E2F76170F701CA
:1004F00081917F010E9487002196C430D10579F750
:10050000C601DF91CF911F910F91FF90EF90DF9087
:10051000CF900C944802CF92DF92EF92FF920F930C
:100520001F93CF93DF93EC01F62E642F8C810E94F2
:1005300087008D818F3F19F060E00E9487008F85D2
:100540000F2D10E084FF25C06E0187E0C80ED11C7E
:10055000E12CF12CB8010E2C02C0759567950A9418
:10056000E2F76170F60181916F010E948700FFEF51
:10057000EF1AFF0A88E0E816F10461F7CE01DF9177
:10058000CF911F910F91FF90EF90DF90CF900C943F
:100590004802B80184E0759567958A95E1F7CE0128
:1005A0000E945E026F2DCE01DF91CF911F910F91BE
:1005B000FF90EF90DF90CF900C945E0240E0682FA8
:1005C00086E293E00C948B0281E00E94DE028BE3D2
:1005D0009FE10197F1F70895CF93DF93623028F000
:1005E000909135039860909335036093390310928E
:1005F0003A0390E490933B0380933C0390E0805C4B
:100600009F4F80933D0361E080912A030E94D400B4
:1006100080912B038F3F19F061E00E94D40061E0CC
:1006200080912C030E94D400C6E2D3E09E012652A2
:1006300033408091350384FD03C084E090E002C024
:1006400088E090E02196281739072CF461E08E812C
:100650000E94D400EBCF8BE39DE00197F1F760E0BF
:1006600080912A030E94870060E080912C030E9401
:10067000870080912B038F3F19F060E00E94870074
:100680008091350384FD20C063E086E293E00E9400
:100690005E02CBE4D6E4CE010197F1F763E086E297
:1006A00093E00E945E022197F1F763E086E293E017
:1006B0000E945E0283E592E00197F1F762E086E234
:1006C00093E00E945E0215C080620E94DE028BE40D
:1006D00096E40197F1F78091350380620E94DE0273
:1006E00083E592E00197F1F78091350380620E94E3
:1006F000DE028091350380620E94DE0284E08093F6
:1007000036038CE00E94DE020E94E40282E08093C5
:10071000370386E0DF91CF910C94DE02843008F03D
:1007200083E090913903891710F08FEF890FE82F3C
:10073000F0E0EA5DFC4F848980680C94DE0241E0C1
:100740000E948B0281E090E00895089580E090E09F
:1007500008950E94910C6115710579F0FB010190DB
:100760000020E9F73197AF01461B570BDC01ED91F3
:10077000FC910280F381E02D099480E090E00895DF
:10078000CF93DF93BC0189E892E00E94AB03EC01B8
:100790006FE171E089E892E00E94AB038C0F9D1F2E
:1007A000DF91CF9108958F929F92AF92BF92EF9277
:1007B000FF920F931F93CF93DF93CDB7DEB7A1972F
:1007C0000FB6F894DEBF0FBECDBF7C01FA01CB019E
:1007D00019A2223008F42AE08E010F5D1F4F822EED
:1007E000912CA12CB12CBF01A50194010E944A0CAF
:1007F000F901CA01015011096A3014F4605D01C0A9
:10080000695CD8016C93232B242B252B61F7B8014D
:10081000C7010E94AB03A1960FB6F894DEBF0FBECE
:10082000CDBFDF91CF911F910F91FF90EF90BF90BF
:10083000AF909F908F900895CF92DF92EF92FF92AA
:100840000F931F93CF93DF9377FF1DC06A017B0146
:10085000EC016DE20E9435018C0144275527BA0155
:100860004C195D096E097F092AE0CE010E94D3036D
:10087000800F911FDF91CF911F910F91FF90EF900B
:10088000DF90CF9008952AE0DF91CF911F910F91D3
:10089000FF90EF90DF90CF900C94D3037F928F92D4
:1008A0009F92AF92BF92CF92DF92EF92FF920F93FF
:1008B0001F93CF93DF938C016A017B01722E9A0103
:1008C000AB01C701B6010E94450C882319F062E212
:1008D00071E027C046015701E894B7F82FEF3FEFCA
:1008E0004FE75FE7C501B4010E94450C81110DC0BF
:1008F0002FEF3FEF4FE75FE7C501B4010E94740A95
:1009000018161CF466E271E00CC02FEF3FEF4FE7C2
:100910005FE4C701B6010E94D30B181694F46AE293
:1009200071E0C801DF91CF911F910F91FF90EF907F
:10093000DF90CF90BF90AF909F908F907F900C945E
:10094000AB032FEF3FEF4FE75FECC701B6010E940B
:10095000740A87FDE4CF20E030E0A901C701B601A9
:100960000E94740A87FF0AC06DE2C8010E94350127
:10097000EC01F7FAF094F7F8F09402C0C0E0D0E090
:10098000B12C60E070E080E09FE37B1441F020E058
:1009900030E040E251E40E94790AB394F6CFA70117
:1009A00096010E94080A6B017C010E94F20A4B0129
:1009B0005C012AE0AB01BC01C8010E94D303C80F4F
:1009C000D91F7720C1F1C501B4010E94210B9B0101
:1009D000AC01C701B6010E94070A6B017C016EE2FF
:1009E000C8010E943501C80FD91F20E030E040E265
:1009F00051E4C701B6010E94D80B4B015C010E9473
:100A0000F20A6B01E12CF12C2AE0B701A601C80122
:100A10000E94D303C80FD91FC701B6010E94210B42
:100A20009B01AC01C501B4010E94070A6B017C0166
:100A30007A947110DACFCE01DF91CF911F910F918F
:100A4000FF90EF90DF90CF90BF90AF909F908F90EE
:100A50007F900895CF93DF93AB01BC0122E089E83A
:100A600092E00E944E04EC016FE171E089E892E0AF
:100A70000E94AB038C0F9D1FDF91CF9108950C94C2
:100A8000AB0381E00E948E036EE271E086E293E0A8
:100A90000E943F05409178025091790260917A025C
:100AA00070917B0222E086E293E00E944E0465E3AF
:100AB00071E086E293E00E943F0582E00E948E038F
:100AC0006BE371E086E293E00E943F0540916C0287
:100AD00050916D0260916E0270916F0222E086E289
:100AE00093E00E944E0462E471E086E293E00E948B
:100AF0003F0540917C0250917D02052E000C660B53
:100B0000770B86E293E00E941C0466E471E086E2C3
:100B100093E00E943F058091680290916902A09144
:100B20006A02B0916B0280FF19C083E00E948E03BD
:100B300069E471E086E293E00E943F054091700213
:100B400050917102609172027091730222E086E20C
:100B500093E00E944E0463E571E018C083E00E94B8
:100B60008E0366E571E086E293E00E943F054091C6
:100B7000740250917502609176027091770222E0C2
:100B800086E293E00E944E0461E671E086E293E023
:100B90000C943F0563E671E089E892E00E943F050E
:100BA000409168025091690260916A0270916B02F3
:100BB00089E892E00E941C048BE691E00E94C00349
:100BC00066E771E089E892E00E943F0540917E026D
:100BD00050917F02052E000C660B770B89E892E09E
:100BE0000E941C046FE171E089E892E00E94AB036F
:100BF00066E871E089E892E00E943F054091640256
:100C000050916502609166027091670289E892E0F6
:100C10000E941C046FE171E089E892E00E94AB033E
:100C20006BE371E089E892E00E943F0560916C02FD
:100C300070916D0280916E0290916F020E942A0560
:100C40006EE271E089E892E00E943F0560917802CF
:100C50007091790280917A0290917B020E942A051C
:100C60006BE971E089E892E00E943F0560917002B3
:100C70007091710280917202909173020E942A0514
:100C800066EB71E089E892E00E943F056091740292
:100C90007091750280917602909177020E942A05E8
:100CA00089E892E00C941C02EC0160E08BE00E9469
:100CB000870061E08CE00E94870062ED71E089E8C6
:100CC00092E00E943F054091680250916902609154
:100CD0006A0270916B0289E892E00E941C046BE644
:100CE00071E089E892E00E943F05CE010E94C003B6
:100CF0000E94CA050E94E40280E00E948E03BE01A9
:100D000086E293E00E943F050E944105FFCFCF930A
:100D1000DF93EC016BED71E089E892E00E943F0502
:100D2000AE010D2E000C660B770B89E892E00E9455
:100D30001C046FE171E089E892E00E94AB030E941D
:100D4000CA054091640250916502609166027091FB
:100D500067024115510561057105A1F08091680296
:100D600090916902A0916A02B0916B02841B950B6D
:100D7000A60BB70BCC97A105B10524F487EE91E043
:100D80000E9454068091680290916902A0916A02C3
:100D9000B0916B028093640290936502A093660207
:100DA000B0936702CE01DF91CF910895CF92DF9289
:100DB000EF92FF9292EF980F8E3008F0892FA82FB4
:100DC000A770E0EAF0E060E070E0CB012091000164
:100DD00040E4249F900111242A2B20937C00209131
:100DE0007A00206420937A0020917A0026FDFCCFBF
:100DF000409178002091790050E0522B6A01550F04
:100E0000EE08FF086C0D7D1D8E1D9F1D3197F1F6BC
:100E100020EA30E040E050E00E946C0C243A3105BA
:100E20001CF485EF91E006C0293E63E0360724F00C
:100E300080E092E00E945406263D83E0380714F0DB
:100E400025ED33E0B901625C710977FF02C060E013
:100E500070E0072E000C880B990B0E94230B20E0FA
:100E600030EC44E454E40E94790AFF90EF90DF9064
:100E7000CF9008951F920F920FB60F9211242F93C7
:100E80003F938F939F93AF93BF93809181029091F3
:100E90008202A0918302B09184023091800223E00B
:100EA000230F2D3720F40196A11DB11D05C026E8A2
:100EB000230F0296A11DB11D209380028093810211
:100EC00090938202A0938302B09384028091850262
:100ED00090918602A0918702B09188020196A11D8F
:100EE000B11D8093850290938602A0938702B093F0
:100EF0008802BF91AF919F918F913F912F910F9059
:100F00000FBE0F901F9018951F920F920FB60F9261
:100F100011242F933F934F935F936F937F938F93FE
:100F20009F93AF93BF93EF93FF9389E892E00E9462
:100F3000AD01FF91EF91BF91AF919F918F917F9103
:100F40006F915F914F913F912F910F900FBE0F9036
:100F50001F9018951F920F920FB60F9211242F9386
:100F60008F939F93EF93FF93E0919902F0919A02F0
:100F70008081E0919F02F091A00282FD12C09081D9
:100F80008091A2028F5F8F732091A302821751F08C
:100F9000E091A202F0E0E757FD4F958F8093A20207
:100FA00001C08081FF91EF919F918F912F910F90C0
:100FB0000FBE0F901F9018951F920F920FB60F92B1
:100FC00011242F933F934F935F936F937F938F934E
:100FD0009F93AF93BF93EF93FF938091680290919B
:100FE0006902A0916A02B0916B020196A11DB11D28
:100FF0008093680290936902A0936A02B0936B0297
:101000008091680290916902A0916A02B0916B028E
:1010100080FF02C061E001C060E08DE00E948700B7
:10102000FF91EF91BF91AF919F918F917F916F91C0
:101030005F914F913F912F910F900FBE0F901F9096
:101040001895E9E8F2E01382128288EE93E0A0E0BE
:10105000B0E084839583A683B78385E091E0918394
:10106000808385EC90E09587848784EC90E0978777
:10107000868780EC90E0918B808B81EC90E0938B65
:10108000828B82EC90E0958B848B86EC90E0978B42
:10109000868B118E128E138E148EE6E2F3E013828D
:1010A000128287E191E0918380838AE084838FEFCD
:1010B000858389E0868386E0878385E0808784E076
:1010C000818783E0828713861486158616861786A5
:1010D00061E080E10C94EC02789484B5826084BD78
:1010E00084B5816084BD85B5826085BD85B581602C
:1010F00085BD80916E00816080936E0010928100AA
:101100008091810082608093810080918100816064
:101110008093810080918000816080938000809125
:10112000B10084608093B1008091B00081608093B1
:10113000B00080917A00846080937A0080917A0078
:10114000826080937A0080917A00816080937A0037
:1011500080917A00806880937A001092C100F894A0
:1011600010928000109281001092850010928400ED
:1011700088E09DE3909389008093880080918100AE
:1011800088608093810080918100856080938100D8
:1011900080916F00826080936F00789464E084E1B6
:1011A0000E94EC02E0919902F0919A0282E0808321
:1011B000E0919502F09196021082E0919702F091F1
:1011C00098028FEC80831092A102E0919D02F09131
:1011D0009E0286E08083E0919B02F0919C028081D8
:1011E00080618083E0919B02F0919C028081886005
:1011F0008083E0919B02F0919C02808180688083D3
:10120000E0919B02F0919C0280818F7D808360E061
:101210008BE00E94870060E08CE00E94870061E024
:101220008BE00E94D40061E08CE00E94D40061E079
:101230008DE00E94D4008CE092E00E94C0030E94E6
:10124000CA0581E08093000160E080E00E94D40044
:1012500060E081E00E94D4000E94E40280E00E94ED
:101260008E036EE771E086E293E00E943F05809175
:101270007E0290917F028230910541F0833091058A
:1012800041F0892B49F46AE272E008C063E372E03E
:1012900005C06BE372E002C063E472E086E293E0B3
:1012A0000E943F050E9441050E9410016B017C01D4
:1012B00088EE882E83E0982EA12CB12C0E9410017C
:1012C000DC01CB018C199D09AE09BF09883E934012
:1012D000A105B10598F321E0821A9108A108B1088F
:1012E00088EEC80E83E0D81EE11CF11C8114910425
:1012F000A104B10419F781E090E00E94D60620E035
:1013000030E040E752E40E94D80B2BED3AE84DED77
:101310005EE30E94790A6B017C016093780270930E
:10132000790280937A0290937B0280E090E00E94A1
:10133000D60620E030E040EA50E40E94D80B2BEDC6
:101340003AE84DED5EE30E94790A60936C02709377
:101350006D0280936E0290936F0220E030E048ECC3
:1013600052E40E94D80B2CE53FE84AEE50E40E947C
:10137000790A0E94EB0AAB0170937D0260937C02B4
:1013800020917E0230917F022115310529F16035CF
:1013900071051CF48BE492E035C02230310549F030
:1013A00023303105C9F02130310571F18AE592E031
:1013B00029C06A3571055CF4C0927002D092710246
:1013C000E0927202F092730283E090E014C060E059
:1013D0008BE00E94870018C04436510514F461E088
:1013E000F7CFC0927402D0927502E0927602F0922A
:1013F000770282E090E00E94870690937F028093BC
:101400007E0202C00E9454060E943E0225CF505820
:10141000BB27AA270E941F0A0C94990B0E948B0BD2
:1014200038F00E94920B20F039F49F3F19F426F413
:101430000C94880B0EF4E095E7FB0C94820BE92FDB
:101440000E94AA0B58F3BA1762077307840795071F
:1014500020F079F4A6F50C94CC0B0EF4E0950B2E4D
:10146000BA2FA02D0B01B90190010C01CA01A001F6
:101470001124FF27591B99F0593F50F4503E68F151
:101480001A16F040A22F232F342F4427585FF3CF92
:10149000469537952795A795F0405395C9F77EF463
:1014A0001F16BA0B620B730B840BBAF09150A1F0AC
:1014B000FF0FBB1F661F771F881FC2F70EC0BA0F32
:1014C000621F731F841F48F4879577956795B795BA
:1014D000F7959E3F08F0B0CF9395880F08F09927B5
:1014E000EE0F9795879508950E945E0B08F481E0B2
:1014F00008950E948D0A0C94990B0E94920B58F04B
:101500000E948B0B40F029F45F3F29F00C94820B72
:1015100051110C94CD0B0C94880B0E94AA0B68F30C
:101520009923B1F3552391F3951B550BBB27AA279C
:1015300062177307840738F09F5F5F4F220F331FD6
:10154000441FAA1FA9F335D00E2E3AF0E0E832D09E
:1015500091505040E695001CCAF72BD0FE2F29D0A1
:10156000660F771F881FBB1F261737074807AB0773
:10157000B0E809F0BB0B802DBF01FF2793585F4FE8
:101580003AF09E3F510578F00C94820B0C94CD0BF1
:101590005F3FE4F3983ED4F3869577956795B795CA
:1015A000F7959F5FC9F7880F911D9695879597F9D5
:1015B0000895E1E0660F771F881FBB1F621773074E
:1015C0008407BA0720F0621B730B840BBA0BEE1F63
:1015D00088F7E09508950E94F20A6894B1110C947E
:1015E000CD0B08950E94B20B88F09F5798F0B92F49
:1015F0009927B751B0F0E1F0660F771F881F991F48
:101600001AF0BA95C9F714C0B13091F00E94CC0B12
:10161000B1E008950C94CC0B672F782F8827B85F22
:1016200039F0B93FCCF3869577956795B395D9F79F
:101630003EF490958095709561957F4F8F4F9F4FA9
:101640000895E89409C097FB3EF4909580957095B5
:1016500061957F4F8F4F9F4F9923A9F0F92F96E9FE
:10166000BB279395F695879577956795B795F11173
:10167000F8CFFAF4BB0F11F460FF1BC06F5F7F4F10
:101680008F4F9F4F16C0882311F096E911C0772322
:1016900021F09EE8872F762F05C0662371F096E82B
:1016A000862F70E060E02AF09A95660F771F881FFA
:1016B000DAF7880F9695879597F90895990F00089E
:1016C000550FAA0BE0E8FEEF16161706E807F90714
:1016D000C0F012161306E407F50798F0621B730BAF
:1016E000840B950B39F40A2661F0232B242B252B30
:1016F00021F408950A2609F4A140A6958FEF811DD3
:10170000811D089597F99F6780E870E060E0089573
:101710009FEF80EC089500240A9416161706180609
:101720000906089500240A941216130614060506E5
:101730000895092E0394000C11F4882352F0BB0F76
:1017400040F4BF2B11F460FF04C06F5F7F4F8F4FD9
:101750009F4F089557FD9058440F551F59F05F3F14
:1017600071F04795880F97FB991F61F09F3F79F0C3
:1017700087950895121613061406551FF2CF469545
:10178000F1DF08C0161617061806991FF1CF8695C7
:101790007105610508940895E894BB2766277727AB
:1017A000CB0197F908950E945E0B08F48FEF08951E
:1017B0000E94EB0B0C94990B0E948B0B38F00E944B
:1017C000920B20F0952311F00C94820B0C94880B53
:1017D00011240C94CD0B0E94AA0B70F3959FC1F3BA
:1017E000950F50E0551F629FF001729FBB27F00DCF
:1017F000B11D639FAA27F00DB11DAA1F649F662724
:10180000B00DA11D661F829F2227B00DA11D621F72
:10181000739FB00DA11D621F839FA00D611D221F2C
:10182000749F3327A00D611D231F849F600D211D10
:10183000822F762F6A2F11249F5750409AF0F1F093
:1018400088234AF0EE0FFF1FBB1F661F771F881FFC
:1018500091505040A9F79E3F510580F00C94820BA7
:101860000C94CD0B5F3FE4F3983ED4F386957795C7
:101870006795B795F795E7959F5FC1F7FE2B880FA2
:10188000911D9695879597F908950E945E0B880B98
:10189000990B0895A1E21A2EAA1BBB1BFD010DC0D6
:1018A000AA1FBB1FEE1FFF1FA217B307E407F50710
:1018B00020F0A21BB30BE40BF50B661F771F881FEC
:1018C000991F1A9469F760957095809590959B0182
:1018D000AC01BD01CF010895052E97FB1EF40094C5
:1018E0000E94830C57FD07D00E944A0C07FC03D0CE
:1018F0004EF40C94830C50954095309521953F4FB4
:101900004F4F5F4F089590958095709561957F4FEB
:101910008F4F9F4F0895EE0FFF1F0590F491E02D1C
:10192000099481E090E0F8940C94960CF894FFCF21
:101930000100000000CF013C0166011C0297017507
:10194000018901000000009F033C01A603A5030DCF
:101950000A006E616E00696E66006F7666005765FC
:101960006C6C3A200027202020200054616E6B3AD6
:1019700020002720280025290057656C6C404F6EF9
:101980003A200027200057656C6C404F66663A206D
:101990000027005469636B733A2000207365636FFE
:1019A0006E64732E200043757272656E74205374DA
:1019B0006174653A20004C617374205374617465DE
:1019C000206368616E67652040200057656C6C205D
:1019D00040206C6173742070756D70207475726E28
:1019E000206F6E3A200057656C6C2040206C61734C
:1019F000742070756D70207475726E206F66663A13
:101A000020004661756C74204020004E657720539D
:101A1000746174653A20005261706964204379638F
:101A20006C696E670053656E736F72204C6F770040
:101A300053656E736F7220486967680057656C6CF8
:101A40002050756D7020436F6E74726F6C6C657290
:101A50002056657220322E330A0046696C6C6C6920
:101A60006E670057616974696E670050756D7069C3
:101A70006E6700556E6B6E6F776E004C6F772054FB
:101A8000616E6B204C6576656C0042616420537416
:041A90006174650018
:00000001FF
