:100000000C9462000C948A000C948A000C948A0070
:100010000C948A000C948A000C948A000C948A0038
:100020000C948A000C948A000C948A000C94740638
:100030000C948A000C948A000C948A000C948A0018
:100040000C9495080C948A000C94BC050C949605AD
:100050000C948A000C948A000C948A000C948A00F8
:100060000C948A000C948A000000000024002700F1
:100070002A0000000000250028002B0000000000DE
:1000800023002600290004040404040404040202DA
:100090000202020203030303030301020408102007
:1000A0004080010204081020010204081020000012
:1000B0000008000201000003040700000000000027
:1000C0000000F00A11241FBECFEFD8E0DEBFCDBF85
:1000D00012E0A0E0B1E0E8E9FBE102C005900D927A
:1000E000AC37B107D9F723E0ACE7B2E001C01D920D
:1000F000AE35B207E1F710E0C2E6D0E004C02197C8
:10010000FE010E94BF0DC136D107C9F70E94DF086A
:100110000C94CA0D0C940000CF92DF92EF92FF92E4
:100120000F931F93CF93DF936C017A018B01C0E093
:10013000D0E0CE15DF0581F0D8016D918D01D6019B
:10014000ED91FC910190F081E02DC6010995892B7C
:1001500011F02196EECF7E01C701DF91CF911F9163
:100160000F91FF90EF90DF90CF900895FC01538D99
:10017000448D252F30E0842F90E0821B930B541781
:1001800010F0CF96089501970895FC01918D828D0E
:10019000981761F0828DDF01A80FB11D5D968C91DB
:1001A000928D9F5F9F73928F90E008958FEF9FEFE6
:1001B0000895FC01918D828D981731F0828DE80FA2
:1001C000F11D858D90E008958FEF9FEF0895FC015C
:1001D000918D228D892F90E0805C9F4F821B910929
:1001E0008F739927089580EA92E00E94E70021E04A
:1001F000892B09F420E0822F0895FC01848DDF0112
:10020000A80FB11DA35ABF4F2C91848D90E0019689
:100210008F739927848FA689B7892C93A089B18978
:100220008C91837080648C93938D848D981306C019
:100230000288F389E02D80818F7D80830895EF927D
:10024000FF920F931F93CF93DF93EC0181E0888F90
:100250009B8D8C8D981305C0E889F989808185FD77
:1002600026C0F62E0B8D10E00F5F1F4F0F73112766
:10027000E02E8C8DE8120CC00FB607FCFACFE8898F
:10028000F989808185FFF5CFCE010E94FD00F1CF75
:100290008B8DFE01E80FF11DE35AFF4FF0829FB7EF
:1002A000F8940B8FEA89FB89808180620AC09FB72E
:1002B000F894EE89FF896083E889F98980818370E9
:1002C000806480839FBF81E090E0DF91CF911F9198
:1002D0000F91FF90EF900895CF93DF93EC01888DFD
:1002E0008823C9F0EA89FB89808185FD05C0A8893A
:1002F000B9898C9186FD0FC00FB607FCF5CF8081C0
:1003000085FFF2CFA889B9898C9185FFEDCFCE0109
:100310000E94FD00E7CFDF91CF91089580E090E04B
:10032000892B29F00E94F30081110C94000008959C
:10033000089580E090E008952FB7F89460918402CA
:100340007091850280918602909187022FBF089557
:10035000CF93DF93EC0160E08E810E94880761E01B
:100360008E810E94880760E08E810E9488078BE85A
:1003700091E00197F1F7DF91CF9108950E94C50DAB
:10038000DC01ED91FC910190F081E02D0994611563
:10039000710579F0FB0101900020E9F73197AF0179
:1003A000461B570BDC01ED91FC910280F381E02D9F
:1003B000099480E090E008958F929F92AF92BF924F
:1003C000EF92FF920F931F93CF93DF93CDB7DEB7DA
:1003D000A1970FB6F894DEBF0FBECDBF7C01FA0126
:1003E000CB0119A2223008F42AE08E010F5D1F4FC5
:1003F000822E912CA12CB12CBF01A50194010E9449
:100400007E0DF901CA01015011096A3014F4605DD2
:1004100001C0695CD8016C93232B242B252B61F739
:10042000B801C7010E94C701A1960FB6F894DEBFBC
:100430000FBECDBFDF91CF911F910F91FF90EF9035
:10044000BF90AF909F908F9008957F928F929F92D0
:10045000AF92BF92CF92DF92EF92FF920F931F93D2
:10046000CF93DF938C016A017B01722E9A01AB015D
:10047000C701B6010E94790D882319F067E271E087
:1004800027C046015701E894B7F82FEF3FEF4FE739
:100490005FE7C501B4010E94790D81110DC02FEFF6
:1004A0003FEF4FE75FE7C501B4010E94A80B1816A4
:1004B0001CF46BE271E00CC02FEF3FEF4FE75FE4FD
:1004C000C701B6010E94070D181694F46FE271E09F
:1004D000C801DF91CF911F910F91FF90EF90DF90B6
:1004E000CF90BF90AF909F908F907F900C94C7015A
:1004F0002FEF3FEF4FE75FECC701B6010E94A80B5B
:1005000087FDE4CF20E030E0A901C701B6010E94D9
:10051000A80B87FF0AC06DE2C8010E94C001EC0170
:10052000F7FAF094F7F8F09402C0C0E0D0E0B12CF4
:1005300060E070E080E09FE37B1441F020E030E079
:1005400040E251E40E94AD0BB394F6CFA7019601AF
:100550000E943C0B6B017C010E94260C4B015C014C
:100560002AE0AB01BC01C8010E94DC01C80FD91F01
:100570007720C1F1C501B4010E94550C9B01AC016B
:10058000C701B6010E943B0B6B017C016EE2C80102
:100590000E94C001C80FD91F20E030E040E251E4C2
:1005A000C701B6010E940C0D4B015C010E94260C94
:1005B0006B01E12CF12C2AE0B701A601C8010E94D1
:1005C000DC01C80FD91FC701B6010E94550C9B0161
:1005D000AC01C501B4010E943B0B6B017C017A9414
:1005E0007110DACFCE01DF91CF911F910F91FF9063
:1005F000EF90DF90CF90BF90AF909F908F907F90C3
:1006000008950C94C701CF92DF92EF92FF9280E1A0
:1006100092E00E944C076BE371E080EA92E00E9456
:1006200001030E949C01AB01BC012AE080EA92E038
:100630000E94DC0183E491E00E944C0766E072E0D6
:1006400080EA92E00E94010380919A0290919B02BD
:100650008430910540F4880F991FFC01EF5FFE4F35
:100660006081718102C063E371E080EA92E00E94E0
:10067000010380919A0290919B028330910511F0C1
:10068000892B21F562EA71E080EA92E00E94010381
:10069000C0908C02D0908D02E0908E02F0908F027C
:1006A0000E949C016C197D098E099F092CE330E0A2
:1006B00040E050E00E947E0DBA01A9012AE080EAE4
:1006C00092E00E94DC018EE491E002C080E192E0C1
:1006D0000E944C0762E571E080EA92E00E9401030B
:1006E000409188025091890260918A0270918B0238
:1006F00022E080EA92E00E94250269E571E080EA4A
:1007000092E00E940103609198027091990280EA40
:1007100092E00E9401078DE591E00E944C0760E69F
:1007200071E080EA92E00E9401036091940270916E
:10073000950280919602909197020E94370767E692
:1007400071E080EA92E00E94010360917C02709166
:100750007D0280917E0290917F020E94370762E8BD
:1007600071E080EA92E00E94010360918002709142
:10077000810280918202909183020E94370780EA71
:1007800092E0FF90EF90DF90CF900C946C0181E0AD
:100790000E94F00660E671E08DE393E00E940103A1
:1007A0004091940250919502609196027091970247
:1007B00022E08DE393E00E9425026EE971E08DE373
:1007C00093E00E94010382E00E94F00662E571E07E
:1007D0008DE393E00E9401034091880250918902C9
:1007E00060918A0270918B0222E08DE393E00E9477
:1007F000250269E571E08DE393E00E9401036091B9
:100800009802709199028DE393E00E9401076DE5D3
:1008100071E08DE393E00E9401030E949C0183E05C
:1008200060FF18C00E94F00664EA71E08DE393E077
:100830000E94010340917C0250917D0260917E02F2
:1008400070917F0222E08DE393E00E9425026EEA20
:1008500071E017C00E94F00661EB71E08DE393E058
:100860000E940103409180025091810260918202B6
:100870007091830222E08DE393E00E9425026CEBED
:1008800071E08DE393E00C940103EC0160E08BE0F8
:100890000E94880761E08CE00E94880780E192E076
:1008A0000E944C076EEB71E080EA92E00E94010327
:1008B0000E949C01AB01BC012AE080EA92E00E9408
:1008C000DC0167EC71E080EA92E00E940103CE0156
:1008D0000E944C070E9403030E94E80680E00E94E9
:1008E000F006BE018DE393E00E9401030E94C7035E
:1008F000FFCF0F931F938BE00E945F070197B1F525
:100900008091940290919502A0919602B0919702E5
:100910008093800290938102A0938202B09383021D
:100920000E949C01609390027093910280939202C6
:100930009093930200918C0210918D0220918E026F
:1009400030918F02DC01CB01801B910BA20BB30B0A
:10095000CC97A105B10520F48DED91E00E944504EE
:1009600060E08BE01F910F910C9488071F910F910D
:1009700008950F931F938BE00E945F07892BB1F5B9
:100980008091940290919502A0919602B091970265
:1009900080937C0290937D02A0937E02B0937F02AD
:1009A0000E949C0160938C0270938D0280938E0252
:1009B00090938F02009190021091910220919202E7
:1009C00030919302DC01CB01801B910BA20BB30B86
:1009D000CC97A105B10520F48DED91E00E9445046E
:1009E00061E08BE01F910F910C9488071F910F918C
:1009F0000895CF92DF92EF92FF9292EF980F8E3090
:100A000008F0892FA82FA770E0EAF0E060E070E01E
:100A1000CB012091000140E4249F900111242A2B56
:100A200020937C0020917A00206420937A0020910A
:100A30007A0026FDFCCF409178002091790050E0AB
:100A4000522B6A01550FEE08FF086C0D7D1D8E1D9F
:100A50009F1D3197F1F620EA30E040E050E00E941F
:100A6000A00D243A31051CF48BEE91E006C0293E1E
:100A700063E0360724F086EF91E00E944504263DAE
:100A800083E0380714F025ED33E0B901625C7109A9
:100A900077FF02C060E070E0072E000C880B990B16
:100AA0000E94570C20E030EC44E454E40E94AD0B6B
:100AB000FF90EF90DF90CF900895CF92DF92EF926A
:100AC000FF92CF93DF93EC0162E072E080EA92E064
:100AD0000E9401036E010D2E000CEE08FF08F7FEC8
:100AE0000EC06DE280EA92E00E94C00144275527C3
:100AF000BA014C195D096E097F092AE003C02AE09A
:100B0000B701A60180EA92E00E94DC016EE072E08B
:100B100080EA92E00E94C7010E940303CE01DF91A8
:100B2000CF91FF90EF90DF90CF9008951F920F929A
:100B30000FB60F9211242F933F934F935F936F93B0
:100B40007F938F939F93AF93BF93EF93FF9380EA2D
:100B500092E00E94FD00FF91EF91BF91AF919F91B4
:100B60008F917F916F915F914F913F912F910F9056
:100B70000FBE0F901F9018951F920F920FB60F92F5
:100B800011242F938F939F93EF93FF93E091B002E3
:100B9000F091B1028081E091B602F091B70282FD3E
:100BA00012C090818091B9028F5F8F732091BA0239
:100BB000821751F0E091B902F0E0E056FD4F958FB9
:100BC0008093B90201C08081FF91EF919F918F9135
:100BD0002F910F900FBE0F901F901895CF92DF921C
:100BE000EF92FF920F931F93CF93DF936C017C01E1
:100BF00087E0E80EF11CC0E0D0E0062F10E0B8015D
:100C00000C2E02C0759567950A94E2F76170F701A2
:100C100081917F010E9488072196C430D10579F720
:100C2000C601DF91CF911F910F91FF90EF90DF9060
:100C3000CF900C94A801CF92DF92EF92FF920F9386
:100C40001F93CF93DF93EC01F62E642F8C810E94CB
:100C500088078D818F3F19F060E00E9488078F859B
:100C60000F2D10E084FF25C06E0187E0C80ED11C57
:100C7000E12CF12CB8010E2C02C0759567950A94F1
:100C8000E2F76170F60181916F010E948807FFEF22
:100C9000EF1AFF0A88E0E816F10461F7CE01DF9150
:100CA000CF911F910F91FF90EF90DF90CF900C9418
:100CB000A801B80184E0759567958A95E1F7CE01A2
:100CC0000E94EE056F2DCE01DF91CF911F910F9104
:100CD000FF90EF90DF90CF900C94EE0541E00E94E2
:100CE0001B0681E090E008951F920F920FB60F92BD
:100CF00011242F933F934F935F936F937F938F9321
:100D00009F93AF93BF93EF93FF9380918402909151
:100D10008502A0918602B09187020196A11DB11DA6
:100D20008093840290938502A0938602B0938702F9
:100D30008091840290918502A0918602B0918702F1
:100D400080FF02C061E001C060E08DE00E94880782
:100D5000FF91EF91BF91AF919F918F917F916F9193
:100D60005F914F913F912F910F900FBE0F901F9069
:100D70001895833081F028F4813099F08230A1F009
:100D800008958730A9F08830B9F08430D1F480918B
:100D900080008F7D03C0809180008F7780938000DA
:100DA000089584B58F7702C084B58F7D84BD089582
:100DB0008091B0008F7703C08091B0008F7D8093C9
:100DC000B000089540E0682F8DE393E00C941B067B
:100DD00081E00E94E2068BE39FE10197F1F708951D
:100DE000843008F083E090915003891710F08FEF62
:100DF000890FE82FF0E0E35CFC4F848980680C9455
:100E0000E206CF92DF92EF92FF920F931F93CF9360
:100E1000DF936B01770FEE08FF08F7FE1BC0EC01B4
:100E20006DE20E94C0018C0144275527BA014C197C
:100E30005D096E097F092AE0CE010E94DC01800F66
:100E4000911FDF91CF911F910F91FF90EF90DF9055
:100E5000CF9008952AE0B701A601DF91CF911F91AD
:100E60000F91FF90EF90DF90CF900C94DC01CF9327
:100E7000DF93AB01BC0122E080EA92E00E942502F0
:100E8000EC016EE072E080EA92E00E94C7018C0FF4
:100E90009D1FDF91CF910895CF93DF93BC0180EA2E
:100EA00092E00E94C701EC016EE072E080EA92E0FD
:100EB0000E94C7018C0F9D1FDF91CF910895CF93A2
:100EC000DF93282F30E0F901E255FF4F8491F901BB
:100ED000E656FF4FD491F901EA57FF4FC491CC2356
:100EE00091F081110E94B906EC2FF0E0EE0FFF1F88
:100EF000E458FF4FA591B491EC91ED2381E090E08F
:100F000021F480E002C080E090E0DF91CF9108956D
:100F10001F93CF93DF93282F30E0F901E255FF4F65
:100F20008491F901E656FF4FD491F901EA57FF4F3A
:100F3000C491CC23C1F0162F81110E94B906EC2F69
:100F4000F0E0EE0FFF1FEE58FF4FA591B4919FB751
:100F5000F894111104C08C91D095D82302C0EC9163
:100F6000DE2BDC939FBFDF91CF911F910895CF932C
:100F7000DF9390E0FC01E656FF4F2491FC01EA5715
:100F8000FF4F8491882361F190E0880F991FFC0145
:100F9000E859FF4FC591D491FC01EE58FF4FA59140
:100FA000B491611109C09FB7F8948881209582237C
:100FB0008883EC912E230BC0623061F49FB7F894C4
:100FC0008881322F309583238883EC912E2B2C93AC
:100FD0009FBF06C08FB7F894E8812E2B28838FBF60
:100FE000DF91CF910895CF93DF93623028F09091F5
:100FF0004C03986090934C036093500310925103FC
:1010000090E4909352038093530390E0805C9F4F51
:101010008093540361E0809141030E94B70780915F
:1010200042038F3F19F061E00E94B70761E08091B1
:1010300043030E94B707CDE3D3E09E012D53334015
:1010400080914C0384FD03C084E090E002C088E0FE
:1010500090E02196281739072CF461E08E810E94D8
:10106000B707EBCF8BE39DE00197F1F760E080914C
:1010700041030E94880760E0809143030E94880733
:10108000809142038F3F19F060E00E9488078091B1
:101090004C0384FD20C063E08DE393E00E94EE05E5
:1010A000CBE4D6E4CE010197F1F763E08DE393E062
:1010B0000E94EE052197F1F763E08DE393E00E9433
:1010C000EE0583E592E00197F1F762E08DE393E0AE
:1010D0000E94EE0515C080620E94E2068BE496E451
:1010E0000197F1F780914C0380620E94E20683E54C
:1010F00092E00197F1F780914C0380620E94E20632
:1011000080914C0380620E94E20684E080934D034C
:101110008CE00E94E2060E94E80682E080934E0383
:1011200086E0DF91CF910C94E2061F920F920FB6EA
:101130000F9211242F933F938F939F93AF93BF935D
:1011400080915A0390915B03A0915C03B0915D0381
:101150003091590323E0230F2D3720F40196A11D70
:10116000B11D05C026E8230F0296A11DB11D2093D5
:10117000590380935A0390935B03A0935C03B0934D
:101180005D038091550390915603A0915703B09150
:1011900058030196A11DB11D8093550390935603EA
:1011A000A0935703B0935803BF91AF919F918F9134
:1011B0003F912F910F900FBE0F901F90189578942C
:1011C00084B5826084BD84B5816084BD85B582604C
:1011D00085BD85B5816085BD80916E0081608093FD
:1011E0006E00109281008091810082608093810066
:1011F0008091810081608093810080918000816076
:10120000809380008091B10084608093B1008091D0
:10121000B00081608093B00080917A0084608093F8
:101220007A0080917A00826080937A0080917A00BF
:10123000816080937A0080917A00806880937A0040
:101240001092C100F89410928000109281001092C8
:1012500085001092840088E09DE39093890080933C
:101260008800809181008860809381008091810056
:1012700085608093810080916F00826080936F0011
:10128000789464E084E10E94F307E091B002F09169
:10129000B10282E08083E091AC02F091AD02108255
:1012A000E091AE02F091AF028FEC80831092B80211
:1012B000E091B402F091B50286E08083E091B20241
:1012C000F091B302808180618083E091B202F0915D
:1012D000B302808188608083E091B202F091B30212
:1012E000808180688083E091B202F091B3028081B6
:1012F0008F7D808360E08BE00E94880760E08CE057
:101300000E94880761E08BE00E94B70761E08CE0F3
:101310000E94B70761E08DE00E94B70781E192E08B
:101320000E944C070E94030381E08093000160E06B
:1013300080E00E94B70760E081E00E94B7073CE3CD
:10134000C32ED12CE12CF12C0E949C0180909C0298
:1013500090909D02A0909E02B0909F026815790522
:101360008A059B0589F30E949C0160939C027093FF
:101370009D0280939E0290939F0281E090E00E94E4
:10138000F90420E030E040E752E40E940C0D2BED20
:101390003AE84DED5EE30E94AD0B4B015C016093BA
:1013A000940270939502809396029093970280E046
:1013B00090E00E94F90420E030E040EA50E40E940E
:1013C0000C0D2BED3AE84DED5EE30E94AD0B609302
:1013D00088027093890280938A0290938B0220E0A6
:1013E00030E048EC52E40E940C0D2CE53FE84AEE58
:1013F00050E40E94AD0B0E941F0CEB017093990208
:101400006093980280919A0290919B02813091059D
:1014100039F11CF4892B41F081C082309105D9F15A
:10142000039709F441C07AC0C436D1051CF082E0AC
:1014300090E00CC020E030E040EA51E4C501B40186
:101440000E94A80B87FF09C081E090E00E945D0523
:1014500090939B0280939A0264C00E94B90461C079
:101460000E9479048090900290909102A090920244
:10147000B09093020E949C01DC01CB01881999096C
:10148000AA09BB0981319E40A105B10508F449C0F4
:1014900080E090E0DBCFCA35D1051CF483E090E01A
:1014A000D5CF0E9479043DC020E030E040EA51E40D
:1014B000C501B4010E94A80B87FF03C081E392E03D
:1014C00005C0C035D10524F480E492E00E944504B3
:1014D000C436D1054CF082E090E00E945D05909307
:1014E0009B0280939A0202C00E94B90480908C02F1
:1014F00090908D02A0908E02B0908F020E949C016D
:10150000DC01CB0188199909AA09BB0981369445E8
:10151000A105B10530F08FE492E0D8CF8DE592E0DF
:10152000D5CF0E949C01A70196010E947E0D672BDA
:10153000682B692B11F40E9403030E94E80680E0E7
:101540000E94F00666E072E08DE393E00E940103E2
:1015500080919A0290919B028430910540F4880F0B
:10156000991FFC01EF5FFE4F6081718102C063E350
:1015700071E08DE393E00E94010380919A029091C3
:101580009B028330910511F0892B29F562EA71E005
:101590008DE393E00E94010380908C0290908D0275
:1015A000A0908E02B0908F020E949C016819790968
:1015B0008A099B09A70196010E947E0DBA01A90123
:1015C0002AE08DE393E00E94DC016EE471E08DE39C
:1015D00093E00E9401030E94C7030E948E01B4CED3
:1015E000E0EAF2E01382128288EE93E0A0E0B0E03D
:1015F00084839583A683B7838DE091E09183808374
:1016000085EC90E09587848784EC90E097878687C7
:1016100080EC90E0918B808B81EC90E0938B828BBF
:1016200082EC90E0958B848B86EC90E0978B868B98
:10163000118E128E138E148EEDE3F3E0138212825C
:101640008FE191E0918380838AE084838FEF8583AB
:1016500089E0868386E0878385E0808784E08187D0
:1016600083E082871386148615861686178661E0C6
:1016700080E10C94F3075058BB27AA270E94530B14
:101680000C94CD0C0E94BF0C38F00E94C60C20F0C8
:1016900039F49F3F19F426F40C94BC0C0EF4E09539
:1016A000E7FB0C94B60CE92F0E94DE0C58F3BA1736
:1016B000620773078407950720F079F4A6F50C9468
:1016C000000D0EF4E0950B2EBA2FA02D0B01B901E1
:1016D00090010C01CA01A0011124FF27591B99F0A8
:1016E000593F50F4503E68F11A16F040A22F232FB4
:1016F000342F4427585FF3CF469537952795A79504
:10170000F0405395C9F77EF41F16BA0B620B730BAA
:10171000840BBAF09150A1F0FF0FBB1F661F771F1B
:10172000881FC2F70EC0BA0F621F731F841F48F4D0
:10173000879577956795B795F7959E3F08F0B0CF59
:101740009395880F08F09927EE0F97958795089540
:101750000E94920C08F481E008950E94C10B0C9441
:10176000CD0C0E94C60C58F00E94BF0C40F029F42A
:101770005F3F29F00C94B60C51110C94010D0C94A0
:10178000BC0C0E94DE0C68F39923B1F3552391F34E
:10179000951B550BBB27AA2762177307840738F0E0
:1017A0009F5F5F4F220F331F441FAA1FA9F335D03D
:1017B0000E2E3AF0E0E832D091505040E695001CF1
:1017C000CAF72BD0FE2F29D0660F771F881FBB1FAB
:1017D000261737074807AB07B0E809F0BB0B802D89
:1017E000BF01FF2793585F4F3AF09E3F510578F0B5
:1017F0000C94B60C0C94010D5F3FE4F3983ED4F3C7
:10180000869577956795B795F7959F5FC9F7880F88
:10181000911D9695879597F90895E1E0660F771FDA
:10182000881FBB1F621773078407BA0720F0621B6B
:10183000730B840BBA0BEE1F88F7E09508950E9496
:10184000260C6894B1110C94010D08950E94E60CC9
:1018500088F09F5798F0B92F9927B751B0F0E1F071
:10186000660F771F881F991F1AF0BA95C9F714C021
:10187000B13091F00E94000DB1E008950C94000D7C
:10188000672F782F8827B85F39F0B93FCCF386955A
:1018900077956795B395D9F73EF4909580957095B7
:1018A00061957F4F8F4F9F4F0895E89409C097FB34
:1018B0003EF490958095709561957F4F8F4F9F4F27
:1018C0009923A9F0F92F96E9BB279395F69587956B
:1018D00077956795B795F111F8CFFAF4BB0F11F42E
:1018E00060FF1BC06F5F7F4F8F4F9F4F16C08823D5
:1018F00011F096E911C0772321F09EE8872F762F0B
:1019000005C0662371F096E8862F70E060E02AF04B
:101910009A95660F771F881FDAF7880F9695879537
:1019200097F90895990F0008550FAA0BE0E8FEEF0C
:1019300016161706E807F907C0F012161306E40793
:10194000F50798F0621B730B840B950B39F40A268C
:1019500061F0232B242B252B21F408950A2609F46A
:10196000A140A6958FEF811D811D089597F99F676E
:1019700080E870E060E008959FEF80EC0895002417
:101980000A941616170618060906089500240A94E4
:1019900012161306140605060895092E0394000C6A
:1019A00011F4882352F0BB0F40F4BF2B11F460FFF9
:1019B00004C06F5F7F4F8F4F9F4F089557FD905822
:1019C000440F551F59F05F3F71F04795880F97FB03
:1019D000991F61F09F3F79F08795089512161306BD
:1019E0001406551FF2CF4695F1DF08C016161706EC
:1019F0001806991FF1CF8695710561050894089521
:101A0000E894BB2766277727CB0197F908950E94B2
:101A1000920C08F48FEF08950E941F0D0C94CD0CCA
:101A20000E94BF0C38F00E94C60C20F0952311F0E4
:101A30000C94B60C0C94BC0C11240C94010D0E9457
:101A4000DE0C70F3959FC1F3950F50E0551F629F18
:101A5000F001729FBB27F00DB11D639FAA27F00D07
:101A6000B11DAA1F649F6627B00DA11D661F829F2E
:101A70002227B00DA11D621F739FB00DA11D621F13
:101A8000839FA00D611D221F749F3327A00D611D30
:101A9000231F849F600D211D822F762F6A2F112412
:101AA0009F5750409AF0F1F088234AF0EE0FFF1F45
:101AB000BB1F661F771F881F91505040A9F79E3F9C
:101AC000510580F00C94B60C0C94010D5F3FE4F3CB
:101AD000983ED4F3869577956795B795F795E795F2
:101AE0009F5FC1F7FE2B880F911D9695879597F9FB
:101AF00008950E94920C880B990B0895A1E21A2E6A
:101B0000AA1BBB1BFD010DC0AA1FBB1FEE1FFF1FA1
:101B1000A217B307E407F50720F0A21BB30BE40BF1
:101B2000F50B661F771F881F991F1A9469F7609538
:101B30007095809590959B01AC01BD01CF010895F2
:101B4000052E97FB1EF400940E94B70D57FD07D099
:101B50000E947E0D07FC03D04EF40C94B70D5095F7
:101B60004095309521953F4F4F4F5F4F0895909589
:101B70008095709561957F4F8F4F9F4F0895EE0F21
:101B8000FF1F0590F491E02D099481E090E0F89416
:081B90000C94CA0DF894FFCF7C
:101B98000167026C0271027602000000001F018CCE
:101BA80000B6006C01E700C500D900000000006E17
:101BB800068C00990198016E616E00696E66006F6F
:101BC800766600556E6B6E6F776E005469636B7343
:101BD8003A2000207365636F6E64732E20006D6970
:101BE8006E0054616E6B3A200027202800252900DA
:101BF80057656C6C3A200057656C6C2040206C610E
:101C080073742070756D70207475726E206F6E3AE3
:101C1800200057656C6C2040206C617374207075CF
:101C28006D70207475726E206F66663A20002720EA
:101C38002020200057656C6C404F6E3A200027200A
:101C48000057656C6C404F66663A20002700466175
:101C5800756C7420402000207365636F6E64732177
:101C680021212121212121212121212100526170BD
:101C78006964204379636C696E670053656E736F9E
:101C880072204C6F770053656E736F7220486967D6
:101C980068004E65772053746174653A20000D0A18
:101CA800000A0A57656C6C2050756D7020436F6E82
:101CB80074726F6C6C65722056657220322E330A0E
:101CC800004C6F772057656C6C204C6576656C000E
:101CD8004C6F772054616E6B204C6576656C0050B4
:101CE800756D70204C6F6E672052756E004261648E
:101CF8002053746174650046696C6C0046696C6CAD
:0C1D080020576169740050756D70000078
:00000001FF
