:100000000C9462000C948A000C948A000C948A0070
:100010000C948A000C948A000C948A000C948A0038
:100020000C948A000C948A000C948A000C945E064E
:100030000C948A000C948A000C948A000C948A0018
:100040000C947F080C948A000C94A6050C948005EF
:100050000C948A000C948A000C948A000C948A00F8
:100060000C948A000C948A000000000024002700F1
:100070002A0000000000250028002B0000000000DE
:1000800023002600290004040404040404040202DA
:100090000202020203030303030301020408102007
:1000A0004080010204081020010204081020000012
:1000B0000008000201000003040700000000000027
:1000C0000000DE0A11241FBECFEFD8E0DEBFCDBF97
:1000D00012E0A0E0B1E0E4E7FBE102C005900D9280
:1000E000AA37B107D9F723E0AAE7B2E001C01D9211
:1000F000A036B207E1F710E0C2E6D0E004C02197D5
:10010000FE010E94AD0DC136D107C9F70E94C90892
:100110000C94B80D0C940000CF92DF92EF92FF92F6
:100120000F931F93CF93DF936C017A018B01C0E093
:10013000D0E0CE15DF0581F0D8016D918D01D6019B
:10014000ED91FC910190F081E02DC6010995892B7C
:1001500011F02196EECF7E01C701DF91CF911F9163
:100160000F91FF90EF90DF90CF900895FC01538D99
:10017000448D252F30E0842F90E0821B930B541781
:1001800010F0CF96089501970895FC01918D828D0E
:10019000981761F0828DDF01A80FB11D5D968C91DB
:1001A000928D9F5F9F73928F90E008958FEF9FEFE6
:1001B0000895FC01918D828D981731F0828DE80FA2
:1001C000F11D858D90E008958FEF9FEF0895FC015C
:1001D000918D228D892F90E0805C9F4F821B910929
:1001E0008F739927089582EA92E00E94E70021E048
:1001F000892B09F420E0822F0895FC01848DDF0112
:10020000A80FB11DA35ABF4F2C91848D90E0019689
:100210008F739927848FA689B7892C93A089B18978
:100220008C91837080648C93938D848D981306C019
:100230000288F389E02D80818F7D80830895EF927D
:10024000FF920F931F93CF93DF93EC0181E0888F90
:100250009B8D8C8D981305C0E889F989808185FD77
:1002600026C0F62E0B8D10E00F5F1F4F0F73112766
:10027000E02E8C8DE8120CC00FB607FCFACFE8898F
:10028000F989808185FFF5CFCE010E94FD00F1CF75
:100290008B8DFE01E80FF11DE35AFF4FF0829FB7EF
:1002A000F8940B8FEA89FB89808180620AC09FB72E
:1002B000F894EE89FF896083E889F98980818370E9
:1002C000806480839FBF81E090E0DF91CF911F9198
:1002D0000F91FF90EF900895CF93DF93EC01888DFD
:1002E0008823C9F0EA89FB89808185FD05C0A8893A
:1002F000B9898C9186FD0FC00FB607FCF5CF8081C0
:1003000085FFF2CFA889B9898C9185FFEDCFCE0109
:100310000E94FD00E7CFDF91CF91089580E090E04B
:10032000892B29F00E94F30081110C94000008959C
:10033000089580E090E008952FB7F89460918602C8
:100340007091870280918802909189022FBF089551
:10035000CF93DF93EC0160E08E810E94720761E031
:100360008E810E94720760E08E810E9472078BE886
:1003700091E00197F1F7DF91CF9108950E94B30DBD
:100380008BE00E9449070197F1F4809196029091C9
:100390009702A0919802B091990280937E02909367
:1003A0007F02A0938002B09381020E949C0160931F
:1003B000920270939302809394029093950260E06E
:1003C0008BE00C94720708958BE00E944907892BFB
:1003D000F1F48091960290919702A0919802B091C9
:1003E000990280937A0290937B02A0937C02B0934F
:1003F0007D020E949C0160938E0270938F02809315
:1004000090029093910261E08BE00C947207089542
:10041000DC01ED91FC910190F081E02D09946115D2
:10042000710579F0FB0101900020E9F73197AF01E8
:10043000461B570BDC01ED91FC910280F381E02D0E
:10044000099480E090E008958F929F92AF92BF92BE
:10045000EF92FF920F931F93CF93DF93CDB7DEB749
:10046000A1970FB6F894DEBF0FBECDBF7C01FA0195
:10047000CB0119A2223008F42AE08E010F5D1F4F34
:10048000822E912CA12CB12CBF01A50194010E94B8
:100490006C0DF901CA01015011096A3014F4605D54
:1004A00001C0695CD8016C93232B242B252B61F7A9
:1004B000B801C7010E940F02A1960FB6F894DEBFE3
:1004C0000FBECDBFDF91CF911F910F91FF90EF90A5
:1004D000BF90AF909F908F9008957F928F929F9240
:1004E000AF92BF92CF92DF92EF92FF920F931F9342
:1004F000CF93DF938C016A017B01722E9A01AB01CD
:10050000C701B6010E94670D882319F067E271E008
:1005100027C046015701E894B7F82FEF3FEF4FE7A8
:100520005FE7C501B4010E94670D81110DC02FEF77
:100530003FEF4FE75FE7C501B4010E94960B181625
:100540001CF46BE271E00CC02FEF3FEF4FE75FE46C
:10055000C701B6010E94F50C181694F46FE271E021
:10056000C801DF91CF911F910F91FF90EF90DF9025
:10057000CF90BF90AF909F908F907F900C940F0280
:100580002FEF3FEF4FE75FECC701B6010E94960BDC
:1005900087FDE4CF20E030E0A901C701B6010E9449
:1005A000960B87FF0AC06DE2C8010E940802EC01A9
:1005B000F7FAF094F7F8F09402C0C0E0D0E0B12C64
:1005C00060E070E080E09FE37B1441F020E030E0E9
:1005D00040E251E40E949B0BB394F6CFA701960131
:1005E0000E942A0B6B017C010E94140C4B015C01E0
:1005F0002AE0AB01BC01C8010E942402C80FD91F28
:100600007720C1F1C501B4010E94430C9B01AC01EC
:10061000C701B6010E94290B6B017C016EE2C80183
:100620000E940802C80FD91F20E030E040E251E4E8
:10063000C701B6010E94FA0C4B015C010E94140C28
:100640006B01E12CF12C2AE0B701A601C8010E9440
:100650002402C80FD91FC701B6010E94430C9B0199
:10066000AC01C501B4010E94290B6B017C017A9495
:100670007110DACFCE01DF91CF911F910F91FF90D2
:10068000EF90DF90CF90BF90AF909F908F907F9032
:1006900008950C940F02CF92DF92EF92FF9282E0C6
:1006A00092E00E9436076BE371E082EA92E00E94DA
:1006B00049030E949C01AB01BC012AE082EA92E05E
:1006C0000E94240283E491E00E94360768EF71E003
:1006D00082EA92E00E94490380919C0290919D02DF
:1006E0008430910540F4880F991FFC01EF5FFE4FA5
:1006F0006081718102C063E371E082EA92E00E944E
:10070000490380919C0290919D028330910511F0E4
:10071000892B21F562EA71E082EA92E00E944903A6
:10072000C0908E02D0908F02E0909002F0909102E3
:100730000E949C016C197D098E099F092CE330E011
:1007400040E050E00E946C0DBA01A9012AE082EA63
:1007500092E00E9424028EE491E002C082E092E0E6
:100760000E94360762E571E082EA92E00E94490346
:1007700040918A0250918B0260918C0270918D029F
:1007800022E082EA92E00E946D0269E571E082EA6D
:1007900092E00E94490360919A0270919B0282EA62
:1007A00092E00E94EB068DE591E00E94360760E63C
:1007B00071E082EA92E00E94490360919602709192
:1007C000970280919802909199020E94210767E612
:1007D00071E082EA92E00E94490360917A0270918E
:1007E0007B0280917C0290917D020E94210762E849
:1007F00071E082EA92E00E94490360917E0270916A
:100800007F0280918002909181020E94210782EAFA
:1008100092E0FF90EF90DF90CF900C946C0181E01C
:100820000E94DA0660E671E08FE393E00E944903DC
:1008300040919602509197026091980270919902AE
:1008400022E08FE393E00E946D026EE971E08FE396
:1008500093E00E94490382E00E94DA0662E571E0BB
:100860008FE393E00E94490340918A0250918B02EA
:1008700060918C0270918D0222E08FE393E00E94E0
:100880006D0269E571E08FE393E00E944903609196
:100890009A0270919B028FE393E00E94EB066DE554
:1008A00071E08FE393E00E9449030E949C0183E082
:1008B00060FF18C00E94DA0664EA71E08FE393E0FB
:1008C0000E94490340917A0250917B0260917C0220
:1008D00070917D0222E08FE393E00E946D026EEA48
:1008E00071E017C00E94DA0661EB71E08FE393E0DC
:1008F0000E94490340917E0250917F0260918002E4
:100900007091810222E08FE393E00E946D026CEB14
:1009100071E08FE393E00C944903EC0160E08BE01D
:100920000E94720761E08CE00E94720782E092E010
:100930000E9436076EEB71E082EA92E00E94490362
:100940000E949C01AB01BC012AE082EA92E00E9475
:10095000240267EC71E082EA92E00E944903CE0132
:100960000E9436070E944B030E94D20680E00E943C
:10097000DA06BE018FE393E00E9449030E940F0450
:10098000FFCFCF92DF92EF92FF9292EF980F8E30CF
:1009900008F0892FA82FA770E0EAF0E060E070E08F
:1009A000CB012091000140E4249F900111242A2BC7
:1009B00020937C0020917A00206420937A0020917B
:1009C0007A0026FDFCCF409178002091790050E01C
:1009D000522B6A01550FEE08FF086C0D7D1D8E1D10
:1009E0009F1D3197F1F620EA30E040E050E00E9490
:1009F0008E0D243A31051CF48DED91E006C0293EA0
:100A000063E0360724F088EE91E00E948D04263DD5
:100A100083E0380714F025ED33E0B901625C710919
:100A200077FF02C060E070E0072E000C880B990B86
:100A30000E94450C20E030EC44E454E40E949B0BFF
:100A4000FF90EF90DF90CF900895CF92DF92EF92DA
:100A5000FF92CF93DF93EC0164EF71E082EA92E0C2
:100A60000E9449036E010D2E000CEE08FF08F7FEF0
:100A70000EC06DE282EA92E00E94080244275527E8
:100A8000BA014C195D096E097F092AE003C02AE00A
:100A9000B701A60182EA92E00E94240260E072E0BF
:100AA00082EA92E00E940F020E944B03C0908202F1
:100AB000D0908302E0908402F0908502C114D104AA
:100AC000E104F10459F00E949C01C616D706E8061D
:100AD000F90621F483E092E00E948D040E949C01BB
:100AE00060938202709383028093840290938502C4
:100AF000CE01DF91CF91FF90EF90DF90CF900895DE
:100B00001F920F920FB60F9211242F933F934F9382
:100B10005F936F937F938F939F93AF93BF93EF9365
:100B2000FF9382EA92E00E94FD00FF91EF91BF9156
:100B3000AF919F918F917F916F915F914F913F9175
:100B40002F910F900FBE0F901F9018951F920F922C
:100B50000FB60F9211242F938F939F93EF93FF93D0
:100B6000E091B202F091B3028081E091B802F0917D
:100B7000B90282FD12C090818091BB028F5F8F739A
:100B80002091BC02821751F0E091BB02F0E0EE55DB
:100B9000FD4F958F8093BB0201C08081FF91EF9143
:100BA0009F918F912F910F900FBE0F901F901895CE
:100BB000CF92DF92EF92FF920F931F93CF93DF9329
:100BC0006C017C0187E0E80EF11CC0E0D0E0062F4C
:100BD00010E0B8010C2E02C0759567950A94E2F7F3
:100BE0006170F70181917F010E9472072196C430E4
:100BF000D10579F7C601DF91CF911F910F91FF9039
:100C0000EF90DF90CF900C94A801CF92DF92EF92FB
:100C1000FF920F931F93CF93DF93EC01F62E642F77
:100C20008C810E9472078D818F3F19F060E00E94D5
:100C300072078F850F2D10E084FF25C06E0187E0BD
:100C4000C80ED11CE12CF12CB8010E2C02C07595F8
:100C500067950A94E2F76170F60181916F010E9435
:100C60007207FFEFEF1AFF0A88E0E816F10461F758
:100C7000CE01DF91CF911F910F91FF90EF90DF9008
:100C8000CF900C94A801B80184E0759567958A957A
:100C9000E1F7CE010E94D8056F2DCE01DF91CF91F3
:100CA0001F910F91FF90EF90DF90CF900C94D8059B
:100CB00041E00E94050681E090E008951F920F92A6
:100CC0000FB60F9211242F933F934F935F936F931F
:100CD0007F938F939F93AF93BF93EF93FF938091F5
:100CE000860290918702A0918802B09189020196B4
:100CF000A11DB11D8093860290938702A093880264
:100D0000B09389028091860290918702A091880217
:100D1000B091890280FF02C061E001C060E08DE017
:100D20000E947207FF91EF91BF91AF919F918F91B8
:100D30007F916F915F914F913F912F910F900FBED7
:100D40000F901F901895833081F028F4813099F02E
:100D50008230A1F008958730A9F08830B9F084304E
:100D6000D1F4809180008F7D03C0809180008F77C7
:100D700080938000089584B58F7702C084B58F7DFD
:100D800084BD08958091B0008F7703C08091B0003A
:100D90008F7D8093B000089540E0682F8FE393E04B
:100DA0000C94050681E00E94CC068BE39FE101973D
:100DB000F1F70895843008F083E090915203891789
:100DC00010F08FEF890FE82FF0E0E15CFC4F848991
:100DD00080680C94CC06CF92DF92EF92FF920F9333
:100DE0001F93CF93DF936B01770FEE08FF08F7FE99
:100DF0001BC0EC016DE20E9408028C0144275527BC
:100E0000BA014C195D096E097F092AE0CE010E94E2
:100E10002402800F911FDF91CF911F910F91FF90BE
:100E2000EF90DF90CF9008952AE0B701A601DF91FF
:100E3000CF911F910F91FF90EF90DF90CF900C9486
:100E40002402CF93DF93AB01BC0122E082EA92E05F
:100E50000E946D02EC0160E072E082EA92E00E9482
:100E60000F028C0F9D1FDF91CF910895CF93DF93D9
:100E7000BC0182EA92E00E940F02EC0160E072E0A5
:100E800082EA92E00E940F028C0F9D1FDF91CF91AA
:100E90000895CF93DF93282F30E0F901E255FF4FFB
:100EA0008491F901E656FF4FD491F901EA57FF4FBB
:100EB000C491CC2391F081110E94A306EC2FF0E0A5
:100EC000EE0FFF1FE458FF4FA591B491EC91ED2375
:100ED00081E090E021F480E002C080E090E0DF91CA
:100EE000CF9108951F93CF93DF93282F30E0F9011E
:100EF000E255FF4F8491F901E656FF4FD491F90175
:100F0000EA57FF4FC491CC23C1F0162F81110E94E4
:100F1000A306EC2FF0E0EE0FFF1FEE58FF4FA59158
:100F2000B4919FB7F894111104C08C91D095D82337
:100F300002C0EC91DE2BDC939FBFDF91CF911F911C
:100F40000895CF93DF9390E0FC01E656FF4F249184
:100F5000FC01EA57FF4F8491882361F190E0880FEC
:100F6000991FFC01E859FF4FC591D491FC01EE583F
:100F7000FF4FA591B491611109C09FB7F894888182
:100F8000209582238883EC912E230BC0623061F47C
:100F90009FB7F8948881322F309583238883EC9112
:100FA0002E2B2C939FBF06C08FB7F894E8812E2B71
:100FB00028838FBFDF91CF910895CF93DF93623065
:100FC00028F090914E03986090934E0360935203E3
:100FD0001092530390E4909354038093550390E050
:100FE000805C9F4F8093560361E0809143030E9491
:100FF000A107809144038F3F19F061E00E94A1078F
:1010000061E0809145030E94A107CFE3D3E09E01F8
:101010002F53334080914E0384FD03C084E090E061
:1010200002C088E090E02196281739072CF461E08F
:101030008E810E94A107EBCF8BE39DE00197F1F732
:1010400060E0809143030E94720760E08091450355
:101050000E947207809144038F3F19F060E00E9464
:10106000720780914E0384FD20C063E08FE393E01C
:101070000E94D805CBE4D6E4CE010197F1F763E0F6
:101080008FE393E00E94D8052197F1F763E08FE3A7
:1010900093E00E94D80583E592E00197F1F762E0C2
:1010A0008FE393E00E94D80515C080620E94CC06B1
:1010B0008BE496E40197F1F780914E0380620E94E1
:1010C000CC0683E592E00197F1F780914E038062B0
:1010D0000E94CC0680914E0380620E94CC0684E080
:1010E00080934F038CE00E94CC060E94D20682E0DF
:1010F0008093500386E0DF91CF910C94CC061F9231
:101100000F920FB60F9211242F933F938F939F93BB
:10111000AF93BF9380915C0390915D03A0915E03B8
:10112000B0915F0330915B0323E0230F2D3720F450
:101130000196A11DB11D05C026E8230F0296A11D31
:10114000B11D20935B0380935C0390935D03A09398
:101150005E03B0935F038091570390915803A09171
:101160005903B0915A030196A11DB11D80935703F5
:1011700090935803A0935903B0935A03BF91AF9132
:101180009F918F913F912F910F900FBE0F901F90C5
:101190001895789484B5826084BD84B5816084BDDF
:1011A00085B5826085BD85B5816085BD80916E0005
:1011B000816080936E001092810080918100826036
:1011C0008093810080918100816080938100809173
:1011D00080008160809380008091B1008460809362
:1011E000B1008091B00081608093B00080917A005E
:1011F000846080937A0080917A00826080937A0084
:1012000080917A00816080937A0080917A00806872
:1012100080937A001092C100F8941092800010928E
:101220008100109285001092840088E09DE39093E5
:10123000890080938800809181008860809381007C
:101240008091810085608093810080916F00826031
:1012500080936F00789464E084E10E94DD07E09160
:10126000B202F091B30282E08083E091AE02F0918D
:10127000AF021082E091B002F091B1028FEC808356
:101280001092BA02E091B602F091B70286E0808334
:10129000E091B402F091B502808180618083E09199
:1012A000B402F091B502808188608083E091B4023D
:1012B000F091B502808180688083E091B402F09162
:1012C000B50280818F7D808360E08BE00E94720791
:1012D00060E08CE00E94720761E08BE00E94A10751
:1012E00061E08CE00E94A10761E08DE00E94A1070F
:1012F00081E192E00E9436070E944B0381E08093D7
:10130000000160E080E00E94A10760E081E00E94AF
:10131000A10735E0C32ED12CE12CF12C4CE3842E17
:10132000912CA12CB12C0E949C01A70196010E9436
:101330006C0D672B682B692B11F40E944B030E94E4
:10134000D20680E00E94DA0668EF71E08FE393E056
:101350000E94490380919C0290919D0284309105E6
:1013600040F4880F991FFC01EF5FFE4F608171818F
:1013700002C063E371E08FE393E00E944903809130
:101380009C0290919D028330910511F0892B29F5E3
:1013900062EA71E08FE393E00E94490340908E027D
:1013A00050908F0260909002709091020E949C0178
:1013B0006419750986099709A50194010E946C0DAD
:1013C000BA01A9012AE08FE393E00E9424026EE4AF
:1013D00071E08FE393E00E9449030E940F040E9492
:1013E0009C0140909E0250909F026090A0027090DD
:1013F000A102641575058605970589F381E090E0E3
:101400000E94C10420E030E040E752E40E94FA0C60
:101410002BED3AE84DED5EE30E949B0B2B013C0166
:10142000609396027093970280939802909399022A
:1014300080E090E00E94C10420E030E040EA50E407
:101440000E94FA0C2BED3AE84DED5EE30E949B0BF7
:1014500060938A0270938B0280938C0290938D022A
:1014600020E030E048EC52E40E94FA0C2CE53FE822
:101470004AEE50E40E949B0B0E940D0CEB0170930E
:101480009B0260939A0280919C0290919D02813010
:10149000910539F11CF4892B41F080C0823091050F
:1014A000D1F1039709F440C079C0C436D1051CF0CE
:1014B00082E090E00CC020E030E040EA51E4C3015B
:1014C000B2010E94960B87FF09C081E090E00E9464
:1014D000250590939D0280939C0263C00E94E401C5
:1014E00060C00E94C00140909202509093026090B0
:1014F0009402709095020E949C01DC01CB0184193A
:101500009509A609B709CE97A105B10508F449C008
:1015100080E090E0DCCFCA35D1051CF483E090E098
:10152000D6CF0E94C0013DC020E030E040EA51E447
:10153000C301B2010E94960B87FF03C08FE292E0C5
:1015400005C0C035D10524F48EE392E00E948D04DD
:10155000C436D1054CF082E090E00E9425059093BE
:101560009D0280939C0202C00E94E40140908E0282
:1015700050908F0260909002709091020E949C01A6
:10158000DC01CB0184199509A609B7098B359105B2
:10159000A105B10530F08DE492E0D8CF8BE592E063
:1015A000D5CF0E949C0160939E0270939F0280930E
:1015B000A0029093A1020E948E01B5CEE2EAF2E071
:1015C0001382128288EE93E0A0E0B0E084839583DA
:1015D000A683B7838DE091E09183808385EC90E0D2
:1015E0009587848784EC90E09787868780EC90E0ED
:1015F000918B808B81EC90E0938B828B82EC90E0DE
:10160000958B848B86EC90E0978B868B118E128E57
:10161000138E148EEFE3F3E0138212828FE191E0D8
:10162000918380838AE084838FEF858389E086833A
:1016300086E0878385E0808784E0818783E08287F6
:101640001386148615861686178661E080E10C9451
:10165000DD075058BB27AA270E94410B0C94BB0CF6
:101660000E94AD0C38F00E94B40C20F039F49F3F7A
:1016700019F426F40C94AA0C0EF4E095E7FB0C94F4
:10168000A40CE92F0E94CC0C58F3BA176207730719
:101690008407950720F079F4A6F50C94EE0C0EF46F
:1016A000E0950B2EBA2FA02D0B01B90190010C0172
:1016B000CA01A0011124FF27591B99F0593F50F48A
:1016C000503E68F11A16F040A22F232F342F4427E2
:1016D000585FF3CF469537952795A795F0405395DA
:1016E000C9F77EF41F16BA0B620B730B840BBAF0AA
:1016F0009150A1F0FF0FBB1F661F771F881FC2F715
:101700000EC0BA0F621F731F841F48F48795779528
:101710006795B795F7959E3F08F0B0CF9395880FE2
:1017200008F09927EE0F9795879508950E94800CF1
:1017300008F481E008950E94AF0B0C94BB0C0E944A
:10174000B40C58F00E94AD0C40F029F45F3F29F032
:101750000C94A40C51110C94EF0C0C94AA0C0E9444
:10176000CC0C68F39923B1F3552391F3951B550BDA
:10177000BB27AA2762177307840738F09F5F5F4F64
:10178000220F331F441FAA1FA9F335D00E2E3AF0A3
:10179000E0E832D091505040E695001CCAF72BD0BB
:1017A000FE2F29D0660F771F881FBB1F261737070C
:1017B0004807AB07B0E809F0BB0B802DBF01FF273E
:1017C00093585F4F3AF09E3F510578F00C94A40C6B
:1017D0000C94EF0C5F3FE4F3983ED4F38695779535
:1017E0006795B795F7959F5FC9F7880F911D9695F7
:1017F000879597F90895E1E0660F771F881FBB1F53
:10180000621773078407BA0720F0621B730B840BFF
:10181000BA0BEE1F88F7E09508950E94140C6894A7
:10182000B1110C94EF0C08950E94D40C88F09F57CE
:1018300098F0B92F9927B751B0F0E1F0660F771FF4
:10184000881F991F1AF0BA95C9F714C0B13091F0EA
:101850000E94EE0CB1E008950C94EE0C672F782FE7
:101860008827B85F39F0B93FCCF3869577956795AF
:10187000B395D9F73EF490958095709561957F4F1B
:101880008F4F9F4F0895E89409C097FB3EF49095C1
:101890008095709561957F4F8F4F9F4F9923A9F049
:1018A000F92F96E9BB279395F695879577956795D8
:1018B000B795F111F8CFFAF4BB0F11F460FF1BC01C
:1018C0006F5F7F4F8F4F9F4F16C0882311F096E9AF
:1018D00011C0772321F09EE8872F762F05C066235D
:1018E00071F096E8862F70E060E02AF09A95660F16
:1018F000771F881FDAF7880F9695879597F90895CF
:10190000990F0008550FAA0BE0E8FEEF1616170610
:10191000E807F907C0F012161306E407F50798F078
:10192000621B730B840B950B39F40A2661F0232B91
:10193000242B252B21F408950A2609F4A140A6950D
:101940008FEF811D811D089597F99F6780E870E0F2
:1019500060E008959FEF80EC089500240A94161625
:10196000170618060906089500240A94121613068D
:10197000140605060895092E0394000C11F488231B
:1019800052F0BB0F40F4BF2B11F460FF04C06F5F37
:101990007F4F8F4F9F4F089557FD9058440F551F0D
:1019A00059F05F3F71F04795880F97FB991F61F0E1
:1019B0009F3F79F087950895121613061406551F58
:1019C000F2CF4695F1DF08C0161617061806991FC4
:1019D000F1CF86957105610508940895E894BB27B9
:1019E00066277727CB0197F908950E94800C08F4A9
:1019F0008FEF08950E940D0D0C94BB0C0E94AD0C4E
:101A000038F00E94B40C20F0952311F00C94A40C33
:101A10000C94AA0C11240C94EF0C0E94CC0C70F3C3
:101A2000959FC1F3950F50E0551F629FF001729F83
:101A3000BB27F00DB11D639FAA27F00DB11DAA1F92
:101A4000649F6627B00DA11D661F829F2227B00DDF
:101A5000A11D621F739FB00DA11D621F839FA00D6A
:101A6000611D221F749F3327A00D611D231F849FBA
:101A7000600D211D822F762F6A2F11249F57504011
:101A80009AF0F1F088234AF0EE0FFF1FBB1F661F8C
:101A9000771F881F91505040A9F79E3F510580F055
:101AA0000C94A40C0C94EF0C5F3FE4F3983ED4F339
:101AB000869577956795B795F795E7959F5FC1F7F9
:101AC000FE2B880F911D9695879597F908950E9492
:101AD000800C880B990B0895A1E21A2EAA1BBB1B40
:101AE000FD010DC0AA1FBB1FEE1FFF1FA217B307EA
:101AF000E407F50720F0A21BB30BE40BF50B661F00
:101B0000771F881F991F1A9469F7609570958095C3
:101B100090959B01AC01BD01CF010895052E97FB67
:101B20001EF400940E94A50D57FD07D00E946C0D75
:101B300007FC03D04EF40C94A50D509540953095BC
:101B400021953F4F4F4F5F4F089590958095709529
:101B500061957F4F8F4F9F4F0895EE0FFF1F0590A8
:101B6000F491E02D099481E090E0F8940C94B80D84
:041B7000F894FFCF17
:101B74000165026A026F027402000000001F018CFA
:101B840000B6006C01E700C500D900000000005851
:101B9400068C00990198016E616E00696E66006F93
:101BA400766600556E6B6E6F776E005469636B7367
:101BB4003A2000207365636F6E64732E20006D6994
:101BC4006E0054616E6B3A200027202800252900FE
:101BD40057656C6C3A200057656C6C2040206C6132
:101BE40073742070756D70207475726E206F6E3A08
:101BF400200057656C6C2040206C617374207075F4
:101C04006D70207475726E206F66663A200027200E
:101C14002020200057656C6C404F6E3A200027202E
:101C24000057656C6C404F66663A20002700466199
:101C3400756C7420402000207365636F6E6473219B
:101C44002121212121212121212121210053656EDE
:101C5400736F72204C6F770053656E736F722048F8
:101C6400696768004E65772053746174653A200093
:101C74000D0A005261706964204379636C696E6770
:101C84000057656C6C2050756D7020436F6E7472D4
:101C94006F6C6C65722056657220322E330A004CCC
:101CA4006F772057656C6C204C6576656C004C6FC3
:101CB400772054616E6B204C6576656C0050756DB1
:101CC40070204C6F6E672052756E00426164205321
:101CD400746174650046696C6C0046696C6C2057CD
:0A1CE4006169740050756D70000016
:00000001FF
