:100000000C945D000C9485000C9485000C94850084
:100010000C9485000C9485000C9485000C9485004C
:100020000C9485000C9485000C9485000C94990721
:100030000C9485000C9485000C9485000C9485002C
:100040000C94F7060C9485000C9467070C944107F8
:100050000C9485000C9485000C9485000C9485000C
:100060000C9485000C9485000000000024002700FB
:100070002A0000000000250028002B0004040404CE
:100080000404040402020202020203030303030342
:10009000010204081020408001020408102001021F
:1000A00004081020000000080002010000030407FB
:1000B0000000000000000000DE0711241FBECFEF8B
:1000C000D8E0DEBFCDBF12E0A0E0B1E0E6E4F9E1A8
:1000D00002C005900D92AC37B107D9F723E0ACE729
:1000E000B2E001C01D92AA35B207E1F710E0CDE5FC
:1000F000D0E004C02197FE010E94960CCC35D107B8
:10010000C9F70E9429080C94A10C0C94000090E0FF
:10011000FC01EC55FF4F2491FC01E057FF4F349157
:10012000FC01E458FF4FE491EE2309F43CC0222384
:1001300039F1233091F038F42130A9F0223001F563
:1001400084B58F7D12C0273091F02830A1F0243083
:10015000B9F4809180008F7D03C0809180008F77FB
:10016000809380000DC084B58F7784BD09C08091D5
:10017000B0008F7703C08091B0008F7D8093B00076
:10018000F0E0EE0FFF1FEE58FF4FA591B4919FB71F
:10019000F894611104C08C913095382302C0EC9121
:1001A0003E2B3C939FBF0895CF93DF9390E0FC01DB
:1001B000E057FF4F2491FC01E458FF4F84918823BE
:1001C00061F190E0880F991FFC01E859FF4FC5913C
:1001D000D491FC01EE58FF4FA591B491611109C073
:1001E0009FB7F8948881209582238883EC912E23F1
:1001F0000BC0623061F49FB7F8948881322F30953C
:1002000083238883EC912E2B2C939FBF06C08FB73E
:10021000F894E8812E2B28838FBFDF91CF9108952A
:10022000DC01ED91FC910190F081E02D0994CF92D9
:10023000DF92EF92FF920F931F93CF93DF936C01A6
:100240007A018B01C0E0D0E0CE15DF0581F0D80146
:100250006D918D01D601ED91FC910190F081E02D21
:10026000C6010995892B11F02196EECF7E01C701B9
:10027000DF91CF911F910F91FF90EF90DF90CF9082
:100280000895FC01538D448D252F30E0842F90E09C
:10029000821B930B541710F0CF9608950197089581
:1002A000FC01918D828D981761F0828DDF01A80F7E
:1002B000B11D5D968C91928D9F5F9F73928F90E0A0
:1002C00008958FEF9FEF0895FC01918D828D98170F
:1002D00031F0828DE80FF11D858D90E008958FEF4C
:1002E0009FEF0895FC01918D228D892F90E0805C15
:1002F0009F4F821B91098F739927089585EA92E099
:100300000E94720121E0892B09F420E0822F0895D8
:10031000FC01848DDF01A80FB11DA35ABF4F2C91A2
:10032000848D90E001968F739927848FA689B78971
:100330002C93A089B1898C91837080648C93938D68
:10034000848D981306C00288F389E02D80818F7D0B
:1003500080830895EF92FF920F931F93CF93DF93C3
:10036000EC0181E0888F9B8D8C8D981305C0E88906
:10037000F989808185FD26C0F62E0B8D10E00F5F78
:100380001F4F0F731127E02E8C8DE8120CC00FB693
:1003900007FCFACFE889F989808185FFF5CFCE0186
:1003A0000E948801F1CF8B8DFE01E80FF11DE35A09
:1003B000FF4FF0829FB7F8940B8FEA89FB89808109
:1003C00080620AC09FB7F894EE89FF896083E8894C
:1003D000F98980818370806480839FBF81E090E091
:1003E000DF91CF911F910F91FF90EF900895CF93E0
:1003F000DF93EC01888D8823C9F0EA89FB8980812D
:1004000085FD05C0A889B9898C9186FD0FC00FB6FE
:1004100007FCF5CF808185FFF2CFA889B9898C913F
:1004200085FFEDCFCE010E948801E7CFDF91CF910C
:10043000089580E090E0892B29F00E947E018111CF
:100440000C9400000895CF93DF93EC0160E08E815F
:100450000E94870061E08E810E94870060E08E81AB
:100460000E9487008BE891E00197F1F7DF91CF912F
:100470000895CF92DF92EF92FF920F931F93CF9345
:10048000DF936C017C0187E0E80EF11CC0E0D0E056
:10049000062F10E0B8010C2E02C0759567950A94DE
:1004A000E2F76170F70181917F010E948700219638
:1004B000C430D10579F7C601DF91CF911F910F911B
:1004C000FF90EF90DF90CF900C942302CF92DF92B9
:1004D000EF92FF920F931F93CF93DF93EC01F62ED1
:1004E000642F8C810E9487008D818F3F19F060E01E
:1004F0000E9487008F850F2D10E084FF25C06E01BC
:1005000087E0C80ED11CE12CF12CB8010E2C02C0E2
:10051000759567950A94E2F76170F60181916F0114
:100520000E948700FFEFEF1AFF0A88E0E816F10447
:1005300061F7CE01DF91CF911F910F91FF90EF9066
:10054000DF90CF900C942302B80184E075956795F5
:100550008A95E1F7CE010E9439026F2DCE01DF911D
:10056000CF911F910F91FF90EF90DF90CF900C945F
:10057000390240E0682F82E493E00C94660281E047
:100580000E94B9028BE39FE10197F1F70895CF93A1
:10059000DF93623028F0909151039860909351035B
:1005A000609355031092560390E490935703809301
:1005B000580390E0805C9F4F8093590361E08091E5
:1005C00046030E94D400809147038F3F19F061E0F9
:1005D0000E94D40061E0809148030E94D400C2E4EC
:1005E000D3E09E01225433408091510384FD03C027
:1005F00084E090E002C088E090E021962817390757
:100600002CF461E08E810E94D400EBCF8BE39DE05F
:100610000197F1F760E0809146030E94870060E057
:10062000809148030E948700809147038F3F19F013
:1006300060E00E9487008091510384FD20C063E048
:1006400082E493E00E943902CBE4D6E4CE01019724
:10065000F1F763E082E493E00E9439022197F1F719
:1006600063E082E493E00E94390283E592E001971F
:10067000F1F762E082E493E00E94390215C08062E3
:100680000E94B9028BE496E40197F1F7809151033F
:1006900080620E94B90283E592E00197F1F78091B0
:1006A000510380620E94B9028091510380620E94CE
:1006B000B90284E0809352038CE00E94B9020E9448
:1006C000BF0282E08093530386E0DF91CF910C94C8
:1006D000B902843008F083E090915503891710F037
:1006E0008FEF890FE82FF0E0EE5BFC4F8489806884
:1006F0000C94B90241E00E94660281E090E0089506
:10070000089580E090E008952FB7F89460917C02FE
:1007100070917D0280917E0290917F022FBF08959B
:100720000E949C0C6115710579F0FB01019000207D
:10073000E9F73197AF01461B570BDC01ED91FC91B6
:100740000280F381E02D099480E090E00895CF933A
:10075000DF93BC0185EA92E00E949203EC0167E21C
:1007600071E085EA92E00E9492038C0F9D1FDF9159
:10077000CF9108958F929F92AF92BF92EF92FF9286
:100780000F931F93CF93DF93CDB7DEB7A1970FB62B
:10079000F894DEBF0FBECDBF7C01FA01CB0119A2D8
:1007A000223008F42AE08E010F5D1F4F822E912C1B
:1007B000A12CB12CBF01A50194010E94550CF90197
:1007C000CA01015011096A3014F4605D01C0695C0E
:1007D000D8016C93232B242B252B61F7B801C7017B
:1007E0000E949203A1960FB6F894DEBF0FBECDBF54
:1007F000DF91CF911F910F91FF90EF90BF90AF903D
:100800009F908F9008957F928F929F92AF92BF9208
:10081000CF92DF92EF92FF920F931F93CF93DF93CC
:100820008C016A017B01722E9A01AB01C701B601EE
:100830000E94500C882319F06AE271E027C046013B
:100840005701E894B7F82FEF3FEF4FE75FE7C50197
:10085000B4010E94500C81110DC02FEF3FEF4FE704
:100860005FE7C501B4010E947F0A18161CF46EE20E
:1008700071E00CC02FEF3FEF4FE75FE4C701B60117
:100880000E94DE0B181694F462E371E0C801DF9158
:10089000CF911F910F91FF90EF90DF90CF90BF907D
:1008A000AF909F908F907F900C9492032FEF3FEF2B
:1008B0004FE75FECC701B6010E947F0A87FDE4CFD6
:1008C00020E030E0A901C701B6010E947F0A87FF3E
:1008D0000AC06DE2C8010E941001EC01F7FAF09421
:1008E000F7F8F09402C0C0E0D0E0B12C60E070E016
:1008F00080E09FE37B1441F020E030E040E251E4EF
:100900000E94840AB394F6CFA70196010E94130AAD
:100910006B017C010E94FD0A4B015C012AE0AB01E6
:10092000BC01C8010E94BA03C80FD91F7720C1F1CA
:10093000C501B4010E942C0B9B01AC01C701B6019B
:100940000E94120A6B017C016EE2C8010E94100134
:10095000C80FD91F20E030E040E251E4C701B601E2
:100960000E94E30B4B015C010E94FD0A6B01E12C2C
:10097000F12C2AE0B701A601C8010E94BA03C80FF2
:10098000D91FC701B6010E942C0B9B01AC01C50108
:10099000B4010E94120A6B017C017A947110DACFC3
:1009A000CE01DF91CF911F910F91FF90EF90DF90DB
:1009B000CF90BF90AF909F908F907F900895CF93EE
:1009C000DF93AB01BC0122E085EA92E00E940304C0
:1009D000EC0167E271E085EA92E00E9492038C0FDD
:1009E0009D1FDF91CF9108950C9492036EE371E007
:1009F00085EA92E00E94F4040E948403AB01BC01EA
:100A00002AE085EA92E00E94BA0386E491E00E941F
:100A1000A70361E571E085EA92E00E94F404809109
:100A20009602909197028430910540F4880F991FA7
:100A3000FC01EF5FFE4F8081918102C086E391E06F
:100A40000E94A70361E671E085EA92E00E94F40447
:100A50006091800270918102809182029091830264
:100A60000E94DF0468E671E085EA92E00E94F404E7
:100A70006091900270919102809192029091930204
:100A80000E94DF046FE671E085EA92E00E94F404C0
:100A90006091840270918502809186029091870214
:100AA0000E94DF046AE871E085EA92E00E94F404A3
:100AB00060918C0270918D0280918E0290918F02D4
:100AC0000E94DF0485EA92E00C94F701CF92DF9256
:100AD000EF92FF9281E00E94690368E671E082E490
:100AE00093E00E94F4044091900250919102609131
:100AF00092027091930222E082E493E00E94030448
:100B000066EA71E082E493E00E94F40482E00E94CD
:100B1000690361E671E082E493E00E94F40440918D
:100B2000800250918102609182027091830222E0E2
:100B300082E493E00E9403046CEA71E082E493E0B3
:100B40000E94F404C0909402D09095020D2C000CE9
:100B5000EE08FF08F7FE0EC06DE282E493E00E940B
:100B6000100144275527BA014C195D096E097F0908
:100B70002AE003C02AE0B701A60182E493E00E94C4
:100B8000BA0360EB71E082E493E00E94F4040E94F7
:100B9000840383E060FF18C00E94690363EB71E087
:100BA00082E493E00E94F404409184025091850213
:100BB000609186027091870222E082E493E00E94B5
:100BC00003046DEB71E017C00E94690360EC71E0F3
:100BD00082E493E00E94F40440918C0250918D02D3
:100BE00060918E0270918F0222E082E493E00E9475
:100BF00003046BEC71E082E493E0FF90EF90DF90F0
:100C0000CF900C94F404EC0160E08BE00E9487002C
:100C100061E08CE00E9487006DEC71E085EA92E073
:100C20000E94F4040E948403AB01BC012AE085EA1F
:100C300092E00E94BA0366E471E085EA92E00E94C5
:100C4000F404CE010E94A7030E94F6040E94BF0292
:100C500080E00E946903BE0182E493E00E94F404F4
:100C60000E946605FFCFCF92DF92EF92FF9292EF44
:100C7000980F8E3008F0892FA82FA770E0EAF0E0D7
:100C800060E070E0CB012091000140E4249F9001DE
:100C900011242A2B20937C0020917A002064209339
:100CA0007A0020917A0026FDFCCF409178002091B7
:100CB000790050E0522B6A01550FEE08FF086C0DC9
:100CC0007D1D8E1D9F1D3197F1F620EA30E040E03A
:100CD00050E00E94770C243A31051CF486ED91E037
:100CE00006C0293E63E0360724F081EE91E00E94C1
:100CF0000306263D83E0380714F025ED33E0B90103
:100D0000625C710977FF02C060E070E0072E000CA2
:100D1000880B990B0E942E0B20E030EC44E454E445
:100D20000E94840AFF90EF90DF90CF900895CF92B9
:100D3000DF92EF92FF92CF93DF93EC016DEE71E0C3
:100D400085EA92E00E94F4046E010D2E000CEE087C
:100D5000FF08F7FE0EC06DE285EA92E00E941001E6
:100D600044275527BA014C195D096E097F092AE00D
:100D700003C02AE0B701A60185EA92E00E94BA0307
:100D800067E271E085EA92E00E9492030E94F60415
:100D9000C0908802D0908902E0908A02F0908B0285
:100DA000C114D104E104F10481F00E948403DC0148
:100DB000CB018C199D09AE09BF09CC97A105B105DE
:100DC00020F489EF91E00E9403060E94840360935F
:100DD00088027093890280938A0290938B02CE01DD
:100DE000DF91CF91FF90EF90DF90CF9008951F9209
:100DF0000F920FB60F9211242F933F938F939F93CF
:100E0000AF93BF938091A1029091A202A091A302FF
:100E1000B091A4023091A00223E0230F2D3720F4DB
:100E20000196A11DB11D05C026E8230F0296A11D44
:100E3000B11D2093A0028093A1029093A202A093DF
:100E4000A302B093A40280919C0290919D02A09174
:100E50009E02B0919F020196A11DB11D80939C023C
:100E600090939D02A0939E02B0939F02BF91AF9179
:100E70009F918F913F912F910F900FBE0F901F90D8
:100E800018951F920F920FB60F9211242F933F9334
:100E90004F935F936F937F938F939F93AF93BF9382
:100EA000EF93FF9385EA92E00E948801FF91EF9112
:100EB000BF91AF919F918F917F916F915F914F9172
:100EC0003F912F910F900FBE0F901F9018951F927A
:100ED0000F920FB60F9211242F938F939F93EF933E
:100EE000FF93E091B502F091B6028081E091BB02E0
:100EF000F091BC0282FD12C090818091BE028F5F92
:100F00008F732091BF02821751F0E091BE02F0E092
:100F1000EB55FD4F958F8093BE0201C08081FF91FC
:100F2000EF919F918F912F910F900FBE0F901F9077
:100F300018951F920F920FB60F9211242F933F9383
:100F40004F935F936F937F938F939F93AF93BF93D1
:100F5000EF93FF9380917C0290917D02A0917E029D
:100F6000B0917F020196A11DB11D80937C029093E8
:100F70007D02A0937E02B0937F0280917C029091CB
:100F80007D02A0917E02B0917F0280FF02C061E0ED
:100F900001C060E08DE00E948700FF91EF91BF915A
:100FA000AF919F918F917F916F915F914F913F9101
:100FB0002F910F900FBE0F901F901895E5EAF2E069
:100FC0001382128288EE93E0A0E0B0E084839583E0
:100FD000A683B7838DE091E09183808385EC90E0D8
:100FE0009587848784EC90E09787868780EC90E0F3
:100FF000918B808B81EC90E0938B828B82EC90E0E4
:10100000958B848B86EC90E0978B868B118E128E5D
:10101000138E148EE2E4F3E0138212828FE191E0EA
:10102000918380838AE084838FEF858389E0868340
:1010300086E0878385E0808784E0818783E08287FC
:101040001386148615861686178661E080E10C9457
:10105000C702789484B5826084BD84B5816084BD04
:1010600085B5826085BD85B5816085BD80916E0046
:10107000816080936E001092810080918100826077
:1010800080938100809181008160809381008091B4
:1010900080008160809380008091B10084608093A3
:1010A000B1008091B00081608093B00080917A009F
:1010B000846080937A0080917A00826080937A00C5
:1010C00080917A00816080937A0080917A008068B4
:1010D00080937A001092C100F894109280001092D0
:1010E0008100109285001092840088E09DE3909327
:1010F00089008093880080918100886080938100BE
:101100008091810085608093810080916F00826072
:1011100080936F00789464E084E10E94C702E091BC
:10112000B502F091B60282E08083E091B102F091C5
:10113000B2021082E091B302F091B4028FEC80838E
:101140001092BD02E091B902F091BA0286E080836C
:10115000E091B702F091B802808180618083E091D4
:10116000B702F091B802808188608083E091B70275
:10117000F091B802808180688083E091B702F0919D
:10118000B80280818F7D808360E08BE00E948700C1
:1011900060E08CE00E94870061E08BE00E94D40058
:1011A00061E08CE00E94D40061E08DE00E94D400F8
:1011B00087E092E00E94A7030E94F60481E08093FA
:1011C000000160E080E00E94D40060E081E00E94C5
:1011D000D40035E0832E912CA12CB12C0E948403E5
:1011E000A50194010E94550C672B682B692B11F403
:1011F0000E94F6040E94BF0280E00E94690369E534
:1012000071E082E493E00E94F40480919602909150
:1012100097028430910540F4880F991FFC01EF5F1D
:10122000FE4F6081718102C066E371E082E493E069
:101230000E94F4040E9466050E94840300919802B3
:101240001091990220919A0230919B0260177107C8
:101250008207930789F381E090E00E94330620E043
:1012600030E040E752E40E94E30B2BED3AE84DED0D
:101270005EE30E94840A6B017C016093900270938C
:101280009102809392029093930280E090E00E94FA
:10129000330620E030E040EA50E40E94E30B2BEDFF
:1012A0003AE84DED5EE30E94840A609380027093F9
:1012B0008102809382029093830220E030E048EC28
:1012C00052E40E94E30B2CE53FE84AEE50E40E9412
:1012D000840A0E94F60AEB017093950260939402CF
:1012E00080919602909197028130910511F11CF442
:1012F000892B41F087C082309105C1F1039709F431
:1013000043C080C0C436D1050CF06BC020E030E093
:1013100040EA51E4C701B6010E947F0A87FF07C077
:1013200081E090E068C0C436D1050CF05AC061E09D
:1013300019C00E94840300918802109189022091B3
:101340008A0230918B02DC01CB01801B910BA20B36
:10135000B30B81319E40A105B10518F080E090E00B
:101360004AC060E08BE00E9487004FC0CA35D105BB
:10137000C4F7C0928402D0928502E0928602F09275
:10138000870283E090E037C020E030E040EA51E49B
:10139000C701B6010E947F0A87FF03C085E292E081
:1013A00005C0C035D10524F484E392E00E94030611
:1013B0000E948403009188021091890220918A0280
:1013C00030918B02DC01CB01801B910BA20BB30B84
:1013D00081369445A105B10508F4A5CF83E492E0D8
:1013E000E5CFC0928C02D0928D02E0928E02F092F4
:1013F0008F0282E090E00E9497069093970280937C
:10140000960203C081E592E0D1CF0E9484036093ED
:1014100098027093990280939A0290939B020E9483
:101420001902DCCE5058BB27AA270E942A0A0C9426
:10143000A40B0E94960B38F00E949D0B20F039F40B
:101440009F3F19F426F40C94930B0EF4E095E7FB00
:101450000C948D0BE92F0E94B50B58F3BA17620755
:1014600073078407950720F079F4A6F50C94D70B41
:101470000EF4E0950B2EBA2FA02D0B01B9019001AF
:101480000C01CA01A0011124FF27591B99F0593FF3
:1014900050F4503E68F11A16F040A22F232F342F3B
:1014A0004427585FF3CF469537952795A795F04089
:1014B0005395C9F77EF41F16BA0B620B730B840B9E
:1014C000BAF09150A1F0FF0FBB1F661F771F881F56
:1014D000C2F70EC0BA0F621F731F841F48F48795AE
:1014E00077956795B795F7959E3F08F0B0CF9395A0
:1014F000880F08F09927EE0F9795879508950E9419
:10150000690B08F481E008950E94980A0C94A40BDA
:101510000E949D0B58F00E94960B40F029F45F3F0B
:1015200029F00C948D0B51110C94D80B0C94930B47
:101530000E94B50B68F39923B1F3552391F3951BE2
:10154000550BBB27AA2762177307840738F09F5FE4
:101550005F4F220F331F441FAA1FA9F335D00E2E51
:101560003AF0E0E832D091505040E695001CCAF7BE
:101570002BD0FE2F29D0660F771F881FBB1F261781
:1015800037074807AB07B0E809F0BB0B802DBF0158
:10159000FF2793585F4F3AF09E3F510578F00C9427
:1015A0008D0B0C94D80B5F3FE4F3983ED4F38695F3
:1015B00077956795B795F7959F5FC9F7880F911D48
:1015C0009695879597F90895E1E0660F771F881F34
:1015D000BB1F621773078407BA0720F0621B730BE7
:1015E000840BBA0BEE1F88F7E09508950E94FD0A60
:1015F0006894B1110C94D80B08950E94BD0B88F02B
:101600009F5798F0B92F9927B751B0F0E1F0660FC6
:10161000771F881F991F1AF0BA95C9F714C0B13007
:1016200091F00E94D70BB1E008950C94D70B672F6F
:10163000782F8827B85F39F0B93FCCF38695779536
:101640006795B395D9F73EF490958095709561951F
:101650007F4F8F4F9F4F0895E89409C097FB3EF44A
:1016600090958095709561957F4F8F4F9F4F9923EF
:10167000A9F0F92F96E9BB279395F695879577956D
:101680006795B795F111F8CFFAF4BB0F11F460FF2D
:101690001BC06F5F7F4F8F4F9F4F16C0882311F085
:1016A00096E911C0772321F09EE8872F762F05C099
:1016B000662371F096E8862F70E060E02AF09A9534
:1016C000660F771F881FDAF7880F9695879597F929
:1016D0000895990F0008550FAA0BE0E8FEEF1616C3
:1016E0001706E807F907C0F012161306E407F50716
:1016F00098F0621B730B840B950B39F40A2661F08A
:10170000232B242B252B21F408950A2609F4A1402C
:10171000A6958FEF811D811D089597F99F6780E839
:1017200070E060E008959FEF80EC089500240A9433
:101730001616170618060906089500240A941216AC
:101740001306140605060895092E0394000C11F4DF
:10175000882352F0BB0F40F4BF2B11F460FF04C08C
:101760006F5F7F4F8F4F9F4F089557FD9058440FE5
:10177000551F59F05F3F71F04795880F97FB991FF0
:1017800061F09F3F79F087950895121613061406AD
:10179000551FF2CF4695F1DF08C01616170618063A
:1017A000991FF1CF86957105610508940895E89415
:1017B000BB2766277727CB0197F908950E94690B0D
:1017C00008F48FEF08950E94F60B0C94A40B0E946E
:1017D000960B38F00E949D0B20F0952311F00C948D
:1017E0008D0B0C94930B11240C94D80B0E94B50B09
:1017F00070F3959FC1F3950F50E0551F629FF00164
:10180000729FBB27F00DB11D639FAA27F00DB11D7C
:10181000AA1F649F6627B00DA11D661F829F222705
:10182000B00DA11D621F739FB00DA11D621F839F8C
:10183000A00D611D221F749F3327A00D611D231F62
:10184000849F600D211D822F762F6A2F11249F57B0
:1018500050409AF0F1F088234AF0EE0FFF1FBB1FB3
:10186000661F771F881F91505040A9F79E3F510572
:1018700080F00C948D0B0C94D80B5F3FE4F3983EF2
:10188000D4F3869577956795B795F795E7959F5F1C
:10189000C1F7FE2B880F911D9695879597F90895AE
:1018A0000E94690B880B990B0895A1E21A2EAA1BBE
:1018B000BB1BFD010DC0AA1FBB1FEE1FFF1FA21700
:1018C000B307E407F50720F0A21BB30BE40BF50BFD
:1018D000661F771F881F991F1A9469F76095709586
:1018E000809590959B01AC01BD01CF010895052E17
:1018F00097FB1EF400940E948E0C57FD07D00E94A7
:10190000550C07FC03D04EF40C948E0C509540956A
:10191000309521953F4F4F4F5F4F0895909580959B
:10192000709561957F4F8F4F9F4F0895EE0FFF1F6A
:101930000590F491E02D099481E090E0F8940C94E6
:06194000A10CF894FFCF9A
:10194600015B0264026E02760200000000AA011723
:10195600014101F701720150016401000000007AA3
:10196600031701810380030D0A006E616E00696E24
:1019760066006F766600556E6B6E6F776E00546903
:10198600636B733A2000207365636F6E64732E2059
:101996000043757272656E742053746174653A20E3
:1019A6000054616E6B3A200057656C6C3A20005704
:1019B600656C6C2040206C6173742070756D7020AE
:1019C6007475726E206F6E3A200057656C6C2040FD
:1019D600206C6173742070756D70207475726E2042
:1019E6006F66663A20002720202020002720280046
:1019F60025290057656C6C404F6E3A200027200061
:101A060057656C6C404F66663A2000270046617544
:101A16006C742040200053656E736F72204C6F7794
:101A26000053656E736F722048696768004E65776C
:101A36002053746174653A200052617069642043D2
:101A460079636C696E670057656C6C2050756D70B4
:101A560020436F6E74726F6C6C65722056657220CF
:101A6600322E330A004C6F772057656C6C204C651C
:101A760076656C004C6F772054616E6B204C6576F2
:101A8600656C0050756D70204C6F6E672052756ED8
:101A9600004261642053746174650046696C6C6C25
:101AA600696E670046696C6C2057616974005761FE
:0C1AB6006974696E670050756D70000067
:00000001FF
