:100000000C9462000C948A000C948A000C948A0070
:100010000C948A000C948A000C948A000C948A0038
:100020000C948A000C948A000C948A000C945D064F
:100030000C948A000C948A000C948A000C948A0018
:100040000C94A3080C948A000C94A5050C947F05CD
:100050000C948A000C948A000C948A000C948A00F8
:100060000C948A000C948A000000000024002700F1
:100070002A0000000000250028002B0000000000DE
:1000800023002600290004040404040404040202DA
:100090000202020203030303030301020408102007
:1000A0004080010204081020010204081020000012
:1000B0000008000201000003040700000000000027
:1000C00000003D0B11241FBECFEFD8E0DEBFCDBF37
:1000D00012E0A0E0B1E0E2E3FCE102C005900D9285
:1000E000A03AB107D9F723E0A0EAB2E001C01D921F
:1000F000A238B207E1F710E0C2E6D0E004C02197D1
:10010000FE010E940C0EC136D107C9F70E94ED080E
:100110000C94170E0C940000CF92DF92EF92FF9296
:100120000F931F93CF93DF936C017A018B01C0E093
:10013000D0E0CE15DF0581F0D8016D918D01D6019B
:10014000ED91FC910190F081E02DC6010995892B7C
:1001500011F02196EECF7E01C701DF91CF911F9163
:100160000F91FF90EF90DF90CF900895FC01538D99
:10017000448D252F30E0842F90E0821B930B541781
:1001800010F0CF96089501970895FC01918D828D0E
:10019000981761F0828DDF01A80FB11D5D968C91DB
:1001A000928D9F5F9F73928F90E008958FEF9FEFE6
:1001B0000895FC01918D828D981731F0828DE80FA2
:1001C000F11D858D90E008958FEF9FEF0895FC015C
:1001D000918D228D892F90E0805C9F4F821B910929
:1001E0008F739927089584EC92E00E94E70021E044
:1001F000892B09F420E0822F0895FC01848DDF0112
:10020000A80FB11DA35ABF4F2C91848D90E0019689
:100210008F739927848FA689B7892C93A089B18978
:100220008C91837080648C93938D848D981306C019
:100230000288F389E02D80818F7D80830895EF927D
:10024000FF920F931F93CF93DF93EC0181E0888F90
:100250009B8D8C8D981305C0E889F989808185FD77
:1002600026C0F62E0B8D10E00F5F1F4F0F73112766
:10027000E02E8C8DE8120CC00FB607FCFACFE8898F
:10028000F989808185FFF5CFCE010E94FD00F1CF75
:100290008B8DFE01E80FF11DE35AFF4FF0829FB7EF
:1002A000F8940B8FEA89FB89808180620AC09FB72E
:1002B000F894EE89FF896083E889F98980818370E9
:1002C000806480839FBF81E090E0DF91CF911F9198
:1002D0000F91FF90EF900895CF93DF93EC01888DFD
:1002E0008823C9F0EA89FB89808185FD05C0A8893A
:1002F000B9898C9186FD0FC00FB607FCF5CF8081C0
:1003000085FFF2CFA889B9898C9185FFEDCFCE0109
:100310000E94FD00E7CFDF91CF91089580E090E04B
:10032000892B29F00E94F30081110C94000008959C
:10033000089580E090E008952FB7F8946091A802A6
:100340007091A9028091AA029091AB022FBF0895EB
:10035000CF93DF93EC0160E08E810E94710761E032
:100360008E810E94710760E08E810E9471078BE888
:1003700091E00197F1F7DF91CF9108950E94120E5D
:10038000DC01ED91FC910190F081E02D0994611563
:10039000710579F0FB0101900020E9F73197AF0179
:1003A000461B570BDC01ED91FC910280F381E02D9F
:1003B000099480E090E008958F929F92AF92BF924F
:1003C000EF92FF920F931F93CF93DF93CDB7DEB7DA
:1003D000A1970FB6F894DEBF0FBECDBF7C01FA0126
:1003E000CB0119A2223008F42AE08E010F5D1F4FC5
:1003F000822E912CA12CB12CBF01A50194010E9449
:10040000CB0DF901CA01015011096A3014F4605D85
:1004100001C0695CD8016C93232B242B252B61F739
:10042000B801C7010E94C701A1960FB6F894DEBFBC
:100430000FBECDBFDF91CF911F910F91FF90EF9035
:10044000BF90AF909F908F9008957F928F929F92D0
:10045000AF92BF92CF92DF92EF92FF920F931F93D2
:10046000CF93DF938C016A017B01722E9A01AB015D
:10047000C701B6010E94C60D882319F067E271E03A
:1004800027C046015701E894B7F82FEF3FEF4FE739
:100490005FE7C501B4010E94C60D81110DC02FEFA9
:1004A0003FEF4FE75FE7C501B4010E94F50B181657
:1004B0001CF46BE271E00CC02FEF3FEF4FE75FE4FD
:1004C000C701B6010E94540D181694F46FE271E052
:1004D000C801DF91CF911F910F91FF90EF90DF90B6
:1004E000CF90BF90AF909F908F907F900C94C7015A
:1004F0002FEF3FEF4FE75FECC701B6010E94F50B0E
:1005000087FDE4CF20E030E0A901C701B6010E94D9
:10051000F50B87FF0AC06DE2C8010E94C001EC0123
:10052000F7FAF094F7F8F09402C0C0E0D0E0B12CF4
:1005300060E070E080E09FE37B1441F020E030E079
:1005400040E251E40E94FA0BB394F6CFA701960162
:100550000E94890B6B017C010E94730C4B015C01B2
:100560002AE0AB01BC01C8010E94DC01C80FD91F01
:100570007720C1F1C501B4010E94A20C9B01AC011E
:10058000C701B6010E94880B6B017C016EE2C801B5
:100590000E94C001C80FD91F20E030E040E251E4C2
:1005A000C701B6010E94590D4B015C010E94730CFA
:1005B0006B01E12CF12C2AE0B701A601C8010E94D1
:1005C000DC01C80FD91FC701B6010E94A20C9B0114
:1005D000AC01C501B4010E94880B6B017C017A94C7
:1005E0007110DACFCE01DF91CF911F910F91FF9063
:1005F000EF90DF90CF90BF90AF909F908F907F90C3
:1006000008950C94C701CF92DF92EF92FF9282E39C
:1006100092E00E9420076BE371E084EC92E00E947C
:1006200001030E949C01AB01BC012AE084EC92E032
:100630000E94DC0183E491E00E94200763EA71E0FC
:1006400084EC92E00E9401038091BE029091BF026F
:100650008430910540F4880F991FFC01EF5FFE4F35
:100660006081718102C063E371E084EC92E00E94DA
:1006700001038091BE029091BF028330910511F079
:10068000892B21F56FEA71E084EC92E00E9401036E
:10069000C090B002D090B102E090B202F090B302EC
:1006A0000E949C016C197D098E099F092CE330E0A2
:1006B00040E050E00E94CB0DBA01A9012AE084EC91
:1006C00092E00E94DC018EE491E002C082E392E0BD
:1006D0000E94200762E571E084EC92E00E94010331
:1006E0004091AC025091AD026091AE027091AF02A8
:1006F00022E084EC92E00E94250269E571E084EC3E
:1007000092E00E9401036091BC027091BD0284ECF2
:1007100092E00E94EA068DE591E00E94200760E6E3
:1007200071E084EC92E00E9401036091B802709144
:10073000B9028091BA029091BB020E94330767E62A
:1007400071E084EC92E00E9401036091A00270913C
:10075000A1028091A2029091A3020E94330762E855
:1007600071E084EC92E00E9401036091A402709118
:10077000A5028091A6029091A7020E94330784EC03
:1007800092E0FF90EF90DF90CF900C946C01CF93AC
:10079000DF93EC010E9403036EE971E084EC92E0C8
:1007A0000E940103C430D10540F4FE01EE0FFF1F8B
:1007B000EF5FFE4F8081918102C083E391E00E9450
:1007C0002007CE01DF91CF91089581E00E94D906E4
:1007D00060E671E081E693E00E9401034091B80277
:1007E0005091B9026091BA027091BB0222E081E699
:1007F00093E00E9425026BEA71E081E693E00E949B
:10080000010382E00E94D90662E571E081E693E08F
:100810000E9401034091AC025091AD026091AE0282
:100820007091AF0222E081E693E00E94250269E523
:1008300071E081E693E00E9401036091BC02709137
:10084000BD0281E693E00E94EA066DE571E081E673
:1008500093E00E9401030E949C0183E060FF18C0A6
:100860000E94D90661EB71E081E693E00E940103EA
:100870004091A0025091A1026091A2027091A30246
:1008800022E081E693E00E9425026BEB71E017C045
:100890000E94D9066EEB71E081E693E00E940103AD
:1008A0004091A4025091A5026091A6027091A70206
:1008B00022E081E693E00E94250269EC71E081E686
:1008C00093E00C940103EC0160E08BE00E9471075F
:1008D00061E08CE00E94710782E392E00E942007B1
:1008E0006BEC71E084EC92E00E9401030E949C0199
:1008F000AB01BC012AE084EC92E00E94DC0164EDD3
:1009000071E084EC92E00E940103CE010E94200776
:100910008AEE91E00E9420070E9403030E94D10604
:1009200080E00E94D906BE0181E693E00E940103A7
:100930000E94E503FFCF0F931F938BE00E944807AF
:100940000197B1F58091B8029091B902A091BA02D5
:10095000B091BB028093A4029093A502A093A6023B
:10096000B093A7020E949C016093B4027093B502F9
:100970008093B6029093B7020091B0021091B10239
:100980002091B2023091B302DC01CB01801B910BAC
:10099000A20BB30BCC97A105B10520F48BE092E03C
:1009A0000E94630460E08BE01F910F910C9471072B
:1009B0001F910F9108950F931F938BE00E9448079A
:1009C000892BB1F58091B8029091B902A091BA0239
:1009D000B091BB028093A0029093A102A093A202C7
:1009E000B093A3020E949C016093B0027093B10285
:1009F0008093B2029093B3020091B4021091B502B9
:100A00002091B6023091B702DC01CB01801B910B23
:100A1000A20BB30BCC97A105B10520F48BE092E0BB
:100A20000E94630461E08BE01F910F910C947107A9
:100A30001F910F910895CF92DF92EF92FF9292EF64
:100A4000980F8E3008F0892FA82FA770E0EAF0E009
:100A500060E070E0CB012091000140E4249F900110
:100A600011242A2B20937C0020917A00206420936B
:100A70007A0020917A0026FDFCCF409178002091E9
:100A8000790050E0522B6A01550FEE08FF086C0DFB
:100A90007D1D8E1D9F1D3197F1F620EA30E040E06C
:100AA00050E00E94ED0D243A31051CF489E192E0FA
:100AB00006C0293E63E0360724F084E292E00E94FB
:100AC0006304263D83E0380714F025ED33E0B901D7
:100AD000625C710977FF02C060E070E0072E000CD5
:100AE000880B990B0E94A40C20E030EC44E454E401
:100AF0000E94FA0BFF90EF90DF90CF9008951F9225
:100B00000F920FB60F9211242F933F934F935F9341
:100B10006F937F938F939F93AF93BF93EF93FF93C5
:100B200084EC92E00E94FD00FF91EF91BF91AF91A4
:100B30009F918F917F916F915F914F913F912F91F5
:100B40000F900FBE0F901F9018951F920F920FB627
:100B50000F9211242F938F939F93EF93FF93E09124
:100B6000D402F091D5028081E091DA02F091DB02AB
:100B700082FD12C090818091DD028F5F8F73209182
:100B8000DE02821751F0E091DD02F0E0EC53FD4F00
:100B9000958F8093DD0201C08081FF91EF919F913D
:100BA0008F912F910F900FBE0F901F901895CF929D
:100BB000DF92EF92FF920F931F93CF93DF936C011D
:100BC0007C0187E0E80EF11CC0E0D0E0062F10E0C9
:100BD000B8010C2E02C0759567950A94E2F7617012
:100BE000F70181917F010E9471072196C430D105E0
:100BF00079F7C601DF91CF911F910F91FF90EF9090
:100C0000DF90CF900C94A801CF92DF92EF92FF92E9
:100C10000F931F93CF93DF93EC01F62E642F8C81FB
:100C20000E9471078D818F3F19F060E00E9471076B
:100C30008F850F2D10E084FF25C06E0187E0C80E60
:100C4000D11CE12CF12CB8010E2C02C075956795D2
:100C50000A94E2F76170F60181916F010E947107B9
:100C6000FFEFEF1AFF0A88E0E816F10461F7CE0102
:100C7000DF91CF911F910F91FF90EF90DF90CF9078
:100C80000C94A801B80184E0759567958A95E1F701
:100C9000CE010E94D7056F2DCE01DF91CF911F911C
:100CA0000F91FF90EF90DF90CF900C94D70541E02B
:100CB0000E94040681E090E008951F920F920FB603
:100CC0000F9211242F933F934F935F936F937F93D2
:100CD0008F939F93AF93BF93EF93FF938091A8025D
:100CE0009091A902A091AA02B091AB020196A11D18
:100CF000B11D8093A8029093A902A093AA02B09379
:100D0000AB028091A8029091A902A091AA02B09191
:100D1000AB0280FF02C061E001C060E08DE00E9494
:100D20007107FF91EF91BF91AF919F918F917F914B
:100D30006F915F914F913F912F910F900FBE0F9048
:100D40001F901895833081F028F4813099F082301B
:100D5000A1F008958730A9F08830B9F08430D1F43B
:100D6000809180008F7D03C0809180008F77809379
:100D70008000089584B58F7702C084B58F7D84BDCF
:100D800008958091B0008F7703C08091B0008F7D6F
:100D90008093B000089540E0682F81E693E00C94C2
:100DA000040681E00E94CB068BE39FE10197F1F7F7
:100DB0000895843008F083E090917403891710F04F
:100DC0008FEF890FE82FF0E0EF59FC4F848980689E
:100DD0000C94CB06CF92DF92EF92FF920F931F936A
:100DE000CF93DF936B01770FEE08FF08F7FE1BC070
:100DF000EC016DE20E94C0018C0144275527BA0125
:100E00004C195D096E097F092AE0CE010E94DC01C0
:100E1000800F911FDF91CF911F910F91FF90EF9065
:100E2000DF90CF9008952AE0B701A601DF91CF911E
:100E30001F910F91FF90EF90DF90CF900C94DC0109
:100E4000CF93DF93BC0184EC92E00E94C701EC01D8
:100E500060E372E084EC92E00E94C7018C0F9D1F5A
:100E6000DF91CF910895CF93DF93AB01BC0122E0D6
:100E700084EC92E00E942502EC0160E372E084ECD5
:100E800092E00E94C7018C0F9D1FDF91CF910895C2
:100E9000CF93DF93282F30E0F901E255FF4F849183
:100EA000F901E656FF4FD491F901EA57FF4FC4917B
:100EB000CC2391F081110E94A206EC2FF0E0EE0FFE
:100EC000FF1FE458FF4FA591B491EC91ED2381E011
:100ED00090E021F480E002C080E090E0DF91CF91CB
:100EE00008951F93CF93DF93282F30E0F901E25547
:100EF000FF4F8491F901E656FF4FD491F901EA576B
:100F0000FF4FC491CC23C1F0162F81110E94A2067D
:100F1000EC2FF0E0EE0FFF1FEE58FF4FA591B491BC
:100F20009FB7F894111104C08C91D095D82302C0BA
:100F3000EC91DE2BDC939FBFDF91CF911F91089541
:100F4000CF93DF9390E0FC01E656FF4F2491FC0124
:100F5000EA57FF4F8491882361F190E0880F991F31
:100F6000FC01E859FF4FC591D491FC01EE58FF4FA9
:100F7000A591B491611109C09FB7F894888120951B
:100F800082238883EC912E230BC0623061F49FB7DB
:100F9000F8948881322F309583238883EC912E2B0F
:100FA0002C939FBF06C08FB7F894E8812E2B28831F
:100FB0008FBFDF91CF910895CF93DF93623028F0F8
:100FC00090917003986090937003609374031092F3
:100FD000750390E4909376038093770390E0805CB0
:100FE0009F4F8093780361E0809165030E94A00782
:100FF000809166038F3F19F061E00E94A00761E0D5
:10100000809167030E94A007C1E6D3E09E012156AC
:1010100033408091700384FD03C084E090E002C0FF
:1010200088E090E02196281739072CF461E08E8142
:101030000E94A007EBCF8BE39DE00197F1F760E002
:10104000809165030E94710760E0809167030E94B0
:101050007107809166038F3F19F060E00E9471076D
:101060008091700384FD20C063E081E693E00E94DC
:10107000D705CBE4D6E4CE010197F1F763E081E632
:1010800093E00E94D7052197F1F763E081E693E0B2
:101090000E94D70583E592E00197F1F762E081E6CF
:1010A00093E00E94D70515C080620E94CB068BE4B6
:1010B00096E40197F1F78091700380620E94CB065D
:1010C00083E592E00197F1F78091700380620E94BE
:1010D000CB068091700380620E94CB0684E08093EF
:1010E00071038CE00E94CB060E94D10682E08093BF
:1010F000720386E0DF91CF910C94CB063FB7F89452
:1011000080917E0390917F03A0918003B091810331
:1011100026B5A89B05C02F3F19F00196A11DB11D52
:101120003FBFBA2FA92F982F8827820F911DA11D8D
:10113000B11DBC01CD0142E0660F771F881F991FCA
:101140004A95D1F708951F920F920FB60F9211246E
:101150002F933F938F939F93AF93BF9380917A0385
:1011600090917B03A0917C03B0917D033091790332
:1011700023E0230F2D3720F40196A11DB11D05C0DA
:1011800026E8230F0296A11DB11D209379038093B9
:101190007A0390937B03A0937C03B0937D038091AB
:1011A0007E0390917F03A0918003B091810301960B
:1011B000A11DB11D80937E0390937F03A0938003B4
:1011C000B0938103BF91AF919F918F913F912F91E8
:1011D0000F900FBE0F901F901895789484B5826081
:1011E00084BD84B5816084BD85B5826085BD85B5CB
:1011F000816085BD80916E00816080936E00109249
:1012000081008091810082608093810080918100C3
:101210008160809381008091800081608093800054
:101220008091B10084608093B1008091B0008160B2
:101230008093B00080917A00846080937A008091DE
:101240007A00826080937A0080917A008160809336
:101250007A0080917A00806880937A001092C100B1
:10126000F8941092800010928100109285001092E4
:10127000840088E09DE390938900809388008091AA
:1012800081008860809381008091810085608093D7
:10129000810080916F00826080936F007894E0916C
:1012A000D402F091D50282E08083E091D002F091E7
:1012B000D1021082E091D202F091D3028FEC8083B0
:1012C0001092DC02E091D802F091D90286E080838E
:1012D000E091D602F091D702808180618083E09115
:1012E000D602F091D702808188608083E091D60297
:1012F000F091D702808180688083E091D602F091DE
:10130000D70280818F7D808360E08BE00E9471072F
:1013100060E08CE00E94710761E08BE00E94A00712
:1013200061E08CE00E94A00761E08DE00E94A007D0
:1013300060E372E084EC92E00E94C7018AEE91E0E3
:101340000E94200781E08093000160E080E00E941D
:10135000A00760E081E00E94A00764E084E10E94B1
:10136000DC070E94D10680E00E94D90663E372E0A8
:1013700081E693E00E94010381E00E94D90668E4BF
:1013800072E081E693E00E9401030E947E084B0117
:101390005C0140EAC42E4FE0D42EE12CF12C0E94D7
:1013A0007E08DC01CB0188199909AA09BB09883E8E
:1013B0009340A105B10598F321E0C21AD108E108D4
:1013C000F10888EE880E83E0981EA11CB11CC114A0
:1013D000D104E104F10419F73CE3C32ED12CE12C34
:1013E000F12C0E949C018090C0029090C102A090BC
:1013F000C202B090C302681579058A059B0589F37E
:101400000E949C016093C0027093C1028093C2024B
:101410009093C30281E090E00E941B0520E030E041
:1014200040E752E40E94590D2BED3AE84DED5EE3A2
:101430000E94FA0B4B015C016093B8027093B902F1
:101440008093BA029093BB0280E090E00E941B055B
:1014500020E030E040EA50E40E94590D2BED3AE8DC
:101460004DED5EE30E94FA0B6093AC027093AD0207
:101470008093AE029093AF0220E030E048EC52E45B
:101480000E94590D2CE53FE84AEE50E40E94FA0B09
:101490000E946C0CEB017093BD026093BC028091C2
:1014A000BE029091BF028130910539F11CF4892B65
:1014B00041F081C082309105D9F1039709F441C010
:1014C0007AC0C436D1051CF082E090E00CC020E068
:1014D00030E040EA51E4C501B4010E94F50B87FFFA
:1014E00009C081E090E00E94C7039093BF028093FF
:1014F000BE0264C00E94DB0461C00E949B04809015
:10150000B4029090B502A090B602B090B7020E94CB
:101510009C01DC01CB0188199909AA09BB09813119
:101520009E40A105B10508F449C080E090E0DBCF02
:10153000CA35D1051CF483E090E0D5CF0E949B040E
:101540003DC020E030E040EA51E4C501B4010E9412
:10155000F50B87FF03C086E592E005C0C035D105D5
:1015600024F485E692E00E946304C436D1054CF071
:1015700082E090E00E94C7039093BF028093BE0276
:1015800002C00E94DB048090B0029090B102A09053
:10159000B202B090B3020E949C01DC01CB01881919
:1015A0009909AA09BB0981369445A105B10530F016
:1015B00084E792E0D8CF82E892E0D5CF0E949C01E8
:1015C000A70196010E94CB0D672B682B692B11F4A4
:1015D0000E9403030E94D10680E00E94D90663EABC
:1015E00071E081E693E00E9401038091BE02909138
:1015F000BF028430910540F4880F991FFC01EF5F12
:10160000FE4F6081718102C063E371E081E693E087
:101610000E9401038091BE029091BF028330910528
:1016200011F0892B29F56FEA71E081E693E00E94C1
:1016300001038090B0029090B102A090B202B090ED
:10164000B3020E949C01681979098A099B09A701C4
:1016500096010E94CB0DBA01A9012AE081E693E030
:101660000E94DC016EE471E081E693E00E940103D8
:101670000E94E5030E948E01B4CEE4ECF2E01382F6
:10168000128288EE93E0A0E0B0E084839583A68385
:10169000B7838DE091E09183808385EC90E095871E
:1016A000848784EC90E09787868780EC90E0918B2C
:1016B000808B81EC90E0938B828B82EC90E0958B19
:1016C000848B86EC90E0978B868B118E128E138E16
:1016D000148EE1E6F3E0138212828FE191E09183B0
:1016E00080838AE084838FEF858389E0868386E028
:1016F000878385E0808784E0818783E08287138603
:10170000148615861686178661E080E10C94DC0746
:101710005058BB27AA270E94A00B0C941A0D0E94B8
:101720000C0D38F00E94130D20F039F49F3F19F48E
:1017300026F40C94090D0EF4E095E7FB0C94030DD0
:10174000E92F0E942B0D58F3BA176207730784071D
:10175000950720F079F4A6F50C944D0D0EF4E09564
:101760000B2EBA2FA02D0B01B90190010C01CA015B
:10177000A0011124FF27591B99F0593F50F4503E06
:1017800068F11A16F040A22F232F342F4427585FF8
:10179000F3CF469537952795A795F0405395C9F710
:1017A0007EF41F16BA0B620B730B840BBAF09150C8
:1017B000A1F0FF0FBB1F661F771F881FC2F70EC067
:1017C000BA0F621F731F841F48F48795779567953A
:1017D000B795F7959E3F08F0B0CF9395880F08F026
:1017E0009927EE0F9795879508950E94DF0C08F4CE
:1017F00081E008950E940E0C0C941A0D0E94130DA6
:1018000058F00E940C0D40F029F45F3F29F00C9431
:10181000030D51110C944E0D0C94090D0E942B0DCB
:1018200068F39923B1F3552391F3951B550BBB270F
:10183000AA2762177307840738F09F5F5F4F220F54
:10184000331F441FAA1FA9F335D00E2E3AF0E0E84B
:1018500032D091505040E695001CCAF72BD0FE2F95
:1018600029D0660F771F881FBB1F26173707480729
:10187000AB07B0E809F0BB0B802DBF01FF279358E1
:101880005F4F3AF09E3F510578F00C94030D0C9495
:101890004E0D5F3FE4F3983ED4F3869577956795B8
:1018A000B795F7959F5FC9F7880F911D9695879516
:1018B00097F90895E1E0660F771F881FBB1F621735
:1018C00073078407BA0720F0621B730B840BBA0BF3
:1018D000EE1F88F7E09508950E94730C6894B1118B
:1018E0000C944E0D08950E94330D88F09F5798F088
:1018F000B92F9927B751B0F0E1F0660F771F881F15
:10190000991F1AF0BA95C9F714C0B13091F00E942E
:101910004D0DB1E008950C944D0D672F782F882759
:10192000B85F39F0B93FCCF3869577956795B39555
:10193000D9F73EF490958095709561957F4F8F4FC4
:101940009F4F0895E89409C097FB3EF490958095C9
:10195000709561957F4F8F4F9F4F9923A9F0F92F75
:1019600096E9BB279395F695879577956795B795F3
:10197000F111F8CFFAF4BB0F11F460FF1BC06F5FD9
:101980007F4F8F4F9F4F16C0882311F096E911C0EB
:10199000772321F09EE8872F762F05C0662371F00C
:1019A00096E8862F70E060E02AF09A95660F771F20
:1019B000881FDAF7880F9695879597F90895990FFC
:1019C0000008550FAA0BE0E8FEEF16161706E80709
:1019D000F907C0F012161306E407F50798F0621B2A
:1019E000730B840B950B39F40A2661F0232B242BFF
:1019F000252B21F408950A2609F4A140A6958FEF1E
:101A0000811D811D089597F99F6780E870E060E06F
:101A100008959FEF80EC089500240A941616170687
:101A200018060906089500240A94121613061406CF
:101A300005060895092E0394000C11F4882352F032
:101A4000BB0F40F4BF2B11F460FF04C06F5F7F4FEA
:101A50008F4F9F4F089557FD9058440F551F59F0D1
:101A60005F3F71F04795880F97FB991F61F09F3F8B
:101A700079F087950895121613061406551FF2CFB4
:101A80004695F1DF08C0161617061806991FF1CF04
:101A900086957105610508940895E894BB2766272B
:101AA0007727CB0197F908950E94DF0C08F48FEF98
:101AB00008950E946C0D0C941A0D0E940C0D38F0C4
:101AC0000E94130D20F0952311F00C94030D0C943B
:101AD000090D11240C944E0D0E942B0D70F3959F4F
:101AE000C1F3950F50E0551F629FF001729FBB2715
:101AF000F00DB11D639FAA27F00DB11DAA1F649FB1
:101B00006627B00DA11D661F829F2227B00DA11D63
:101B1000621F739FB00DA11D621F839FA00D611DE9
:101B2000221F749F3327A00D611D231F849F600D0A
:101B3000211D822F762F6A2F11249F5750409AF033
:101B4000F1F088234AF0EE0FFF1FBB1F661F771FBF
:101B5000881F91505040A9F79E3F510580F00C948A
:101B6000030D0C944E0D5F3FE4F3983ED4F386953D
:101B700077956795B795F795E7959F5FC1F7FE2B2A
:101B8000880F911D9695879597F908950E94DF0C0F
:101B9000880B990B0895A1E21A2EAA1BBB1BFD010D
:101BA0000DC0AA1FBB1FEE1FFF1FA217B307E4073C
:101BB000F50720F0A21BB30BE40BF50B661F771F94
:101BC000881F991F1A9469F7609570958095909574
:101BD0009B01AC01BD01CF010895052E97FB1EF4BA
:101BE00000940E94040E57FD07D00E94CB0D07FC05
:101BF00003D04EF40C94040E5095409530952195E9
:101C00003F4F4F4F5F4F0895909580957095619528
:101C10007F4F8F4F9F4F0895EE0FFF1F0590F49158
:101C2000E02D099481E090E0F8940C94170EF8945C
:021C3000FFCFE4
:101C3200018C02910296029B02000000001F018C9F
:101C420000B6006C01E700C500D900000000005793
:101C5200068C00990198016E616E00696E66006FD4
:101C6200766600556E6B6E6F776E005469636B73A8
:101C72003A2000207365636F6E64732E20006D69D5
:101C82006E0054616E6B3A2000272028002529003F
:101C920057656C6C3A200057656C6C2040206C6173
:101CA20073742070756D70207475726E206F6E3A49
:101CB200200057656C6C2040206C61737420707535
:101CC2006D70207475726E206F66663A20000A4E3F
:101CD20065772053746174653A2000272020202004
:101CE2000057656C6C404F6E3A2000272000576504
:101CF2006C6C404F66663A200027004661756C7432
:101D020020402000207365636F6E647321212121BE
:101D1200212121212121212121000A0A57656C6CF0
:101D22002050756D7020436F6E74726F6C6C6572AB
:101D32002056657220322E33310A00526170696476
:101D4200204379636C696E670053656E736F72200E
:101D52004C6F770053656E736F7220486967680035
:101D62000D0A0057656C6C2050756D7020436F6EC4
:101D720074726F6C6C65720056657273696F6E3A3D
:101D820020322E3331004C6F772057656C6C204C1B
:101D92006576656C004C6F772054616E6B204C65E4
:101DA20076656C0050756D70204C6F6E67205275B1
:101DB2006E004261642053746174650046696C6C04
:101DC2000046696C6C20576169740050756D700033
:00000001FF
