:100000000C9462000C948A000C948A000C948A0070
:100010000C948A000C948A000C948A000C948A0038
:100020000C948A000C948A000C948A000C94BA08F0
:100030000C948A000C948A000C948A000C948A0018
:100040000C9470080C948A000C9436080C94FB07EE
:100050000C948A000C948A000C948A000C948A00F8
:100060000C948A000C948A000000000024002700F1
:100070002A0000000000250028002B0000000000DE
:1000800023002600290004040404040404040202DA
:100090000202020203030303030301020408102007
:1000A0004080010204081020010204081020000012
:1000B0000007000201000003040600000000000029
:1000C0000000FF0811241FBECFEFD8E0DEBFCDBF78
:1000D00012E0A0E0B1E0EEEFFCE102C005900D926D
:1000E000A639B107D9F723E0A6E9B2E001C01D9215
:1000F000A238B207E1F710E0C2E6D0E004C02197D1
:10010000FE010E94770EC136D107C9F70E948D0902
:100110000C94F00B0C94000008950F931F93CF9351
:10012000DF93FC01A685B7858D01005C1F4FE801B8
:100130008881998101968F739927AD014E5B5F4F3E
:10014000EA012881398128173907D1F3E80128818C
:100150003981A20FB31F6C93A685B785A05CBF4FF2
:1001600011969C938E93A689B7892C9181E090E09B
:10017000078C02C0880F991F0A94E2F7822B8C9398
:1001800081E081A30488F589E02D808180648083EB
:1001900081E090E0DF91CF911F910F910895FC01D4
:1001A00081A1882329F0A489B5898C9186FFFBCF92
:1001B00011A20895FC01A485B585FD01E05CFF4F07
:1001C000208131813296808191812817390779F019
:1001D00080819181A80FB91F8C91208131812F5F7F
:1001E0003F4F2F7333273183208390E008958FEFA3
:1001F0009FEF0895DC011C96ED91FC911D97DF01A6
:10020000A05CBF4F2D913C91119712968D919C91BE
:1002100011972817390739F08D919C91E80FF91F34
:10022000808190E008958FEF9FEF0895FC01248571
:100230003585F901E05CFF4F808191813296208104
:100240003181821B930B8F73992708958BE493E080
:100250000C941601DC01ED91FC910190F081E02DF0
:100260000994CF93DF936DE08BE493E00E942A0121
:10027000EC016AE08BE493E00E942A018C0F9D1F41
:10028000DF91CF910895CF92DF92EF92FF920F937B
:100290001F93CF93DF936C01EB017B01E40EF51EFE
:1002A00000E010E0CE15DF0561F06991D601ED9117
:1002B000FC910190F081E02DC6010995080F191FEE
:1002C000F1CFC801DF91CF911F910F91FF90EF9077
:1002D000DF90CF900895833081F028F4813099F039
:1002E0008230A1F008958630A9F08730B9F08430CB
:1002F000D1F4809180008F7D03C0809180008F7742
:1003000080938000089584B58F7702C084B58F7D77
:1003100084BD08958091B0008F7703C08091B000B4
:100320008F7D8093B0000895CF93DF93282F30E026
:10033000F901E255FF4F8491F901E656FF4FD49140
:10034000F901EA57FF4FC491CC2391F081110E942B
:100350006B01EC2FF0E0EE0FFF1FE458FF4FA5916B
:10036000B491EC91ED2381E090E021F480E002C0B3
:1003700080E090E0DF91CF9108951F93CF93DF93BA
:10038000282F30E0F901E255FF4F8491F901E6563C
:10039000FF4FD491F901EA57FF4FC491CC23C1F02C
:1003A000162F81110E946B01EC2FF0E0EE0FFF1F62
:1003B000EE58FF4FA591B4919FB7F894111104C066
:1003C0008C91D095D82302C0EC91DE2BDC939FBF9B
:1003D000DF91CF911F910895CF93DF93EC0160E0FF
:1003E0008E810E94BD0161E08E810E94BD0160E0AE
:1003F0008E810E94BD018AE891E00197F1F7DF91BB
:10040000CF910895CF93DF9390E0FC01E656FF4F24
:100410002491FC01EA57FF4F8491882361F190E019
:10042000880F991FFC01E859FF4FC591D491FC0139
:10043000EE58FF4FA591B491611109C09FB7F89490
:100440008881209582238883EC912E230BC0623013
:1004500061F49FB7F8948881322F30958323888385
:10046000EC912E2B2C939FBF06C08FB7F894E88198
:100470002E2B28838FBFDF91CF910895AF92BF922B
:10048000CF92DF92EF92FF920F931F93CF93DF9360
:100490005C017C0187E0E80EF11CC0E0D0E0062F93
:1004A00010E0670161E0F70181917F010E94020283
:1004B000B8010C2E02C0759567950A94E2F7617039
:1004C000F60180810E94BD012196C430D10549F713
:1004D000C501DF91CF911F910F91FF90EF90DF90B9
:1004E000CF90BF90AF900C94EC01AF92BF92CF929F
:1004F000DF92EF92FF920F931F93CF93DF93EC0164
:10050000F62E642F8C810E94BD018D818F3F19F0E2
:1005100060E00E94BD018F850F2D10E084FF2DC08B
:100520005E0187E0A80EB11CE12CF12C650161E0B1
:10053000F50181915F010E940202B8010E2C02C0F8
:10054000759567950A94E2F76170F60180810E94C3
:10055000BD01FFEFEF1AFF0A88E0E816F10431F75A
:10056000CE01DF91CF911F910F91FF90EF90DF901F
:10057000CF90BF90AF900C94EC01B80184E07595DA
:1005800067958A95E1F7CE010E943E026F2DCE015C
:10059000DF91CF911F910F91FF90EF90DF90CF905F
:1005A000BF90AF900C943E0240E0682F8DE693E040
:1005B0000C94750281E00E94D4028AE39FE10197C6
:1005C000F1F70895CF93DF93823028F090917C0368
:1005D000986090937C0380938003109281038AE358
:1005E0009DE00197F1F760E0809171030E94BD01E9
:1005F00060E0809173030E94BD01809172038F3F80
:1006000019F060E00E94BD0180917C0384FD20C050
:1006100063E08DE693E00E943E02CAE4D6E4CE0198
:100620000197F1F763E08DE693E00E943E02219787
:10063000F1F763E08DE693E00E943E0282E592E0EE
:100640000197F1F762E08DE693E00E943E0215C04B
:1006500080620E94D4028AE496E40197F1F78091C7
:100660007C0380620E94D40282E592E00197F1F758
:1006700080917C0380620E94D40280917C0380621E
:100680000E94D40284E080937D038CE00E94D40217
:100690000E94DA0282E080937E0386E0DF91CF91B0
:1006A0000C94D402CF93DF93CDB7DEB728970FB663
:1006B000F894DEBF0FBECDBF98E0E1E0F1E0DE01CF
:1006C000119601900D929A95E1F790918003891708
:1006D00010F08FEF890FFE013196E80FF11DE80F42
:1006E000F11D8081806828960FB6F894DEBF0FBE9A
:1006F000CDBFDF91CF910C94D40241E00E947502EE
:1007000081E090E008953FB7F8948091A70290911E
:10071000A802A091A902B091AA0226B5A89B05C083
:100720002F3F19F00196A11DB11D3FBFBA2FA92F70
:10073000982F8827820F911DA11DB11DBC01CD01ED
:1007400042E0660F771F881F991F4A95D1F70895D9
:100750002FB7F89460919E0270919F028091A00241
:100760009091A1022FBF08956115710579F0FB01E9
:1007700001900020E9F73197AF01461B570BDC01D0
:10078000ED91FC910280F381E02D099480E090E0EE
:100790000895CF93DF93BC018BE493E00E94B403F0
:1007A000EC010E9431018C0F9D1FDF91CF910895C4
:1007B0008F929F92AF92BF92CF92DF92EF92FF9271
:1007C0000F931F93CF93DF93CDB7DEB7A1970FB6EB
:1007D000F894DEBF0FBECDBF6C01142FE52FCB0107
:1007E000022F19A2223008F40AE07E0121E2E20E73
:1007F000F11C802E912CA12CB12C612F7E2FA501F4
:1008000094010E94360E029F1019112481E0E81A0B
:10081000F1081A3014F4105D01C0195CF70110835F
:10082000122FE32FCA01232B242B252B31F7B701DD
:10083000C6010E94B403A1960FB6F894DEBF0FBEA6
:10084000CDBFDF91CF911F910F91FF90EF90DF907F
:10085000CF90BF90AF909F908F900895CF92DF92EE
:10086000EF92FF920F931F93CF93DF936B01770F5C
:10087000EE08FF08F7FE1BC0EC016DE20E942A01A2
:100880008C0144275527BA014C195D096E097F096F
:100890002AE0CE010E94D803800F911FDF91CF91F3
:1008A0001F910F91FF90EF90DF90CF9008952AE075
:1008B000B701A601DF91CF911F910F91FF90EF90AB
:1008C000DF90CF900C94D8034F925F926F927F92FB
:1008D0008F929F92AF92BF92CF92DF92EF92FF9250
:1008E0000F931F93CF93DF938C016A017B01B22E8C
:1008F0009A01AB01C701B6010E94310E882319F09D
:1009000069E271E027C026013701E89477F82FEFFC
:100910003FEF4FE75FE7C301B2010E94310E811143
:100920000DC02FEF3FEF4FE75FE7C301B2010E9419
:10093000600C18161CF46DE271E00CC02FEF3FEF55
:100940004FE75FE4C701B6010E94BF0D1816ACF473
:1009500061E371E0C801DF91CF911F910F91FF908A
:10096000EF90DF90CF90BF90AF909F908F907F904F
:100970006F905F904F900C94B4032FEF3FEF4FE7D1
:100980005FECC701B6010E94600C87FDE1CF20E05B
:1009900030E0A901C701B6010E94600C87FF0AC0C0
:1009A0006DE2C8010E942A01EC01F7FAF094F7F811
:1009B000F09402C0C0E0D0E0A12C60E070E080E0E4
:1009C0009FE3BA1441F020E030E040E251E40E949D
:1009D000650CA394F6CFA70196010E94F40B6B015E
:1009E0007C010E94DE0C2B013C012AE0AB01BC0122
:1009F000C8010E94D803C80FD91FBB2009F450C0FA
:100A0000C301B2010E940D0D9B01AC01C701B601EB
:100A10000E94F30B2B013C0165E371E0C8010E94C9
:100A2000B403C80FD91FFB2C20E030E040E251E4B2
:100A3000C301B2010E94C40D2B013C010E94D70CDE
:100A40004B01770FAA08BB08B7FE13C06DE2C801BF
:100A50000E942A016C0144275527BA0148195909F7
:100A60006A097B092AE0C8010E94D8038C0D9D1DEC
:100A700006C02AE0B501A401C8010E94D803C80F2E
:100A8000D91FC501B4010E940F0D9B01AC01C30128
:100A9000B2010E94F30B2B013C01FA94F110C4CF78
:100AA000CE01DF91CF911F910F91FF90EF90DF90DA
:100AB000CF90BF90AF909F908F907F906F905F90FE
:100AC0004F900895CF93DF93AB01BC0122E08BE4FC
:100AD00093E00E946404EC010E9431018C0F9D1F81
:100AE000DF91CF9108950C94B403CF92DF92EF92EF
:100AF000FF9283E092E00E94C9036FE371E08BE410
:100B000093E00E9473050E94A803AB01BC012AE098
:100B10008BE493E00E94D80387E491E00E94C9032C
:100B200067EA71E08BE493E00E9473058091BD0257
:100B30009091BE028430910540F4880F991FFC010A
:100B4000E75FFE4F6081718102C067E371E08BE473
:100B500093E00E9473058091BD029091BE028330A4
:100B6000910511F0892B21F563EB71E08BE493E0A3
:100B70000E947305C090AF02D090B002E090B10225
:100B8000F090B2020E94A8036C197D098E099F099A
:100B90002CE330E040E050E00E94360EBA01A9019B
:100BA0002AE08BE493E00E94D80382E591E002C042
:100BB00083E092E00E94C90366E571E08BE493E074
:100BC0000E9473054091AB025091AC026091AD025E
:100BD0007091AE0222E08BE493E00E9464046DE524
:100BE00071E08BE493E00E9473056091BB02709109
:100BF000BC028BE493E00E942E0481E691E00E9407
:100C0000C90364E671E08BE493E00E947305609190
:100C1000B7027091B8028091B9029091BA020E9415
:100C200062056BE671E08BE493E00E9473056091CE
:100C300096027091970280919802909199020E9479
:100C4000620566E871E08BE493E00E9473056091B1
:100C50009A0270919B0280919C0290919D020E9449
:100C600062058BE493E0FF90EF90DF90CF900C94BF
:100C7000CF00CF93DF93EC010E94750562EA71E02B
:100C80008BE493E00E947305C430D10540F4FE016B
:100C9000EE0FFF1FE75FFE4F8081918102C087E367
:100CA00091E00E94C903CE01DF91CF91089581E0C8
:100CB0000E94520364E671E08DE693E00E947305A2
:100CC0004091B7025091B8026091B9027091BA0296
:100CD00022E08DE693E00E9464046FEA71E08DE605
:100CE00093E00E94730582E00E94520366E571E082
:100CF0008DE693E00E9473054091AB025091AC02E7
:100D00006091AD027091AE0222E08DE693E00E9408
:100D100064046DE571E08DE693E00E9473056091D7
:100D2000BB027091BC028DE693E00E942E0461E646
:100D300071E08DE693E00E9473050E94A80383E0B2
:100D400060FF18C00E94520365EB71E08DE693E0EE
:100D50000E9473054091960250919702609198020B
:100D60007091990222E08DE693E00E9464046FEB9B
:100D700071E017C00E94520362EC71E08DE693E0CF
:100D80000E94730540919A0250919B0260919C02CF
:100D900070919D0222E08DE693E00E9464046DEC68
:100DA00071E08DE693E00C947305EC0160E08BE05C
:100DB0000E94BD0161E08CE00E94BD0183E092E0F1
:100DC0000E94C9036FEC71E08BE493E00E9473050D
:100DD0000E94A803AB01BC012AE08BE493E00E94CF
:100DE000D80368ED71E08BE493E00E947305CE01B7
:100DF0000E94C90383EE91E00E94C9030E94750519
:100E00000E94DA0280E00E945203BE018DE693E068
:100E10000E9473050E945706FFCF0F931F938BE02C
:100E20000E9494010197D9F58091B7029091B80280
:100E3000A091B902B091BA0280939A0290939B025A
:100E4000A0939C02B0939D020E94A8036093B302FA
:100E50007093B4028093B5029093B6020091AF02F2
:100E60001091B0022091B1023091B202011511052A
:100E70002105310571F0DC01CB01801B910BA20B28
:100E8000B30BCC97A105B10520F484E092E00E9459
:100E9000D50660E08BE01F910F910C94BD011F916E
:100EA0000F9108950F931F938BE00E949401892B5B
:100EB000D9F58091B7029091B802A091B902B09192
:100EC000BA028093960290939702A0939802B093EF
:100ED00099020E94A8036093AF027093B0028093BE
:100EE000B1029093B2020091B3021091B40220912A
:100EF000B5023091B602011511052105310571F0D9
:100F0000DC01CB01801B910BA20BB30BCC97A1058D
:100F1000B10520F484E092E00E94D50661E08BE008
:100F20001F910F910C94BD011F910F910895CF92C5
:100F3000DF92EF92FF9292EF980F8E3008F0892F98
:100F4000A82FA770E0EAF0E060E070E0CB0120910C
:100F5000000140E4249F900111242A2B20937C005F
:100F600020917A00206420937A0020917A0026FD57
:100F7000FCCF409178002091790050E0522B6A011B
:100F8000550FEE08FF086C0D7D1D8E1D9F1D3197BE
:100F9000F1F620EA30E040E050E00E94580E243A9A
:100FA00031051CF482E192E006C0293E63E0360779
:100FB00024F08DE192E00E94D506263D83E03807BB
:100FC00014F025ED33E0B901625C710977FF02C0CE
:100FD00060E070E0072E000C880B990B0E940F0D4B
:100FE00020E030EC44E454E40E94650CFF90EF9064
:100FF000DF90CF9008951F920F920FB60F92112499
:101000002F933F938F939F93EF93FF93209103032D
:101010003091040380910503909106032817390746
:1010200031F48091C1008F7D8093C10014C0E091A4
:101030000503F0910603ED53FD4F208180910503D8
:101040009091060301968F739927909306038093DE
:1010500005032093C600FF91EF919F918F913F91DF
:101060002F910F900FBE0F901F9018951F920F9207
:101070000FB60F9211242F934F935F938F939F93EB
:10108000EF93FF938091C00082FD1CC02091C600A9
:1010900080914703909148034091490350914A033E
:1010A00001968F7399274817590771F0E09147030C
:1010B000F0914803E95FFC4F2083909348038093AD
:1010C000470302C08091C600FF91EF919F918F91DD
:1010D0005F914F912F910F900FBE0F901F90189519
:1010E0001F920F920FB60F9211242F933F938F935D
:1010F0009F93AF93BF938091A3029091A402A0917C
:10110000A502B091A6023091A20223E0230F2D3751
:1011100020F40196A11DB11D05C026E8230F0296FB
:10112000A11DB11D2093A2028093A3029093A4025B
:10113000A093A502B093A6028091A7029091A80265
:10114000A091A902B091AA020196A11DB11D8093A0
:10115000A7029093A802A093A902B093AA02BF91FC
:10116000AF919F918F913F912F910F900FBE0F9054
:101170001F9018951F920F920FB60F9211242F9364
:101180003F934F935F936F937F938F939F93AF930F
:10119000BF93EF93FF9380919E0290919F02A09145
:1011A000A002B091A1020196A11DB11D80939E02E3
:1011B00090939F02A093A002B093A10280919E02FF
:1011C00090919F02A091A002B091A10280FF02C065
:1011D00061E001C060E08DE00E94BD01FF91EF91F0
:1011E000BF91AF919F918F917F916F915F914F913F
:1011F0003F912F910F900FBE0F901F901895109256
:101200004E0310924D0388EE93E0A0E0B0E080938F
:101210004F0390935003A0935103B093520385E181
:1012200091E090934C0380934B0387E093E090937D
:1012300058038093570383EC92E090935A03809372
:10124000590385EC90E090935C0380935B0384ECFE
:1012500090E090935E0380935D0380EC90E0909328
:10126000600380935F0381EC90E09093620380932E
:10127000610382EC90E0909364038093630386ECB7
:1012800090E0909366038093650394E090936703E6
:1012900083E08093680327E02093690325E020938F
:1012A0006A0331E030936B031092700310926F0366
:1012B00045E251E050936E0340936D033AE0309362
:1012C00071033FEF3093720339E03093730336E0DC
:1012D0003093740320937503909376038093770380
:1012E000109278031092790310927A0310927B0384
:1012F00061E08AE00E940202809172038F3F19F040
:1013000061E00E94020261E0809173030E94020288
:1013100010927C0381E00C94E202789484B58260A0
:1013200084BD84B5816084BD85B5826085BD85B589
:10133000816085BD80916E00816080936E00109207
:101340008100809181008260809381008091810082
:101350008160809381008091800081608093800013
:101360008091B10084608093B1008091B000816071
:101370008093B00080917A00846080937A0080919D
:101380007A00826080937A0080917A0081608093F5
:101390007A0080917A00806880937A001092C10070
:1013A000F8941092800010928100109285001092A3
:1013B000840088E09DE39093890080938800809169
:1013C0008100886080938100809181008560809396
:1013D000810080916F00826080936F007894E0912B
:1013E0005F03F091600381E090E09C0100906B034B
:1013F00002C0220F331F0A94E2F72083E0915B03BF
:10140000F0915C031082E0915D03F0915E032FEC9C
:10141000208310926C03E0916103F091620340819C
:101420009C010090670302C0220F331F0A94E2F769
:10143000242B2083E0916103F091620340819C01A1
:101440000090680302C0220F331F0A94E2F7242B96
:101450002083E0916103F091620340819C01009040
:10146000690302C0220F331F0A94E2F7242B208362
:10147000E0916103F0916203208100906A0302C051
:10148000880F991F0A94E2F780958223808360E099
:101490008BE00E94BD0160E08CE00E94BD0161E034
:1014A0008BE00E94020261E08CE00E94020261E097
:1014B0008DE00E9402020E94310183EE91E00E94C1
:1014C000C90381E08093000160E080E00E94020295
:1014D00060E081E00E94020284E00E94E2020E9439
:1014E000DA0280E00E94520369E272E08DE693E046
:1014F0000E94730581E00E9452036EE372E08DE664
:1015000093E00E9473050E948303EB0140EAC42E1E
:101510004FE0D42EE12CF12C0E9483036C1B7D0B39
:10152000683E7340C8F381E0C81AD108E108F108A9
:10153000C851DC4FC114D104E104F10469F73CE364
:10154000C32ED12CE12CF12C0E94A8038090BF0265
:101550009090C002A090C102B090C20268157905B7
:101560008A059B0589F30E94A8036093BF027093CC
:10157000C0028093C1029093C20281E090E00E9479
:10158000970720E030E040E752E40E94C40D2BEDC5
:101590003AE84DED5EE30E94650C4B015C016093FF
:1015A000B7027093B8028093B9029093BA0280E0B8
:1015B00090E00E94970720E030E040E751E40E946D
:1015C000C40D2BED3AE84DED5EE30E94650C60938F
:1015D000AB027093AC028093AD029093AE0220E018
:1015E00030E048EC52E40E94C40D20E030E040E3DB
:1015F00051E40E94650C0E94D70CEB017093BC0271
:101600006093BB028091BD029091BE028130910532
:1016100039F11CF4892B41F081C082309105D9F158
:10162000039709F441C07AC0C436D1051CF082E0AA
:1016300090E00CC020E030E040EA51E4C501B40184
:101640000E94600C87FF09C081E090E00E9439068B
:101650009093BE028093BD0264C00E94520761C095
:101660000E940D078090B3029090B402A090B50242
:10167000B090B6020E94A803DC01CB018819990939
:10168000AA09BB0981319E40A105B10508F449C0F2
:1016900080E090E0DBCFCA35D1051CF483E090E018
:1016A000D5CF0E940D073DC020E030E040EA51E474
:1016B000C501B4010E94600C87FF03C08CE492E076
:1016C00005C0C035D10524F48BE592E00E94D50613
:1016D000C436D1054CF082E090E00E943906909328
:1016E000BE028093BD0202C00E9452078090AF02EA
:1016F0009090B002A090B102B090B2020E94A803F4
:10170000DC01CB0188199909AA09BB0981369445E6
:10171000A105B10530F08AE692E0D8CF88E792E0E3
:10172000D5CF0E94A803A70196010E94360E672B11
:10173000682B692B11F40E9475050E94DA0280E083
:101740000E94520367EA71E08DE693E00E94730500
:101750008091BD029091BE028430910540F4880FC3
:10176000991FFC01E75FFE4F6081718102C067E352
:1017700071E08DE693E00E9473058091BD02909127
:10178000BE028330910511F0892B29F563EB71E0DE
:101790008DE693E00E9473058090AF029090B002B6
:1017A000A090B102B090B2020E94A8036819790912
:1017B0008A099B09A70196010E94360EBA01A90168
:1017C0002AE08DE693E00E94D80362E571E08DE6A1
:1017D00093E00E9473050E9457060E942601B4CE32
:1017E000F8940C947D0E5058BB27AA270E940B0C2E
:1017F0000C94850D0E94770D38F00E947E0D20F02C
:1018000039F49F3F19F426F40C94740D0EF4E0950E
:10181000E7FB0C946E0DE92F0E94960D58F3BA1752
:10182000620773078407950720F079F4A6F50C94F6
:10183000B80D0EF4E0950B2EBA2FA02D0B01B901B7
:1018400090010C01CA01A0011124FF27591B99F036
:10185000593F50F4503E68F11A16F040A22F232F42
:10186000342F4427585FF3CF469537952795A79592
:10187000F0405395C9F77EF41F16BA0B620B730B39
:10188000840BBAF09150A1F0FF0FBB1F661F771FAA
:10189000881FC2F70EC0BA0F621F731F841F48F45F
:1018A000879577956795B795F7959E3F08F0B0CFE8
:1018B0009395880F08F09927EE0F979587950895CF
:1018C0000E944A0D08F481E008950E94790C0C945E
:1018D000850D0E947E0D58F00E94770D40F029F48E
:1018E0005F3F29F00C946E0D51110C94B90D0C94BE
:1018F000740D0E94960D68F39923B1F3552391F36B
:10190000951B550BBB27AA2762177307840738F06E
:101910009F5F5F4F220F331F441FAA1FA9F335D0CB
:101920000E2E3AF0E0E832D091505040E695001C7F
:10193000CAF72BD0FE2F29D0660F771F881FBB1F39
:10194000261737074807AB07B0E809F0BB0B802D17
:10195000BF01FF2793585F4F3AF09E3F510578F043
:101960000C946E0D0C94B90D5F3FE4F3983ED4F3E4
:10197000869577956795B795F7959F5FC9F7880F17
:10198000911D9695879597F90895E1E0660F771F69
:10199000881FBB1F621773078407BA0720F0621BFA
:1019A000730B840BBA0BEE1F88F7E09508950E9425
:1019B000DE0C6894B1110C94B90D08950E949E0D2F
:1019C00088F09F5798F0B92F9927B751B0F0E1F000
:1019D000660F771F881F991F1AF0BA95C9F714C0B0
:1019E000B13091F00E94B80DB1E008950C94B80D9B
:1019F000672F782F8827B85F39F0B93FCCF38695E9
:101A000077956795B395D9F73EF490958095709545
:101A100061957F4F8F4F9F4F0895E89409C097FBC2
:101A20003EF490958095709561957F4F8F4F9F4FB5
:101A30009923A9F0F92F96E9BB279395F6958795F9
:101A400077956795B795F111F8CFFAF4BB0F11F4BC
:101A500060FF1BC06F5F7F4F8F4F9F4F16C0882363
:101A600011F096E911C0772321F09EE8872F762F99
:101A700005C0662371F096E8862F70E060E02AF0DA
:101A80009A95660F771F881FDAF7880F96958795C6
:101A900097F90895990F0008550FAA0BE0E8FEEF9B
:101AA00016161706E807F907C0F012161306E40722
:101AB000F50798F0621B730B840B950B39F40A261B
:101AC00061F0232B242B252B21F408950A2609F4F9
:101AD000A140A6958FEF811D811D089597F99F67FD
:101AE00080E870E060E008959FEF80EC08950024A6
:101AF0000A941616170618060906089500240A9473
:101B000012161306140605060895092E0394000CF8
:101B100011F4882352F0BB0F40F4BF2B11F460FF87
:101B200004C06F5F7F4F8F4F9F4F089557FD9058B0
:101B3000440F551F59F05F3F71F04795880F97FB91
:101B4000991F61F09F3F79F087950895121613064B
:101B50001406551FF2CF4695F1DF08C0161617067A
:101B60001806991FF1CF86957105610508940895AF
:101B7000E894BB2766277727CB0197F908950E9441
:101B80004A0D08F48FEF08950E94D70D0C94850D2F
:101B90000E94770D38F00E947E0D20F0952311F001
:101BA0000C946E0D0C94740D11240C94B90D0E94BC
:101BB000960D70F3959FC1F3950F50E0551F629FEE
:101BC000F001729FBB27F00DB11D639FAA27F00D96
:101BD000B11DAA1F649F6627B00DA11D661F829FBD
:101BE0002227B00DA11D621F739FB00DA11D621FA2
:101BF000839FA00D611D221F749F3327A00D611DBF
:101C0000231F849F600D211D822F762F6A2F1124A0
:101C10009F5750409AF0F1F088234AF0EE0FFF1FD3
:101C2000BB1F661F771F881F91505040A9F79E3F2A
:101C3000510580F00C946E0D0C94B90D5F3FE4F3E8
:101C4000983ED4F3869577956795B795F795E79580
:101C50009F5FC1F7FE2B880F911D9695879597F989
:101C600008950E944A0D880B990B0895A1E21A2E3F
:101C7000AA1BBB1BFD010DC0AA1FBB1FEE1FFF1F30
:101C8000A217B307E407F50720F0A21BB30BE40B80
:101C9000F50B661F771F881F991F1A9469F76095C7
:101CA0007095809590959B01AC01BD01CF01089581
:101CB000052E97FB1EF400940E946F0E57FD07D06F
:101CC0000E94360E07FC03D04EF40C946F0E509514
:101CD0004095309521953F4F4F4F5F4F0895909518
:101CE0008095709561957F4F8F4F9F4F0895EE0FB0
:0E1CF000FF1F0590F491E02D0994F894FFCFAA
:101CFE00010000400014005400820287028C029101
:101D0E0002000000008D0043011601DA00FA00CF38
:101D1E0000000000007D0343016E616E00696E6677
:101D2E00006F7666002E00556E6B6E6F776E0054E8
:101D3E0069636B733A2000207365636F6E64732E54
:101D4E0020006D696E0054616E6B3A2000272028CA
:101D5E000025290057656C6C3A200057656C6C2085
:101D6E0040206C6173742070756D70207475726E86
:101D7E00206F6E3A200057656C6C2040206C6173AA
:101D8E00742070756D70207475726E206F66663A71
:101D9E0020000A4E65772053746174653A2000273F
:101DAE00202020200057656C6C404F6E3A20002793
:101DBE00200057656C6C404F66663A20002700463F
:101DCE0061756C7420402000207365636F6E6473C0
:101DDE003A20000A0A57656C6C2050756D702043CE
:101DEE006F6E74726F6C6C65722056657220322E37
:101DFE0033350A005261706964204379636C696EF1
:101E0E00670053656E736F72204C6F770053656E6B
:101E1E00736F7220486967680057656C6C20507547
:101E2E006D7020436F6E74726F6C6C6572005665C8
:101E3E007273696F6E3A20322E3335004C6F7720F5
:101E4E0057656C6C204C6576656C004C6F77205432
:101E5E00616E6B204C6576656C0050756D70204C14
:101E6E006F6E672052756E00426164205374617408
:101E7E00650046696C6C0046696C6C20576169742C
:061E8E000050756D7000AC
:00000001FF
